{
  "_format": "hh-sol-artifact-1",
  "contractName": "mockStakingRewards",
  "sourceName": "contracts/MockStakingRewards.sol",
  "abi": [
    {
      "inputs": [
        {
          "internalType": "address",
          "name": "mockTokenContractAddress",
          "type": "address"
        },
        {
          "internalType": "address",
          "name": "mockLpTokenContractAddress",
          "type": "address"
        },
        {
          "internalType": "uint256",
          "name": "startBlock_",
          "type": "uint256"
        }
      ],
      "stateMutability": "nonpayable",
      "type": "constructor"
    },
    {
      "anonymous": false,
      "inputs": [
        {
          "indexed": true,
          "internalType": "address",
          "name": "user",
          "type": "address"
        },
        {
          "indexed": false,
          "internalType": "uint256",
          "name": "amount",
          "type": "uint256"
        }
      ],
      "name": "Deposit",
      "type": "event"
    },
    {
      "anonymous": false,
      "inputs": [
        {
          "indexed": true,
          "internalType": "address",
          "name": "admin",
          "type": "address"
        },
        {
          "indexed": false,
          "internalType": "uint256",
          "name": "amount",
          "type": "uint256"
        },
        {
          "indexed": false,
          "internalType": "uint256",
          "name": "rewardPerBlock",
          "type": "uint256"
        },
        {
          "indexed": false,
          "internalType": "uint256",
          "name": "endBlock",
          "type": "uint256"
        }
      ],
      "name": "Funding",
      "type": "event"
    },
    {
      "anonymous": false,
      "inputs": [
        {
          "indexed": true,
          "internalType": "address",
          "name": "user",
          "type": "address"
        },
        {
          "indexed": false,
          "internalType": "uint256",
          "name": "amount",
          "type": "uint256"
        }
      ],
      "name": "Harvest",
      "type": "event"
    },
    {
      "anonymous": false,
      "inputs": [
        {
          "indexed": false,
          "internalType": "uint256",
          "name": "newMaxFundAmount",
          "type": "uint256"
        }
      ],
      "name": "MaxFundSet",
      "type": "event"
    },
    {
      "anonymous": false,
      "inputs": [
        {
          "indexed": true,
          "internalType": "address",
          "name": "user",
          "type": "address"
        },
        {
          "indexed": false,
          "internalType": "uint256",
          "name": "amount",
          "type": "uint256"
        }
      ],
      "name": "Withdraw",
      "type": "event"
    },
    {
      "inputs": [
        {
          "internalType": "uint256",
          "name": "_amount",
          "type": "uint256"
        }
      ],
      "name": "deposit",
      "outputs": [],
      "stateMutability": "nonpayable",
      "type": "function"
    },
    {
      "inputs": [],
      "name": "endBlock",
      "outputs": [
        {
          "internalType": "uint256",
          "name": "",
          "type": "uint256"
        }
      ],
      "stateMutability": "view",
      "type": "function"
    },
    {
      "inputs": [
        {
          "internalType": "uint256",
          "name": "_amount",
          "type": "uint256"
        },
        {
          "internalType": "uint256",
          "name": "_rewardPerBlock",
          "type": "uint256"
        }
      ],
      "name": "fund",
      "outputs": [],
      "stateMutability": "nonpayable",
      "type": "function"
    },
    {
      "inputs": [],
      "name": "getLatestRewardPerShare",
      "outputs": [
        {
          "internalType": "uint256",
          "name": "accmockPerShare",
          "type": "uint256"
        }
      ],
      "stateMutability": "view",
      "type": "function"
    },
    {
      "inputs": [],
      "name": "getLpSupplyAndLastBlock",
      "outputs": [
        {
          "internalType": "uint256",
          "name": "lpSupply",
          "type": "uint256"
        },
        {
          "internalType": "uint256",
          "name": "lastBlock",
          "type": "uint256"
        }
      ],
      "stateMutability": "view",
      "type": "function"
    },
    {
      "inputs": [],
      "name": "getTotalPending",
      "outputs": [
        {
          "internalType": "uint256",
          "name": "",
          "type": "uint256"
        }
      ],
      "stateMutability": "view",
      "type": "function"
    },
    {
      "inputs": [
        {
          "internalType": "address",
          "name": "_user",
          "type": "address"
        }
      ],
      "name": "getUserDepositedAmount",
      "outputs": [
        {
          "internalType": "uint256",
          "name": "",
          "type": "uint256"
        }
      ],
      "stateMutability": "view",
      "type": "function"
    },
    {
      "inputs": [
        {
          "internalType": "address",
          "name": "_user",
          "type": "address"
        }
      ],
      "name": "getUserPendingReward",
      "outputs": [
        {
          "internalType": "uint256",
          "name": "",
          "type": "uint256"
        }
      ],
      "stateMutability": "view",
      "type": "function"
    },
    {
      "inputs": [
        {
          "internalType": "address",
          "name": "_to",
          "type": "address"
        }
      ],
      "name": "harvest",
      "outputs": [],
      "stateMutability": "nonpayable",
      "type": "function"
    },
    {
      "inputs": [],
      "name": "lastFunded",
      "outputs": [
        {
          "internalType": "uint256",
          "name": "",
          "type": "uint256"
        }
      ],
      "stateMutability": "view",
      "type": "function"
    },
    {
      "inputs": [],
      "name": "maxFundAmount",
      "outputs": [
        {
          "internalType": "uint256",
          "name": "",
          "type": "uint256"
        }
      ],
      "stateMutability": "view",
      "type": "function"
    },
    {
      "inputs": [],
      "name": "poolInfo",
      "outputs": [
        {
          "internalType": "uint256",
          "name": "lastRewardBlock",
          "type": "uint256"
        },
        {
          "internalType": "uint256",
          "name": "accmockPerShare",
          "type": "uint256"
        }
      ],
      "stateMutability": "view",
      "type": "function"
    },
    {
      "inputs": [],
      "name": "rewardPerBlock",
      "outputs": [
        {
          "internalType": "uint256",
          "name": "",
          "type": "uint256"
        }
      ],
      "stateMutability": "view",
      "type": "function"
    },
    {
      "inputs": [],
      "name": "rewarder",
      "outputs": [
        {
          "internalType": "address",
          "name": "",
          "type": "address"
        }
      ],
      "stateMutability": "view",
      "type": "function"
    },
    {
      "inputs": [
        {
          "internalType": "uint256",
          "name": "_newMaxFundAmount",
          "type": "uint256"
        }
      ],
      "name": "setMaxFundAmount",
      "outputs": [],
      "stateMutability": "nonpayable",
      "type": "function"
    },
    {
      "inputs": [],
      "name": "startBlock",
      "outputs": [
        {
          "internalType": "uint256",
          "name": "",
          "type": "uint256"
        }
      ],
      "stateMutability": "view",
      "type": "function"
    },
    {
      "inputs": [],
      "name": "sweep",
      "outputs": [],
      "stateMutability": "nonpayable",
      "type": "function"
    },
    {
      "inputs": [],
      "name": "totalPaidOut",
      "outputs": [
        {
          "internalType": "uint256",
          "name": "",
          "type": "uint256"
        }
      ],
      "stateMutability": "view",
      "type": "function"
    },
    {
      "inputs": [],
      "name": "updatePool",
      "outputs": [],
      "stateMutability": "nonpayable",
      "type": "function"
    },
    {
      "inputs": [
        {
          "internalType": "address",
          "name": "",
          "type": "address"
        }
      ],
      "name": "userInfo",
      "outputs": [
        {
          "internalType": "uint256",
          "name": "amount",
          "type": "uint256"
        },
        {
          "internalType": "uint256",
          "name": "rewardDebt",
          "type": "uint256"
        }
      ],
      "stateMutability": "view",
      "type": "function"
    },
    {
      "inputs": [
        {
          "internalType": "uint256",
          "name": "_amount",
          "type": "uint256"
        }
      ],
      "name": "withdraw",
      "outputs": [],
      "stateMutability": "nonpayable",
      "type": "function"
    }
  ],
  "bytecode": "0x60a060405234801561001057600080fd5b50604051620014033803806200140383398101604081905261003191610152565b6001600160a01b03831661008c5760405162461bcd60e51b815260206004820152601c60248201527f746f6b656e20616464726573732063616e6e6f74206265207a65726f0000000060448201526064015b60405180910390fd5b600580546001600160a01b0319166001600160a01b038581169190911790915582166100fa5760405162461bcd60e51b815260206004820152601f60248201527f6c7020746f6b656e20616464726573732063616e6e6f74206265207a65726f006044820152606401610083565b600680546001600160a01b039093166001600160a01b03199384161790556080819052600281905560075560098054909116331790555061018d565b80516001600160a01b038116811461014d57600080fd5b919050565b600080600060608486031215610166578283fd5b61016f84610136565b925061017d60208501610136565b9150604084015190509250925092565b608051611237620001cc600039600081816101ba015281816105cf0152818161066d01528181610897015281816108be0152610b2a01526112376000f3fe608060405234801561001057600080fd5b50600436106101075760003560e01c8063083c63231461010c5780630e5c011e146101285780631357e1dc1461013d5780631959a002146101465780632b1bf448146101825780632e1a7d4d1461018a57806335faa4161461019d5780633bd05400146101a55780634099d475146101ad57806348cd4cb1146101b55780635a2f3d09146101dc5780636ec3e028146101ea57806380cac648146101fd5780638ae39cac14610206578063a65e2cfd1461020f578063b6b55f2514610222578063c671062914610235578063dc1a704e14610248578063dcc3e06e14610251578063e3161ddd14610271578063f84e8d1714610279575b600080fd5b61011560025481565b6040519081526020015b60405180910390f35b61013b610136366004610ff9565b6102a2565b005b61011560005481565b61016d610154366004610ff9565b600a602052600090815260409020805460019091015482565b6040805192835260208301919091520161011f565b61016d61031e565b61013b610198366004611040565b6103b3565b61013b6104e0565b6101156105cb565b610115610642565b6101157f000000000000000000000000000000000000000000000000000000000000000081565b60075460085461016d919082565b61013b6101f8366004611040565b6106ec565b61011560045481565b61011560015481565b61013b61021d366004611070565b6107a4565b61013b610230366004611040565b6109c7565b610115610243366004610ff9565b610a9c565b61011560035481565b600954610264906001600160a01b031681565b60405161011f91906110ad565b61013b610b10565b610115610287366004610ff9565b6001600160a01b03166000908152600a602052604090205490565b6001600160a01b0381166102fd5760405162461bcd60e51b815260206004820152601f60248201527f72656365697665722063616e6e6f74206265207a65726f20616464726573730060448201526064015b60405180910390fd5b336000908152600a6020526040902061031582610c37565b60019091015550565b6006546040516370a0823160e01b815260009182916001600160a01b03909116906370a08231906103539030906004016110ad565b60206040518083038186803b15801561036b57600080fd5b505afa15801561037f573d6000803e3d6000fd5b505050506040513d601f19601f820116820180604052508101906103a39190611058565b91506103ad610cb6565b90509091565b600081116103d35760405162461bcd60e51b81526004016102f4906110f4565b336000908152600a602052604090208054828110156104475760405162461bcd60e51b815260206004820152602a60248201527f77697468647261773a2063616e2774207769746864726177206d6f7265207468604482015269185b8819195c1bdcda5d60b21b60648201526084016102f4565b61045033610c37565b508282600001600082825461046591906111a8565b9091555050600854825464e8d4a510009161047f91611189565b6104899190611169565b60018301556006546104a5906001600160a01b03163385610ccd565b60405183815233907f884edad9ce6fa2440d8a54cc123490eb96d2768479d49ff9c7366125a9424364906020015b60405180910390a2505050565b6009546001600160a01b0316331461050a5760405162461bcd60e51b81526004016102f49061112b565b6005546040516370a0823160e01b81526105a39133916001600160a01b03909116906370a08231906105409030906004016110ad565b60206040518083038186803b15801561055857600080fd5b505afa15801561056c573d6000803e3d6000fd5b505050506040513d601f19601f820116820180604052508101906105909190611058565b6005546001600160a01b03169190610ccd565b4360028190556040805180820190915281815260006020909101819052600791909155600855565b60007f000000000000000000000000000000000000000000000000000000000000000043116105fa5750600090565b600061060461031e565b5090506000610611610642565b60005490915064e8d4a510006106278385611189565b6106319190611169565b61063b91906111a8565b9250505090565b604080518082019091526007548152600854602082018190529060008061066761031e565b915091507f00000000000000000000000000000000000000000000000000000000000000008111801561069a5750600082115b156106e6576001548351600091906106b290846111a8565b6106bc9190611189565b9050826106ce64e8d4a5100083611189565b6106d89190611169565b6106e29086611151565b9450505b50505090565b6009546001600160a01b031633146107165760405162461bcd60e51b81526004016102f49061112b565b6a0c685fa11e01ec6f0000008111156107695760405162461bcd60e51b81526020600482015260156024820152741b995dc81b585e08195e18d959591cc81b1a5b5a5d605a1b60448201526064016102f4565b60048190556040518181527fedae72a2479964e1d1648f9e804fae2eacbaa51f05a00e59d1a171ba8557680a9060200160405180910390a150565b6009546001600160a01b031633146107ce5760405162461bcd60e51b81526004016102f49061112b565b60045482111561081f5760405162461bcd60e51b815260206004820152601c60248201527b616d6f756e742065786365656473206d617820616c6c6f7761626c6560201b60448201526064016102f4565b81811061086e5760405162461bcd60e51b815260206004820152601f60248201527f726577617264206d757374206265206c657373207468616e20616d6f756e740060448201526064016102f4565b610876610b10565b6001819055600554610893906001600160a01b0316333085610d35565b60007f000000000000000000000000000000000000000000000000000000000000000043116108e2577f00000000000000000000000000000000000000000000000000000000000000006108e4565b435b6005546040516370a0823160e01b815291925083916001600160a01b03909116906370a08231906109199030906004016110ad565b60206040518083038186803b15801561093157600080fd5b505afa158015610945573d6000803e3d6000fd5b505050506040513d601f19601f820116820180604052508101906109699190611058565b6109739190611169565b61097d9082611151565b60028190554260035560408051858152602081018590529081019190915233907f261eef0a9bca6d5e251dabbfb67268ac5711273f959abc61f49497e9350926ca906060016104d3565b600081116109e75760405162461bcd60e51b81526004016102f4906110f4565b336000818152600a60205260409020805460018201549192909190610a0b90610c37565b50600654610a24906001600160a01b0316333087610d35565b83836000016000828254610a389190611151565b9091555050600854835464e8d4a5100091610a5291611189565b610a5c9190611169565b600184015560405184815233907fe1fffcc4923d04b559f4d29a8bfc6cda04eb5b0d3c460751c2402c5c5cc9109c9060200160405180910390a250505050565b6001600160a01b0381166000908152600a60209081526040808320815180830190925280548252600101549181019190915281610ad7610642565b9050816020015164e8d4a51000828460000151610af49190611189565b610afe9190611169565b610b0891906111a8565b949350505050565b6000610b1a610cb6565b600754909150811480610b4d57507f00000000000000000000000000000000000000000000000000000000000000008111155b15610b555750565b6006546040516370a0823160e01b81526000916001600160a01b0316906370a0823190610b869030906004016110ad565b60206040518083038186803b158015610b9e57600080fd5b505afa158015610bb2573d6000803e3d6000fd5b505050506040513d601f19601f82011682018060405250810190610bd69190611058565b90508015610c315760015460075460009190610bf290856111a8565b610bfc9190611189565b905081610c0e64e8d4a5100083611189565b610c189190611169565b60088054600090610c2a908490611151565b9091555050505b50600755565b6000610c41610b10565b336000908152600a6020526040902054610c5d57506000919050565b6000610c6833610a9c565b90508015610cb057610c7a8382610d73565b60405181815233907fc9695243a805adb74c91f28311176c65b417e842d5699893cef56d18bfa48cba9060200160405180910390a25b50919050565b60006002544310610cc8575060025490565b504390565b6040516001600160a01b038316602482015260448101829052610d3090849063a9059cbb60e01b906064015b60408051601f198184030181529190526020810180516001600160e01b03166001600160e01b031990931692909217909152610da4565b505050565b6040516001600160a01b0380851660248301528316604482015260648101829052610d6d9085906323b872dd60e01b90608401610cf9565b50505050565b600554610d8a906001600160a01b03168383610ccd565b80600080828254610d9b9190611151565b90915550505050565b6000610df9826040518060400160405280602081526020017f5361666545524332303a206c6f772d6c6576656c2063616c6c206661696c6564815250856001600160a01b0316610e769092919063ffffffff16565b805190915015610d305780806020019051810190610e179190611020565b610d305760405162461bcd60e51b815260206004820152602a60248201527f5361666545524332303a204552433230206f7065726174696f6e20646964206e6044820152691bdd081cdd58d8d9595960b21b60648201526084016102f4565b6060610e858484600085610e8f565b90505b9392505050565b606082471015610ef05760405162461bcd60e51b815260206004820152602660248201527f416464726573733a20696e73756666696369656e742062616c616e636520666f6044820152651c8818d85b1b60d21b60648201526084016102f4565b6001600160a01b0385163b610f475760405162461bcd60e51b815260206004820152601d60248201527f416464726573733a2063616c6c20746f206e6f6e2d636f6e747261637400000060448201526064016102f4565b600080866001600160a01b03168587604051610f639190611091565b60006040518083038185875af1925050503d8060008114610fa0576040519150601f19603f3d011682016040523d82523d6000602084013e610fa5565b606091505b5091509150610fb5828286610fc0565b979650505050505050565b60608315610fcf575081610e88565b825115610fdf5782518084602001fd5b8160405162461bcd60e51b81526004016102f491906110c1565b60006020828403121561100a578081fd5b81356001600160a01b0381168114610e88578182fd5b600060208284031215611031578081fd5b81518015158114610e88578182fd5b600060208284031215611051578081fd5b5035919050565b600060208284031215611069578081fd5b5051919050565b60008060408385031215611082578081fd5b50508035926020909101359150565b600082516110a38184602087016111bf565b9190910192915050565b6001600160a01b0391909116815260200190565b60208152600082518060208401526110e08160408501602087016111bf565b601f01601f19169190910160400192915050565b6020808252601d908201527f616d6f756e74206d7573742062652067726561746572207468616e2030000000604082015260600190565b6020808252600c908201526b2737ba102932bbb0b93232b960a11b604082015260600190565b60008219821115611164576111646111eb565b500190565b60008261118457634e487b7160e01b81526012600452602481fd5b500490565b60008160001904831182151516156111a3576111a36111eb565b500290565b6000828210156111ba576111ba6111eb565b500390565b60005b838110156111da5781810151838201526020016111c2565b83811115610d6d5750506000910152565b634e487b7160e01b600052601160045260246000fdfea264697066735822122099c6292181f722ecdea5602473132d6c9373ed532eb7aa1e2e112ed970e1bbc164736f6c63430008040033",
  "linkReferences": {},
  "deployedLinkReferences": {}
}