{
  "contracts/MockStakingRewards.sol": {
    "mockStakingRewards": {
      "abi": [
        {
          "inputs": [
            {
              "internalType": "address",
              "name": "mockTokenContractAddress",
              "type": "address"
            },
            {
              "internalType": "address",
              "name": "mockLpTokenContractAddress",
              "type": "address"
            },
            {
              "internalType": "uint256",
              "name": "startBlock_",
              "type": "uint256"
            }
          ],
          "stateMutability": "nonpayable",
          "type": "constructor"
        },
        {
          "anonymous": false,
          "inputs": [
            {
              "indexed": true,
              "internalType": "address",
              "name": "user",
              "type": "address"
            },
            {
              "indexed": false,
              "internalType": "uint256",
              "name": "amount",
              "type": "uint256"
            }
          ],
          "name": "Deposit",
          "type": "event"
        },
        {
          "anonymous": false,
          "inputs": [
            {
              "indexed": true,
              "internalType": "address",
              "name": "admin",
              "type": "address"
            },
            {
              "indexed": false,
              "internalType": "uint256",
              "name": "amount",
              "type": "uint256"
            },
            {
              "indexed": false,
              "internalType": "uint256",
              "name": "rewardPerBlock",
              "type": "uint256"
            },
            {
              "indexed": false,
              "internalType": "uint256",
              "name": "endBlock",
              "type": "uint256"
            }
          ],
          "name": "Funding",
          "type": "event"
        },
        {
          "anonymous": false,
          "inputs": [
            {
              "indexed": true,
              "internalType": "address",
              "name": "user",
              "type": "address"
            },
            {
              "indexed": false,
              "internalType": "uint256",
              "name": "amount",
              "type": "uint256"
            }
          ],
          "name": "Harvest",
          "type": "event"
        },
        {
          "anonymous": false,
          "inputs": [
            {
              "indexed": false,
              "internalType": "uint256",
              "name": "newMaxFundAmount",
              "type": "uint256"
            }
          ],
          "name": "MaxFundSet",
          "type": "event"
        },
        {
          "anonymous": false,
          "inputs": [
            {
              "indexed": true,
              "internalType": "address",
              "name": "user",
              "type": "address"
            },
            {
              "indexed": false,
              "internalType": "uint256",
              "name": "amount",
              "type": "uint256"
            }
          ],
          "name": "Withdraw",
          "type": "event"
        },
        {
          "inputs": [
            {
              "internalType": "uint256",
              "name": "_amount",
              "type": "uint256"
            }
          ],
          "name": "deposit",
          "outputs": [],
          "stateMutability": "nonpayable",
          "type": "function"
        },
        {
          "inputs": [],
          "name": "endBlock",
          "outputs": [
            {
              "internalType": "uint256",
              "name": "",
              "type": "uint256"
            }
          ],
          "stateMutability": "view",
          "type": "function"
        },
        {
          "inputs": [
            {
              "internalType": "uint256",
              "name": "_amount",
              "type": "uint256"
            },
            {
              "internalType": "uint256",
              "name": "_rewardPerBlock",
              "type": "uint256"
            }
          ],
          "name": "fund",
          "outputs": [],
          "stateMutability": "nonpayable",
          "type": "function"
        },
        {
          "inputs": [],
          "name": "getLatestRewardPerShare",
          "outputs": [
            {
              "internalType": "uint256",
              "name": "accmockPerShare",
              "type": "uint256"
            }
          ],
          "stateMutability": "view",
          "type": "function"
        },
        {
          "inputs": [],
          "name": "getLpSupplyAndLastBlock",
          "outputs": [
            {
              "internalType": "uint256",
              "name": "lpSupply",
              "type": "uint256"
            },
            {
              "internalType": "uint256",
              "name": "lastBlock",
              "type": "uint256"
            }
          ],
          "stateMutability": "view",
          "type": "function"
        },
        {
          "inputs": [],
          "name": "getTotalPending",
          "outputs": [
            {
              "internalType": "uint256",
              "name": "",
              "type": "uint256"
            }
          ],
          "stateMutability": "view",
          "type": "function"
        },
        {
          "inputs": [
            {
              "internalType": "address",
              "name": "_user",
              "type": "address"
            }
          ],
          "name": "getUserDepositedAmount",
          "outputs": [
            {
              "internalType": "uint256",
              "name": "",
              "type": "uint256"
            }
          ],
          "stateMutability": "view",
          "type": "function"
        },
        {
          "inputs": [
            {
              "internalType": "address",
              "name": "_user",
              "type": "address"
            }
          ],
          "name": "getUserPendingReward",
          "outputs": [
            {
              "internalType": "uint256",
              "name": "",
              "type": "uint256"
            }
          ],
          "stateMutability": "view",
          "type": "function"
        },
        {
          "inputs": [
            {
              "internalType": "address",
              "name": "_to",
              "type": "address"
            }
          ],
          "name": "harvest",
          "outputs": [],
          "stateMutability": "nonpayable",
          "type": "function"
        },
        {
          "inputs": [],
          "name": "lastFunded",
          "outputs": [
            {
              "internalType": "uint256",
              "name": "",
              "type": "uint256"
            }
          ],
          "stateMutability": "view",
          "type": "function"
        },
        {
          "inputs": [],
          "name": "maxFundAmount",
          "outputs": [
            {
              "internalType": "uint256",
              "name": "",
              "type": "uint256"
            }
          ],
          "stateMutability": "view",
          "type": "function"
        },
        {
          "inputs": [],
          "name": "poolInfo",
          "outputs": [
            {
              "internalType": "uint256",
              "name": "lastRewardBlock",
              "type": "uint256"
            },
            {
              "internalType": "uint256",
              "name": "accmockPerShare",
              "type": "uint256"
            }
          ],
          "stateMutability": "view",
          "type": "function"
        },
        {
          "inputs": [],
          "name": "rewardPerBlock",
          "outputs": [
            {
              "internalType": "uint256",
              "name": "",
              "type": "uint256"
            }
          ],
          "stateMutability": "view",
          "type": "function"
        },
        {
          "inputs": [],
          "name": "rewarder",
          "outputs": [
            {
              "internalType": "address",
              "name": "",
              "type": "address"
            }
          ],
          "stateMutability": "view",
          "type": "function"
        },
        {
          "inputs": [
            {
              "internalType": "uint256",
              "name": "_newMaxFundAmount",
              "type": "uint256"
            }
          ],
          "name": "setMaxFundAmount",
          "outputs": [],
          "stateMutability": "nonpayable",
          "type": "function"
        },
        {
          "inputs": [],
          "name": "startBlock",
          "outputs": [
            {
              "internalType": "uint256",
              "name": "",
              "type": "uint256"
            }
          ],
          "stateMutability": "view",
          "type": "function"
        },
        {
          "inputs": [],
          "name": "sweep",
          "outputs": [],
          "stateMutability": "nonpayable",
          "type": "function"
        },
        {
          "inputs": [],
          "name": "totalPaidOut",
          "outputs": [
            {
              "internalType": "uint256",
              "name": "",
              "type": "uint256"
            }
          ],
          "stateMutability": "view",
          "type": "function"
        },
        {
          "inputs": [],
          "name": "updatePool",
          "outputs": [],
          "stateMutability": "nonpayable",
          "type": "function"
        },
        {
          "inputs": [
            {
              "internalType": "address",
              "name": "",
              "type": "address"
            }
          ],
          "name": "userInfo",
          "outputs": [
            {
              "internalType": "uint256",
              "name": "amount",
              "type": "uint256"
            },
            {
              "internalType": "uint256",
              "name": "rewardDebt",
              "type": "uint256"
            }
          ],
          "stateMutability": "view",
          "type": "function"
        },
        {
          "inputs": [
            {
              "internalType": "uint256",
              "name": "_amount",
              "type": "uint256"
            }
          ],
          "name": "withdraw",
          "outputs": [],
          "stateMutability": "nonpayable",
          "type": "function"
        }
      ],
      "devdoc": {
        "kind": "dev",
        "methods": {},
        "version": 1
      },
      "evm": {
        "bytecode": {
          "linkReferences": {},
          "object": "60a060405234801561001057600080fd5b50604051620014193803806200141983398101604081905261003191610152565b6001600160a01b03831661008c5760405162461bcd60e51b815260206004820152601c60248201527f746f6b656e20616464726573732063616e6e6f74206265207a65726f0000000060448201526064015b60405180910390fd5b600580546001600160a01b0319166001600160a01b038581169190911790915582166100fa5760405162461bcd60e51b815260206004820152601f60248201527f6c7020746f6b656e20616464726573732063616e6e6f74206265207a65726f006044820152606401610083565b600680546001600160a01b039093166001600160a01b03199384161790556080819052600281905560075560098054909116331790555061018d565b80516001600160a01b038116811461014d57600080fd5b919050565b600080600060608486031215610166578283fd5b61016f84610136565b925061017d60208501610136565b9150604084015190509250925092565b60805161124d620001cc600039600081816101ba0152818161063e015281816106dc015281816109060152818161092d0152610b9a015261124d6000f3fe608060405234801561001057600080fd5b50600436106101075760003560e01c8063083c63231461010c5780630e5c011e146101285780631357e1dc1461013d5780631959a002146101465780632b1bf448146101825780632e1a7d4d1461018a57806335faa4161461019d5780633bd05400146101a55780634099d475146101ad57806348cd4cb1146101b55780635a2f3d09146101dc5780636ec3e028146101ea57806380cac648146101fd5780638ae39cac14610206578063a65e2cfd1461020f578063b6b55f2514610222578063c671062914610235578063dc1a704e14610248578063dcc3e06e14610251578063e3161ddd14610271578063f84e8d1714610279575b600080fd5b61011560025481565b6040519081526020015b60405180910390f35b61013b61013636600461100f565b6102a2565b005b61011560005481565b61016d61015436600461100f565b600a602052600090815260409020805460019091015482565b6040805192835260208301919091520161011f565b61016d610327565b61013b610198366004611056565b6103bc565b61013b6104f1565b61011561063a565b6101156106b1565b6101157f000000000000000000000000000000000000000000000000000000000000000081565b60075460085461016d919082565b61013b6101f8366004611056565b61075b565b61011560045481565b61011560015481565b61013b61021d366004611086565b610813565b61013b610230366004611056565b610a3e565b61011561024336600461100f565b610b0c565b61011560035481565b600954610264906001600160a01b031681565b60405161011f91906110c3565b61013b610b80565b61011561028736600461100f565b6001600160a01b03166000908152600a602052604090205490565b6001600160a01b0381166102fd5760405162461bcd60e51b815260206004820152601f60248201527f72656365697665722063616e6e6f74206265207a65726f20616464726573730060448201526064015b60405180910390fd5b336000908152600a602052604090208054600182015461031e918491610ca7565b60019091015550565b6006546040516370a0823160e01b815260009182916001600160a01b03909116906370a082319061035c9030906004016110c3565b60206040518083038186803b15801561037457600080fd5b505afa158015610388573d6000803e3d6000fd5b505050506040513d601f19601f820116820180604052508101906103ac919061106e565b91506103b6610d3b565b90509091565b600081116103dc5760405162461bcd60e51b81526004016102f49061110a565b336000908152600a6020526040902080546001820154838210156104555760405162461bcd60e51b815260206004820152602a60248201527f77697468647261773a2063616e2774207769746864726177206d6f7265207468604482015269185b8819195c1bdcda5d60b21b60648201526084016102f4565b610460338383610ca7565b508383600001600082825461047591906111be565b9091555050600854835464e8d4a510009161048f9161119f565b610499919061117f565b60018401556006546104b5906001600160a01b03163386610d52565b60405184815233907f884edad9ce6fa2440d8a54cc123490eb96d2768479d49ff9c7366125a9424364906020015b60405180910390a250505050565b6009546001600160a01b0316331461051b5760405162461bcd60e51b81526004016102f490611141565b60035461052b906276a700611167565b42116105795760405162461bcd60e51b815260206004820181905260248201527f393020646179732073696e6365206c6173742066756e6420726571756972656460448201526064016102f4565b6005546040516370a0823160e01b81526106129133916001600160a01b03909116906370a08231906105af9030906004016110c3565b60206040518083038186803b1580156105c757600080fd5b505afa1580156105db573d6000803e3d6000fd5b505050506040513d601f19601f820116820180604052508101906105ff919061106e565b6005546001600160a01b03169190610d52565b4360028190556040805180820190915281815260006020909101819052600791909155600855565b60007f000000000000000000000000000000000000000000000000000000000000000043116106695750600090565b6000610673610327565b50905060006106806106b1565b60005490915064e8d4a51000610696838561119f565b6106a0919061117f565b6106aa91906111be565b9250505090565b60408051808201909152600754815260085460208201819052906000806106d6610327565b915091507f0000000000000000000000000000000000000000000000000000000000000000811180156107095750600082115b156107555760015483516000919061072190846111be565b61072b919061119f565b90508261073d64e8d4a510008361119f565b610747919061117f565b6107519086611167565b9450505b50505090565b6009546001600160a01b031633146107855760405162461bcd60e51b81526004016102f490611141565b6a0c685fa11e01ec6f0000008111156107d85760405162461bcd60e51b81526020600482015260156024820152741b995dc81b585e08195e18d959591cc81b1a5b5a5d605a1b60448201526064016102f4565b60048190556040518181527fedae72a2479964e1d1648f9e804fae2eacbaa51f05a00e59d1a171ba8557680a9060200160405180910390a150565b6009546001600160a01b0316331461083d5760405162461bcd60e51b81526004016102f490611141565b60045482111561088e5760405162461bcd60e51b815260206004820152601c60248201527b616d6f756e742065786365656473206d617820616c6c6f7761626c6560201b60448201526064016102f4565b8181106108dd5760405162461bcd60e51b815260206004820152601f60248201527f726577617264206d757374206265206c657373207468616e20616d6f756e740060448201526064016102f4565b6108e5610b80565b6001819055600554610902906001600160a01b0316333085610dba565b60007f00000000000000000000000000000000000000000000000000000000000000004311610951577f0000000000000000000000000000000000000000000000000000000000000000610953565b435b6005546040516370a0823160e01b815291925083916001600160a01b03909116906370a08231906109889030906004016110c3565b60206040518083038186803b1580156109a057600080fd5b505afa1580156109b4573d6000803e3d6000fd5b505050506040513d601f19601f820116820180604052508101906109d8919061106e565b6109e2919061117f565b6109ec9082611167565b60028190554260035560408051858152602081018590529081019190915233907f261eef0a9bca6d5e251dabbfb67268ac5711273f959abc61f49497e9350926ca9060600160405180910390a2505050565b60008111610a5e5760405162461bcd60e51b81526004016102f49061110a565b336000818152600a60205260409020805460018201549192909190610a84908383610ca7565b50600654610a9d906001600160a01b0316333087610dba565b83836000016000828254610ab19190611167565b9091555050600854835464e8d4a5100091610acb9161119f565b610ad5919061117f565b600184015560405184815233907fe1fffcc4923d04b559f4d29a8bfc6cda04eb5b0d3c460751c2402c5c5cc9109c906020016104e3565b6001600160a01b0381166000908152600a60209081526040808320815180830190925280548252600101549181019190915281610b476106b1565b9050816020015164e8d4a51000828460000151610b64919061119f565b610b6e919061117f565b610b7891906111be565b949350505050565b6000610b8a610d3b565b600754909150811480610bbd57507f00000000000000000000000000000000000000000000000000000000000000008111155b15610bc55750565b6006546040516370a0823160e01b81526000916001600160a01b0316906370a0823190610bf69030906004016110c3565b60206040518083038186803b158015610c0e57600080fd5b505afa158015610c22573d6000803e3d6000fd5b505050506040513d601f19601f82011682018060405250810190610c46919061106e565b90508015610ca15760015460075460009190610c6290856111be565b610c6c919061119f565b905081610c7e64e8d4a510008361119f565b610c88919061117f565b60088054600090610c9a908490611167565b9091555050505b50600755565b6000610cb1610b80565b82610cbe57506000610d34565b60085464e8d4a5100090610cd2908561119f565b610cdc919061117f565b90506000610cea83836111be565b90508015610d3257610cfc8582610df8565b60405181815233907fc9695243a805adb74c91f28311176c65b417e842d5699893cef56d18bfa48cba9060200160405180910390a25b505b9392505050565b60006002544310610d4d575060025490565b504390565b6040516001600160a01b038316602482015260448101829052610db590849063a9059cbb60e01b906064015b60408051601f198184030181529190526020810180516001600160e01b03166001600160e01b031990931692909217909152610e29565b505050565b6040516001600160a01b0380851660248301528316604482015260648101829052610df29085906323b872dd60e01b90608401610d7e565b50505050565b600554610e0f906001600160a01b03168383610d52565b80600080828254610e209190611167565b90915550505050565b6000610e7e826040518060400160405280602081526020017f5361666545524332303a206c6f772d6c6576656c2063616c6c206661696c6564815250856001600160a01b0316610efb9092919063ffffffff16565b805190915015610db55780806020019051810190610e9c9190611036565b610db55760405162461bcd60e51b815260206004820152602a60248201527f5361666545524332303a204552433230206f7065726174696f6e20646964206e6044820152691bdd081cdd58d8d9595960b21b60648201526084016102f4565b6060610b788484600085856001600160a01b0385163b610f5d5760405162461bcd60e51b815260206004820152601d60248201527f416464726573733a2063616c6c20746f206e6f6e2d636f6e747261637400000060448201526064016102f4565b600080866001600160a01b03168587604051610f7991906110a7565b60006040518083038185875af1925050503d8060008114610fb6576040519150601f19603f3d011682016040523d82523d6000602084013e610fbb565b606091505b5091509150610fcb828286610fd6565b979650505050505050565b60608315610fe5575081610d34565b825115610ff55782518084602001fd5b8160405162461bcd60e51b81526004016102f491906110d7565b600060208284031215611020578081fd5b81356001600160a01b0381168114610d34578182fd5b600060208284031215611047578081fd5b81518015158114610d34578182fd5b600060208284031215611067578081fd5b5035919050565b60006020828403121561107f578081fd5b5051919050565b60008060408385031215611098578081fd5b50508035926020909101359150565b600082516110b98184602087016111d5565b9190910192915050565b6001600160a01b0391909116815260200190565b60208152600082518060208401526110f68160408501602087016111d5565b601f01601f19169190910160400192915050565b6020808252601d908201527f616d6f756e74206d7573742062652067726561746572207468616e2030000000604082015260600190565b6020808252600c908201526b2737ba102932bbb0b93232b960a11b604082015260600190565b6000821982111561117a5761117a611201565b500190565b60008261119a57634e487b7160e01b81526012600452602481fd5b500490565b60008160001904831182151516156111b9576111b9611201565b500290565b6000828210156111d0576111d0611201565b500390565b60005b838110156111f05781810151838201526020016111d8565b83811115610df25750506000910152565b634e487b7160e01b600052601160045260246000fdfea2646970667358221220c08a208515bb7510660f2b1a66ea92979240cd265b14d6af5b6d1714ab075d7a64736f6c63430008040033",
          "opcodes": "PUSH1 0xA0 PUSH1 0x40 MSTORE CALLVALUE DUP1 ISZERO PUSH2 0x10 JUMPI PUSH1 0x0 DUP1 REVERT JUMPDEST POP PUSH1 0x40 MLOAD PUSH3 0x1419 CODESIZE SUB DUP1 PUSH3 0x1419 DUP4 CODECOPY DUP2 ADD PUSH1 0x40 DUP2 SWAP1 MSTORE PUSH2 0x31 SWAP2 PUSH2 0x152 JUMP JUMPDEST PUSH1 0x1 PUSH1 0x1 PUSH1 0xA0 SHL SUB DUP4 AND PUSH2 0x8C JUMPI PUSH1 0x40 MLOAD PUSH3 0x461BCD PUSH1 0xE5 SHL DUP2 MSTORE PUSH1 0x20 PUSH1 0x4 DUP3 ADD MSTORE PUSH1 0x1C PUSH1 0x24 DUP3 ADD MSTORE PUSH32 0x746F6B656E20616464726573732063616E6E6F74206265207A65726F00000000 PUSH1 0x44 DUP3 ADD MSTORE PUSH1 0x64 ADD JUMPDEST PUSH1 0x40 MLOAD DUP1 SWAP2 SUB SWAP1 REVERT JUMPDEST PUSH1 0x5 DUP1 SLOAD PUSH1 0x1 PUSH1 0x1 PUSH1 0xA0 SHL SUB NOT AND PUSH1 0x1 PUSH1 0x1 PUSH1 0xA0 SHL SUB DUP6 DUP2 AND SWAP2 SWAP1 SWAP2 OR SWAP1 SWAP2 SSTORE DUP3 AND PUSH2 0xFA JUMPI PUSH1 0x40 MLOAD PUSH3 0x461BCD PUSH1 0xE5 SHL DUP2 MSTORE PUSH1 0x20 PUSH1 0x4 DUP3 ADD MSTORE PUSH1 0x1F PUSH1 0x24 DUP3 ADD MSTORE PUSH32 0x6C7020746F6B656E20616464726573732063616E6E6F74206265207A65726F00 PUSH1 0x44 DUP3 ADD MSTORE PUSH1 0x64 ADD PUSH2 0x83 JUMP JUMPDEST PUSH1 0x6 DUP1 SLOAD PUSH1 0x1 PUSH1 0x1 PUSH1 0xA0 SHL SUB SWAP1 SWAP4 AND PUSH1 0x1 PUSH1 0x1 PUSH1 0xA0 SHL SUB NOT SWAP4 DUP5 AND OR SWAP1 SSTORE PUSH1 0x80 DUP2 SWAP1 MSTORE PUSH1 0x2 DUP2 SWAP1 SSTORE PUSH1 0x7 SSTORE PUSH1 0x9 DUP1 SLOAD SWAP1 SWAP2 AND CALLER OR SWAP1 SSTORE POP PUSH2 0x18D JUMP JUMPDEST DUP1 MLOAD PUSH1 0x1 PUSH1 0x1 PUSH1 0xA0 SHL SUB DUP2 AND DUP2 EQ PUSH2 0x14D JUMPI PUSH1 0x0 DUP1 REVERT JUMPDEST SWAP2 SWAP1 POP JUMP JUMPDEST PUSH1 0x0 DUP1 PUSH1 0x0 PUSH1 0x60 DUP5 DUP7 SUB SLT ISZERO PUSH2 0x166 JUMPI DUP3 DUP4 REVERT JUMPDEST PUSH2 0x16F DUP5 PUSH2 0x136 JUMP JUMPDEST SWAP3 POP PUSH2 0x17D PUSH1 0x20 DUP6 ADD PUSH2 0x136 JUMP JUMPDEST SWAP2 POP PUSH1 0x40 DUP5 ADD MLOAD SWAP1 POP SWAP3 POP SWAP3 POP SWAP3 JUMP JUMPDEST PUSH1 0x80 MLOAD PUSH2 0x124D PUSH3 0x1CC PUSH1 0x0 CODECOPY PUSH1 0x0 DUP2 DUP2 PUSH2 0x1BA ADD MSTORE DUP2 DUP2 PUSH2 0x63E ADD MSTORE DUP2 DUP2 PUSH2 0x6DC ADD MSTORE DUP2 DUP2 PUSH2 0x906 ADD MSTORE DUP2 DUP2 PUSH2 0x92D ADD MSTORE PUSH2 0xB9A ADD MSTORE PUSH2 0x124D PUSH1 0x0 RETURN INVALID PUSH1 0x80 PUSH1 0x40 MSTORE CALLVALUE DUP1 ISZERO PUSH2 0x10 JUMPI PUSH1 0x0 DUP1 REVERT JUMPDEST POP PUSH1 0x4 CALLDATASIZE LT PUSH2 0x107 JUMPI PUSH1 0x0 CALLDATALOAD PUSH1 0xE0 SHR DUP1 PUSH4 0x83C6323 EQ PUSH2 0x10C JUMPI DUP1 PUSH4 0xE5C011E EQ PUSH2 0x128 JUMPI DUP1 PUSH4 0x1357E1DC EQ PUSH2 0x13D JUMPI DUP1 PUSH4 0x1959A002 EQ PUSH2 0x146 JUMPI DUP1 PUSH4 0x2B1BF448 EQ PUSH2 0x182 JUMPI DUP1 PUSH4 0x2E1A7D4D EQ PUSH2 0x18A JUMPI DUP1 PUSH4 0x35FAA416 EQ PUSH2 0x19D JUMPI DUP1 PUSH4 0x3BD05400 EQ PUSH2 0x1A5 JUMPI DUP1 PUSH4 0x4099D475 EQ PUSH2 0x1AD JUMPI DUP1 PUSH4 0x48CD4CB1 EQ PUSH2 0x1B5 JUMPI DUP1 PUSH4 0x5A2F3D09 EQ PUSH2 0x1DC JUMPI DUP1 PUSH4 0x6EC3E028 EQ PUSH2 0x1EA JUMPI DUP1 PUSH4 0x80CAC648 EQ PUSH2 0x1FD JUMPI DUP1 PUSH4 0x8AE39CAC EQ PUSH2 0x206 JUMPI DUP1 PUSH4 0xA65E2CFD EQ PUSH2 0x20F JUMPI DUP1 PUSH4 0xB6B55F25 EQ PUSH2 0x222 JUMPI DUP1 PUSH4 0xC6710629 EQ PUSH2 0x235 JUMPI DUP1 PUSH4 0xDC1A704E EQ PUSH2 0x248 JUMPI DUP1 PUSH4 0xDCC3E06E EQ PUSH2 0x251 JUMPI DUP1 PUSH4 0xE3161DDD EQ PUSH2 0x271 JUMPI DUP1 PUSH4 0xF84E8D17 EQ PUSH2 0x279 JUMPI JUMPDEST PUSH1 0x0 DUP1 REVERT JUMPDEST PUSH2 0x115 PUSH1 0x2 SLOAD DUP2 JUMP JUMPDEST PUSH1 0x40 MLOAD SWAP1 DUP2 MSTORE PUSH1 0x20 ADD JUMPDEST PUSH1 0x40 MLOAD DUP1 SWAP2 SUB SWAP1 RETURN JUMPDEST PUSH2 0x13B PUSH2 0x136 CALLDATASIZE PUSH1 0x4 PUSH2 0x100F JUMP JUMPDEST PUSH2 0x2A2 JUMP JUMPDEST STOP JUMPDEST PUSH2 0x115 PUSH1 0x0 SLOAD DUP2 JUMP JUMPDEST PUSH2 0x16D PUSH2 0x154 CALLDATASIZE PUSH1 0x4 PUSH2 0x100F JUMP JUMPDEST PUSH1 0xA PUSH1 0x20 MSTORE PUSH1 0x0 SWAP1 DUP2 MSTORE PUSH1 0x40 SWAP1 KECCAK256 DUP1 SLOAD PUSH1 0x1 SWAP1 SWAP2 ADD SLOAD DUP3 JUMP JUMPDEST PUSH1 0x40 DUP1 MLOAD SWAP3 DUP4 MSTORE PUSH1 0x20 DUP4 ADD SWAP2 SWAP1 SWAP2 MSTORE ADD PUSH2 0x11F JUMP JUMPDEST PUSH2 0x16D PUSH2 0x327 JUMP JUMPDEST PUSH2 0x13B PUSH2 0x198 CALLDATASIZE PUSH1 0x4 PUSH2 0x1056 JUMP JUMPDEST PUSH2 0x3BC JUMP JUMPDEST PUSH2 0x13B PUSH2 0x4F1 JUMP JUMPDEST PUSH2 0x115 PUSH2 0x63A JUMP JUMPDEST PUSH2 0x115 PUSH2 0x6B1 JUMP JUMPDEST PUSH2 0x115 PUSH32 0x0 DUP2 JUMP JUMPDEST PUSH1 0x7 SLOAD PUSH1 0x8 SLOAD PUSH2 0x16D SWAP2 SWAP1 DUP3 JUMP JUMPDEST PUSH2 0x13B PUSH2 0x1F8 CALLDATASIZE PUSH1 0x4 PUSH2 0x1056 JUMP JUMPDEST PUSH2 0x75B JUMP JUMPDEST PUSH2 0x115 PUSH1 0x4 SLOAD DUP2 JUMP JUMPDEST PUSH2 0x115 PUSH1 0x1 SLOAD DUP2 JUMP JUMPDEST PUSH2 0x13B PUSH2 0x21D CALLDATASIZE PUSH1 0x4 PUSH2 0x1086 JUMP JUMPDEST PUSH2 0x813 JUMP JUMPDEST PUSH2 0x13B PUSH2 0x230 CALLDATASIZE PUSH1 0x4 PUSH2 0x1056 JUMP JUMPDEST PUSH2 0xA3E JUMP JUMPDEST PUSH2 0x115 PUSH2 0x243 CALLDATASIZE PUSH1 0x4 PUSH2 0x100F JUMP JUMPDEST PUSH2 0xB0C JUMP JUMPDEST PUSH2 0x115 PUSH1 0x3 SLOAD DUP2 JUMP JUMPDEST PUSH1 0x9 SLOAD PUSH2 0x264 SWAP1 PUSH1 0x1 PUSH1 0x1 PUSH1 0xA0 SHL SUB AND DUP2 JUMP JUMPDEST PUSH1 0x40 MLOAD PUSH2 0x11F SWAP2 SWAP1 PUSH2 0x10C3 JUMP JUMPDEST PUSH2 0x13B PUSH2 0xB80 JUMP JUMPDEST PUSH2 0x115 PUSH2 0x287 CALLDATASIZE PUSH1 0x4 PUSH2 0x100F JUMP JUMPDEST PUSH1 0x1 PUSH1 0x1 PUSH1 0xA0 SHL SUB AND PUSH1 0x0 SWAP1 DUP2 MSTORE PUSH1 0xA PUSH1 0x20 MSTORE PUSH1 0x40 SWAP1 KECCAK256 SLOAD SWAP1 JUMP JUMPDEST PUSH1 0x1 PUSH1 0x1 PUSH1 0xA0 SHL SUB DUP2 AND PUSH2 0x2FD JUMPI PUSH1 0x40 MLOAD PUSH3 0x461BCD PUSH1 0xE5 SHL DUP2 MSTORE PUSH1 0x20 PUSH1 0x4 DUP3 ADD MSTORE PUSH1 0x1F PUSH1 0x24 DUP3 ADD MSTORE PUSH32 0x72656365697665722063616E6E6F74206265207A65726F206164647265737300 PUSH1 0x44 DUP3 ADD MSTORE PUSH1 0x64 ADD JUMPDEST PUSH1 0x40 MLOAD DUP1 SWAP2 SUB SWAP1 REVERT JUMPDEST CALLER PUSH1 0x0 SWAP1 DUP2 MSTORE PUSH1 0xA PUSH1 0x20 MSTORE PUSH1 0x40 SWAP1 KECCAK256 DUP1 SLOAD PUSH1 0x1 DUP3 ADD SLOAD PUSH2 0x31E SWAP2 DUP5 SWAP2 PUSH2 0xCA7 JUMP JUMPDEST PUSH1 0x1 SWAP1 SWAP2 ADD SSTORE POP JUMP JUMPDEST PUSH1 0x6 SLOAD PUSH1 0x40 MLOAD PUSH4 0x70A08231 PUSH1 0xE0 SHL DUP2 MSTORE PUSH1 0x0 SWAP2 DUP3 SWAP2 PUSH1 0x1 PUSH1 0x1 PUSH1 0xA0 SHL SUB SWAP1 SWAP2 AND SWAP1 PUSH4 0x70A08231 SWAP1 PUSH2 0x35C SWAP1 ADDRESS SWAP1 PUSH1 0x4 ADD PUSH2 0x10C3 JUMP JUMPDEST PUSH1 0x20 PUSH1 0x40 MLOAD DUP1 DUP4 SUB DUP2 DUP7 DUP1 EXTCODESIZE ISZERO DUP1 ISZERO PUSH2 0x374 JUMPI PUSH1 0x0 DUP1 REVERT JUMPDEST POP GAS STATICCALL ISZERO DUP1 ISZERO PUSH2 0x388 JUMPI RETURNDATASIZE PUSH1 0x0 DUP1 RETURNDATACOPY RETURNDATASIZE PUSH1 0x0 REVERT JUMPDEST POP POP POP POP PUSH1 0x40 MLOAD RETURNDATASIZE PUSH1 0x1F NOT PUSH1 0x1F DUP3 ADD AND DUP3 ADD DUP1 PUSH1 0x40 MSTORE POP DUP2 ADD SWAP1 PUSH2 0x3AC SWAP2 SWAP1 PUSH2 0x106E JUMP JUMPDEST SWAP2 POP PUSH2 0x3B6 PUSH2 0xD3B JUMP JUMPDEST SWAP1 POP SWAP1 SWAP2 JUMP JUMPDEST PUSH1 0x0 DUP2 GT PUSH2 0x3DC JUMPI PUSH1 0x40 MLOAD PUSH3 0x461BCD PUSH1 0xE5 SHL DUP2 MSTORE PUSH1 0x4 ADD PUSH2 0x2F4 SWAP1 PUSH2 0x110A JUMP JUMPDEST CALLER PUSH1 0x0 SWAP1 DUP2 MSTORE PUSH1 0xA PUSH1 0x20 MSTORE PUSH1 0x40 SWAP1 KECCAK256 DUP1 SLOAD PUSH1 0x1 DUP3 ADD SLOAD DUP4 DUP3 LT ISZERO PUSH2 0x455 JUMPI PUSH1 0x40 MLOAD PUSH3 0x461BCD PUSH1 0xE5 SHL DUP2 MSTORE PUSH1 0x20 PUSH1 0x4 DUP3 ADD MSTORE PUSH1 0x2A PUSH1 0x24 DUP3 ADD MSTORE PUSH32 0x77697468647261773A2063616E2774207769746864726177206D6F7265207468 PUSH1 0x44 DUP3 ADD MSTORE PUSH10 0x185B8819195C1BDCDA5D PUSH1 0xB2 SHL PUSH1 0x64 DUP3 ADD MSTORE PUSH1 0x84 ADD PUSH2 0x2F4 JUMP JUMPDEST PUSH2 0x460 CALLER DUP4 DUP4 PUSH2 0xCA7 JUMP JUMPDEST POP DUP4 DUP4 PUSH1 0x0 ADD PUSH1 0x0 DUP3 DUP3 SLOAD PUSH2 0x475 SWAP2 SWAP1 PUSH2 0x11BE JUMP JUMPDEST SWAP1 SWAP2 SSTORE POP POP PUSH1 0x8 SLOAD DUP4 SLOAD PUSH5 0xE8D4A51000 SWAP2 PUSH2 0x48F SWAP2 PUSH2 0x119F JUMP JUMPDEST PUSH2 0x499 SWAP2 SWAP1 PUSH2 0x117F JUMP JUMPDEST PUSH1 0x1 DUP5 ADD SSTORE PUSH1 0x6 SLOAD PUSH2 0x4B5 SWAP1 PUSH1 0x1 PUSH1 0x1 PUSH1 0xA0 SHL SUB AND CALLER DUP7 PUSH2 0xD52 JUMP JUMPDEST PUSH1 0x40 MLOAD DUP5 DUP2 MSTORE CALLER SWAP1 PUSH32 0x884EDAD9CE6FA2440D8A54CC123490EB96D2768479D49FF9C7366125A9424364 SWAP1 PUSH1 0x20 ADD JUMPDEST PUSH1 0x40 MLOAD DUP1 SWAP2 SUB SWAP1 LOG2 POP POP POP POP JUMP JUMPDEST PUSH1 0x9 SLOAD PUSH1 0x1 PUSH1 0x1 PUSH1 0xA0 SHL SUB AND CALLER EQ PUSH2 0x51B JUMPI PUSH1 0x40 MLOAD PUSH3 0x461BCD PUSH1 0xE5 SHL DUP2 MSTORE PUSH1 0x4 ADD PUSH2 0x2F4 SWAP1 PUSH2 0x1141 JUMP JUMPDEST PUSH1 0x3 SLOAD PUSH2 0x52B SWAP1 PUSH3 0x76A700 PUSH2 0x1167 JUMP JUMPDEST TIMESTAMP GT PUSH2 0x579 JUMPI PUSH1 0x40 MLOAD PUSH3 0x461BCD PUSH1 0xE5 SHL DUP2 MSTORE PUSH1 0x20 PUSH1 0x4 DUP3 ADD DUP2 SWAP1 MSTORE PUSH1 0x24 DUP3 ADD MSTORE PUSH32 0x393020646179732073696E6365206C6173742066756E64207265717569726564 PUSH1 0x44 DUP3 ADD MSTORE PUSH1 0x64 ADD PUSH2 0x2F4 JUMP JUMPDEST PUSH1 0x5 SLOAD PUSH1 0x40 MLOAD PUSH4 0x70A08231 PUSH1 0xE0 SHL DUP2 MSTORE PUSH2 0x612 SWAP2 CALLER SWAP2 PUSH1 0x1 PUSH1 0x1 PUSH1 0xA0 SHL SUB SWAP1 SWAP2 AND SWAP1 PUSH4 0x70A08231 SWAP1 PUSH2 0x5AF SWAP1 ADDRESS SWAP1 PUSH1 0x4 ADD PUSH2 0x10C3 JUMP JUMPDEST PUSH1 0x20 PUSH1 0x40 MLOAD DUP1 DUP4 SUB DUP2 DUP7 DUP1 EXTCODESIZE ISZERO DUP1 ISZERO PUSH2 0x5C7 JUMPI PUSH1 0x0 DUP1 REVERT JUMPDEST POP GAS STATICCALL ISZERO DUP1 ISZERO PUSH2 0x5DB JUMPI RETURNDATASIZE PUSH1 0x0 DUP1 RETURNDATACOPY RETURNDATASIZE PUSH1 0x0 REVERT JUMPDEST POP POP POP POP PUSH1 0x40 MLOAD RETURNDATASIZE PUSH1 0x1F NOT PUSH1 0x1F DUP3 ADD AND DUP3 ADD DUP1 PUSH1 0x40 MSTORE POP DUP2 ADD SWAP1 PUSH2 0x5FF SWAP2 SWAP1 PUSH2 0x106E JUMP JUMPDEST PUSH1 0x5 SLOAD PUSH1 0x1 PUSH1 0x1 PUSH1 0xA0 SHL SUB AND SWAP2 SWAP1 PUSH2 0xD52 JUMP JUMPDEST NUMBER PUSH1 0x2 DUP2 SWAP1 SSTORE PUSH1 0x40 DUP1 MLOAD DUP1 DUP3 ADD SWAP1 SWAP2 MSTORE DUP2 DUP2 MSTORE PUSH1 0x0 PUSH1 0x20 SWAP1 SWAP2 ADD DUP2 SWAP1 MSTORE PUSH1 0x7 SWAP2 SWAP1 SWAP2 SSTORE PUSH1 0x8 SSTORE JUMP JUMPDEST PUSH1 0x0 PUSH32 0x0 NUMBER GT PUSH2 0x669 JUMPI POP PUSH1 0x0 SWAP1 JUMP JUMPDEST PUSH1 0x0 PUSH2 0x673 PUSH2 0x327 JUMP JUMPDEST POP SWAP1 POP PUSH1 0x0 PUSH2 0x680 PUSH2 0x6B1 JUMP JUMPDEST PUSH1 0x0 SLOAD SWAP1 SWAP2 POP PUSH5 0xE8D4A51000 PUSH2 0x696 DUP4 DUP6 PUSH2 0x119F JUMP JUMPDEST PUSH2 0x6A0 SWAP2 SWAP1 PUSH2 0x117F JUMP JUMPDEST PUSH2 0x6AA SWAP2 SWAP1 PUSH2 0x11BE JUMP JUMPDEST SWAP3 POP POP POP SWAP1 JUMP JUMPDEST PUSH1 0x40 DUP1 MLOAD DUP1 DUP3 ADD SWAP1 SWAP2 MSTORE PUSH1 0x7 SLOAD DUP2 MSTORE PUSH1 0x8 SLOAD PUSH1 0x20 DUP3 ADD DUP2 SWAP1 MSTORE SWAP1 PUSH1 0x0 DUP1 PUSH2 0x6D6 PUSH2 0x327 JUMP JUMPDEST SWAP2 POP SWAP2 POP PUSH32 0x0 DUP2 GT DUP1 ISZERO PUSH2 0x709 JUMPI POP PUSH1 0x0 DUP3 GT JUMPDEST ISZERO PUSH2 0x755 JUMPI PUSH1 0x1 SLOAD DUP4 MLOAD PUSH1 0x0 SWAP2 SWAP1 PUSH2 0x721 SWAP1 DUP5 PUSH2 0x11BE JUMP JUMPDEST PUSH2 0x72B SWAP2 SWAP1 PUSH2 0x119F JUMP JUMPDEST SWAP1 POP DUP3 PUSH2 0x73D PUSH5 0xE8D4A51000 DUP4 PUSH2 0x119F JUMP JUMPDEST PUSH2 0x747 SWAP2 SWAP1 PUSH2 0x117F JUMP JUMPDEST PUSH2 0x751 SWAP1 DUP7 PUSH2 0x1167 JUMP JUMPDEST SWAP5 POP POP JUMPDEST POP POP POP SWAP1 JUMP JUMPDEST PUSH1 0x9 SLOAD PUSH1 0x1 PUSH1 0x1 PUSH1 0xA0 SHL SUB AND CALLER EQ PUSH2 0x785 JUMPI PUSH1 0x40 MLOAD PUSH3 0x461BCD PUSH1 0xE5 SHL DUP2 MSTORE PUSH1 0x4 ADD PUSH2 0x2F4 SWAP1 PUSH2 0x1141 JUMP JUMPDEST PUSH11 0xC685FA11E01EC6F000000 DUP2 GT ISZERO PUSH2 0x7D8 JUMPI PUSH1 0x40 MLOAD PUSH3 0x461BCD PUSH1 0xE5 SHL DUP2 MSTORE PUSH1 0x20 PUSH1 0x4 DUP3 ADD MSTORE PUSH1 0x15 PUSH1 0x24 DUP3 ADD MSTORE PUSH21 0x1B995DC81B585E08195E18D959591CC81B1A5B5A5D PUSH1 0x5A SHL PUSH1 0x44 DUP3 ADD MSTORE PUSH1 0x64 ADD PUSH2 0x2F4 JUMP JUMPDEST PUSH1 0x4 DUP2 SWAP1 SSTORE PUSH1 0x40 MLOAD DUP2 DUP2 MSTORE PUSH32 0xEDAE72A2479964E1D1648F9E804FAE2EACBAA51F05A00E59D1A171BA8557680A SWAP1 PUSH1 0x20 ADD PUSH1 0x40 MLOAD DUP1 SWAP2 SUB SWAP1 LOG1 POP JUMP JUMPDEST PUSH1 0x9 SLOAD PUSH1 0x1 PUSH1 0x1 PUSH1 0xA0 SHL SUB AND CALLER EQ PUSH2 0x83D JUMPI PUSH1 0x40 MLOAD PUSH3 0x461BCD PUSH1 0xE5 SHL DUP2 MSTORE PUSH1 0x4 ADD PUSH2 0x2F4 SWAP1 PUSH2 0x1141 JUMP JUMPDEST PUSH1 0x4 SLOAD DUP3 GT ISZERO PUSH2 0x88E JUMPI PUSH1 0x40 MLOAD PUSH3 0x461BCD PUSH1 0xE5 SHL DUP2 MSTORE PUSH1 0x20 PUSH1 0x4 DUP3 ADD MSTORE PUSH1 0x1C PUSH1 0x24 DUP3 ADD MSTORE PUSH28 0x616D6F756E742065786365656473206D617820616C6C6F7761626C65 PUSH1 0x20 SHL PUSH1 0x44 DUP3 ADD MSTORE PUSH1 0x64 ADD PUSH2 0x2F4 JUMP JUMPDEST DUP2 DUP2 LT PUSH2 0x8DD JUMPI PUSH1 0x40 MLOAD PUSH3 0x461BCD PUSH1 0xE5 SHL DUP2 MSTORE PUSH1 0x20 PUSH1 0x4 DUP3 ADD MSTORE PUSH1 0x1F PUSH1 0x24 DUP3 ADD MSTORE PUSH32 0x726577617264206D757374206265206C657373207468616E20616D6F756E7400 PUSH1 0x44 DUP3 ADD MSTORE PUSH1 0x64 ADD PUSH2 0x2F4 JUMP JUMPDEST PUSH2 0x8E5 PUSH2 0xB80 JUMP JUMPDEST PUSH1 0x1 DUP2 SWAP1 SSTORE PUSH1 0x5 SLOAD PUSH2 0x902 SWAP1 PUSH1 0x1 PUSH1 0x1 PUSH1 0xA0 SHL SUB AND CALLER ADDRESS DUP6 PUSH2 0xDBA JUMP JUMPDEST PUSH1 0x0 PUSH32 0x0 NUMBER GT PUSH2 0x951 JUMPI PUSH32 0x0 PUSH2 0x953 JUMP JUMPDEST NUMBER JUMPDEST PUSH1 0x5 SLOAD PUSH1 0x40 MLOAD PUSH4 0x70A08231 PUSH1 0xE0 SHL DUP2 MSTORE SWAP2 SWAP3 POP DUP4 SWAP2 PUSH1 0x1 PUSH1 0x1 PUSH1 0xA0 SHL SUB SWAP1 SWAP2 AND SWAP1 PUSH4 0x70A08231 SWAP1 PUSH2 0x988 SWAP1 ADDRESS SWAP1 PUSH1 0x4 ADD PUSH2 0x10C3 JUMP JUMPDEST PUSH1 0x20 PUSH1 0x40 MLOAD DUP1 DUP4 SUB DUP2 DUP7 DUP1 EXTCODESIZE ISZERO DUP1 ISZERO PUSH2 0x9A0 JUMPI PUSH1 0x0 DUP1 REVERT JUMPDEST POP GAS STATICCALL ISZERO DUP1 ISZERO PUSH2 0x9B4 JUMPI RETURNDATASIZE PUSH1 0x0 DUP1 RETURNDATACOPY RETURNDATASIZE PUSH1 0x0 REVERT JUMPDEST POP POP POP POP PUSH1 0x40 MLOAD RETURNDATASIZE PUSH1 0x1F NOT PUSH1 0x1F DUP3 ADD AND DUP3 ADD DUP1 PUSH1 0x40 MSTORE POP DUP2 ADD SWAP1 PUSH2 0x9D8 SWAP2 SWAP1 PUSH2 0x106E JUMP JUMPDEST PUSH2 0x9E2 SWAP2 SWAP1 PUSH2 0x117F JUMP JUMPDEST PUSH2 0x9EC SWAP1 DUP3 PUSH2 0x1167 JUMP JUMPDEST PUSH1 0x2 DUP2 SWAP1 SSTORE TIMESTAMP PUSH1 0x3 SSTORE PUSH1 0x40 DUP1 MLOAD DUP6 DUP2 MSTORE PUSH1 0x20 DUP2 ADD DUP6 SWAP1 MSTORE SWAP1 DUP2 ADD SWAP2 SWAP1 SWAP2 MSTORE CALLER SWAP1 PUSH32 0x261EEF0A9BCA6D5E251DABBFB67268AC5711273F959ABC61F49497E9350926CA SWAP1 PUSH1 0x60 ADD PUSH1 0x40 MLOAD DUP1 SWAP2 SUB SWAP1 LOG2 POP POP POP JUMP JUMPDEST PUSH1 0x0 DUP2 GT PUSH2 0xA5E JUMPI PUSH1 0x40 MLOAD PUSH3 0x461BCD PUSH1 0xE5 SHL DUP2 MSTORE PUSH1 0x4 ADD PUSH2 0x2F4 SWAP1 PUSH2 0x110A JUMP JUMPDEST CALLER PUSH1 0x0 DUP2 DUP2 MSTORE PUSH1 0xA PUSH1 0x20 MSTORE PUSH1 0x40 SWAP1 KECCAK256 DUP1 SLOAD PUSH1 0x1 DUP3 ADD SLOAD SWAP2 SWAP3 SWAP1 SWAP2 SWAP1 PUSH2 0xA84 SWAP1 DUP4 DUP4 PUSH2 0xCA7 JUMP JUMPDEST POP PUSH1 0x6 SLOAD PUSH2 0xA9D SWAP1 PUSH1 0x1 PUSH1 0x1 PUSH1 0xA0 SHL SUB AND CALLER ADDRESS DUP8 PUSH2 0xDBA JUMP JUMPDEST DUP4 DUP4 PUSH1 0x0 ADD PUSH1 0x0 DUP3 DUP3 SLOAD PUSH2 0xAB1 SWAP2 SWAP1 PUSH2 0x1167 JUMP JUMPDEST SWAP1 SWAP2 SSTORE POP POP PUSH1 0x8 SLOAD DUP4 SLOAD PUSH5 0xE8D4A51000 SWAP2 PUSH2 0xACB SWAP2 PUSH2 0x119F JUMP JUMPDEST PUSH2 0xAD5 SWAP2 SWAP1 PUSH2 0x117F JUMP JUMPDEST PUSH1 0x1 DUP5 ADD SSTORE PUSH1 0x40 MLOAD DUP5 DUP2 MSTORE CALLER SWAP1 PUSH32 0xE1FFFCC4923D04B559F4D29A8BFC6CDA04EB5B0D3C460751C2402C5C5CC9109C SWAP1 PUSH1 0x20 ADD PUSH2 0x4E3 JUMP JUMPDEST PUSH1 0x1 PUSH1 0x1 PUSH1 0xA0 SHL SUB DUP2 AND PUSH1 0x0 SWAP1 DUP2 MSTORE PUSH1 0xA PUSH1 0x20 SWAP1 DUP2 MSTORE PUSH1 0x40 DUP1 DUP4 KECCAK256 DUP2 MLOAD DUP1 DUP4 ADD SWAP1 SWAP3 MSTORE DUP1 SLOAD DUP3 MSTORE PUSH1 0x1 ADD SLOAD SWAP2 DUP2 ADD SWAP2 SWAP1 SWAP2 MSTORE DUP2 PUSH2 0xB47 PUSH2 0x6B1 JUMP JUMPDEST SWAP1 POP DUP2 PUSH1 0x20 ADD MLOAD PUSH5 0xE8D4A51000 DUP3 DUP5 PUSH1 0x0 ADD MLOAD PUSH2 0xB64 SWAP2 SWAP1 PUSH2 0x119F JUMP JUMPDEST PUSH2 0xB6E SWAP2 SWAP1 PUSH2 0x117F JUMP JUMPDEST PUSH2 0xB78 SWAP2 SWAP1 PUSH2 0x11BE JUMP JUMPDEST SWAP5 SWAP4 POP POP POP POP JUMP JUMPDEST PUSH1 0x0 PUSH2 0xB8A PUSH2 0xD3B JUMP JUMPDEST PUSH1 0x7 SLOAD SWAP1 SWAP2 POP DUP2 EQ DUP1 PUSH2 0xBBD JUMPI POP PUSH32 0x0 DUP2 GT ISZERO JUMPDEST ISZERO PUSH2 0xBC5 JUMPI POP JUMP JUMPDEST PUSH1 0x6 SLOAD PUSH1 0x40 MLOAD PUSH4 0x70A08231 PUSH1 0xE0 SHL DUP2 MSTORE PUSH1 0x0 SWAP2 PUSH1 0x1 PUSH1 0x1 PUSH1 0xA0 SHL SUB AND SWAP1 PUSH4 0x70A08231 SWAP1 PUSH2 0xBF6 SWAP1 ADDRESS SWAP1 PUSH1 0x4 ADD PUSH2 0x10C3 JUMP JUMPDEST PUSH1 0x20 PUSH1 0x40 MLOAD DUP1 DUP4 SUB DUP2 DUP7 DUP1 EXTCODESIZE ISZERO DUP1 ISZERO PUSH2 0xC0E JUMPI PUSH1 0x0 DUP1 REVERT JUMPDEST POP GAS STATICCALL ISZERO DUP1 ISZERO PUSH2 0xC22 JUMPI RETURNDATASIZE PUSH1 0x0 DUP1 RETURNDATACOPY RETURNDATASIZE PUSH1 0x0 REVERT JUMPDEST POP POP POP POP PUSH1 0x40 MLOAD RETURNDATASIZE PUSH1 0x1F NOT PUSH1 0x1F DUP3 ADD AND DUP3 ADD DUP1 PUSH1 0x40 MSTORE POP DUP2 ADD SWAP1 PUSH2 0xC46 SWAP2 SWAP1 PUSH2 0x106E JUMP JUMPDEST SWAP1 POP DUP1 ISZERO PUSH2 0xCA1 JUMPI PUSH1 0x1 SLOAD PUSH1 0x7 SLOAD PUSH1 0x0 SWAP2 SWAP1 PUSH2 0xC62 SWAP1 DUP6 PUSH2 0x11BE JUMP JUMPDEST PUSH2 0xC6C SWAP2 SWAP1 PUSH2 0x119F JUMP JUMPDEST SWAP1 POP DUP2 PUSH2 0xC7E PUSH5 0xE8D4A51000 DUP4 PUSH2 0x119F JUMP JUMPDEST PUSH2 0xC88 SWAP2 SWAP1 PUSH2 0x117F JUMP JUMPDEST PUSH1 0x8 DUP1 SLOAD PUSH1 0x0 SWAP1 PUSH2 0xC9A SWAP1 DUP5 SWAP1 PUSH2 0x1167 JUMP JUMPDEST SWAP1 SWAP2 SSTORE POP POP POP JUMPDEST POP PUSH1 0x7 SSTORE JUMP JUMPDEST PUSH1 0x0 PUSH2 0xCB1 PUSH2 0xB80 JUMP JUMPDEST DUP3 PUSH2 0xCBE JUMPI POP PUSH1 0x0 PUSH2 0xD34 JUMP JUMPDEST PUSH1 0x8 SLOAD PUSH5 0xE8D4A51000 SWAP1 PUSH2 0xCD2 SWAP1 DUP6 PUSH2 0x119F JUMP JUMPDEST PUSH2 0xCDC SWAP2 SWAP1 PUSH2 0x117F JUMP JUMPDEST SWAP1 POP PUSH1 0x0 PUSH2 0xCEA DUP4 DUP4 PUSH2 0x11BE JUMP JUMPDEST SWAP1 POP DUP1 ISZERO PUSH2 0xD32 JUMPI PUSH2 0xCFC DUP6 DUP3 PUSH2 0xDF8 JUMP JUMPDEST PUSH1 0x40 MLOAD DUP2 DUP2 MSTORE CALLER SWAP1 PUSH32 0xC9695243A805ADB74C91F28311176C65B417E842D5699893CEF56D18BFA48CBA SWAP1 PUSH1 0x20 ADD PUSH1 0x40 MLOAD DUP1 SWAP2 SUB SWAP1 LOG2 JUMPDEST POP JUMPDEST SWAP4 SWAP3 POP POP POP JUMP JUMPDEST PUSH1 0x0 PUSH1 0x2 SLOAD NUMBER LT PUSH2 0xD4D JUMPI POP PUSH1 0x2 SLOAD SWAP1 JUMP JUMPDEST POP NUMBER SWAP1 JUMP JUMPDEST PUSH1 0x40 MLOAD PUSH1 0x1 PUSH1 0x1 PUSH1 0xA0 SHL SUB DUP4 AND PUSH1 0x24 DUP3 ADD MSTORE PUSH1 0x44 DUP2 ADD DUP3 SWAP1 MSTORE PUSH2 0xDB5 SWAP1 DUP5 SWAP1 PUSH4 0xA9059CBB PUSH1 0xE0 SHL SWAP1 PUSH1 0x64 ADD JUMPDEST PUSH1 0x40 DUP1 MLOAD PUSH1 0x1F NOT DUP2 DUP5 SUB ADD DUP2 MSTORE SWAP2 SWAP1 MSTORE PUSH1 0x20 DUP2 ADD DUP1 MLOAD PUSH1 0x1 PUSH1 0x1 PUSH1 0xE0 SHL SUB AND PUSH1 0x1 PUSH1 0x1 PUSH1 0xE0 SHL SUB NOT SWAP1 SWAP4 AND SWAP3 SWAP1 SWAP3 OR SWAP1 SWAP2 MSTORE PUSH2 0xE29 JUMP JUMPDEST POP POP POP JUMP JUMPDEST PUSH1 0x40 MLOAD PUSH1 0x1 PUSH1 0x1 PUSH1 0xA0 SHL SUB DUP1 DUP6 AND PUSH1 0x24 DUP4 ADD MSTORE DUP4 AND PUSH1 0x44 DUP3 ADD MSTORE PUSH1 0x64 DUP2 ADD DUP3 SWAP1 MSTORE PUSH2 0xDF2 SWAP1 DUP6 SWAP1 PUSH4 0x23B872DD PUSH1 0xE0 SHL SWAP1 PUSH1 0x84 ADD PUSH2 0xD7E JUMP JUMPDEST POP POP POP POP JUMP JUMPDEST PUSH1 0x5 SLOAD PUSH2 0xE0F SWAP1 PUSH1 0x1 PUSH1 0x1 PUSH1 0xA0 SHL SUB AND DUP4 DUP4 PUSH2 0xD52 JUMP JUMPDEST DUP1 PUSH1 0x0 DUP1 DUP3 DUP3 SLOAD PUSH2 0xE20 SWAP2 SWAP1 PUSH2 0x1167 JUMP JUMPDEST SWAP1 SWAP2 SSTORE POP POP POP POP JUMP JUMPDEST PUSH1 0x0 PUSH2 0xE7E DUP3 PUSH1 0x40 MLOAD DUP1 PUSH1 0x40 ADD PUSH1 0x40 MSTORE DUP1 PUSH1 0x20 DUP2 MSTORE PUSH1 0x20 ADD PUSH32 0x5361666545524332303A206C6F772D6C6576656C2063616C6C206661696C6564 DUP2 MSTORE POP DUP6 PUSH1 0x1 PUSH1 0x1 PUSH1 0xA0 SHL SUB AND PUSH2 0xEFB SWAP1 SWAP3 SWAP2 SWAP1 PUSH4 0xFFFFFFFF AND JUMP JUMPDEST DUP1 MLOAD SWAP1 SWAP2 POP ISZERO PUSH2 0xDB5 JUMPI DUP1 DUP1 PUSH1 0x20 ADD SWAP1 MLOAD DUP2 ADD SWAP1 PUSH2 0xE9C SWAP2 SWAP1 PUSH2 0x1036 JUMP JUMPDEST PUSH2 0xDB5 JUMPI PUSH1 0x40 MLOAD PUSH3 0x461BCD PUSH1 0xE5 SHL DUP2 MSTORE PUSH1 0x20 PUSH1 0x4 DUP3 ADD MSTORE PUSH1 0x2A PUSH1 0x24 DUP3 ADD MSTORE PUSH32 0x5361666545524332303A204552433230206F7065726174696F6E20646964206E PUSH1 0x44 DUP3 ADD MSTORE PUSH10 0x1BDD081CDD58D8D95959 PUSH1 0xB2 SHL PUSH1 0x64 DUP3 ADD MSTORE PUSH1 0x84 ADD PUSH2 0x2F4 JUMP JUMPDEST PUSH1 0x60 PUSH2 0xB78 DUP5 DUP5 PUSH1 0x0 DUP6 DUP6 PUSH1 0x1 PUSH1 0x1 PUSH1 0xA0 SHL SUB DUP6 AND EXTCODESIZE PUSH2 0xF5D JUMPI PUSH1 0x40 MLOAD PUSH3 0x461BCD PUSH1 0xE5 SHL DUP2 MSTORE PUSH1 0x20 PUSH1 0x4 DUP3 ADD MSTORE PUSH1 0x1D PUSH1 0x24 DUP3 ADD MSTORE PUSH32 0x416464726573733A2063616C6C20746F206E6F6E2D636F6E7472616374000000 PUSH1 0x44 DUP3 ADD MSTORE PUSH1 0x64 ADD PUSH2 0x2F4 JUMP JUMPDEST PUSH1 0x0 DUP1 DUP7 PUSH1 0x1 PUSH1 0x1 PUSH1 0xA0 SHL SUB AND DUP6 DUP8 PUSH1 0x40 MLOAD PUSH2 0xF79 SWAP2 SWAP1 PUSH2 0x10A7 JUMP JUMPDEST PUSH1 0x0 PUSH1 0x40 MLOAD DUP1 DUP4 SUB DUP2 DUP6 DUP8 GAS CALL SWAP3 POP POP POP RETURNDATASIZE DUP1 PUSH1 0x0 DUP2 EQ PUSH2 0xFB6 JUMPI PUSH1 0x40 MLOAD SWAP2 POP PUSH1 0x1F NOT PUSH1 0x3F RETURNDATASIZE ADD AND DUP3 ADD PUSH1 0x40 MSTORE RETURNDATASIZE DUP3 MSTORE RETURNDATASIZE PUSH1 0x0 PUSH1 0x20 DUP5 ADD RETURNDATACOPY PUSH2 0xFBB JUMP JUMPDEST PUSH1 0x60 SWAP2 POP JUMPDEST POP SWAP2 POP SWAP2 POP PUSH2 0xFCB DUP3 DUP3 DUP7 PUSH2 0xFD6 JUMP JUMPDEST SWAP8 SWAP7 POP POP POP POP POP POP POP JUMP JUMPDEST PUSH1 0x60 DUP4 ISZERO PUSH2 0xFE5 JUMPI POP DUP2 PUSH2 0xD34 JUMP JUMPDEST DUP3 MLOAD ISZERO PUSH2 0xFF5 JUMPI DUP3 MLOAD DUP1 DUP5 PUSH1 0x20 ADD REVERT JUMPDEST DUP2 PUSH1 0x40 MLOAD PUSH3 0x461BCD PUSH1 0xE5 SHL DUP2 MSTORE PUSH1 0x4 ADD PUSH2 0x2F4 SWAP2 SWAP1 PUSH2 0x10D7 JUMP JUMPDEST PUSH1 0x0 PUSH1 0x20 DUP3 DUP5 SUB SLT ISZERO PUSH2 0x1020 JUMPI DUP1 DUP2 REVERT JUMPDEST DUP2 CALLDATALOAD PUSH1 0x1 PUSH1 0x1 PUSH1 0xA0 SHL SUB DUP2 AND DUP2 EQ PUSH2 0xD34 JUMPI DUP2 DUP3 REVERT JUMPDEST PUSH1 0x0 PUSH1 0x20 DUP3 DUP5 SUB SLT ISZERO PUSH2 0x1047 JUMPI DUP1 DUP2 REVERT JUMPDEST DUP2 MLOAD DUP1 ISZERO ISZERO DUP2 EQ PUSH2 0xD34 JUMPI DUP2 DUP3 REVERT JUMPDEST PUSH1 0x0 PUSH1 0x20 DUP3 DUP5 SUB SLT ISZERO PUSH2 0x1067 JUMPI DUP1 DUP2 REVERT JUMPDEST POP CALLDATALOAD SWAP2 SWAP1 POP JUMP JUMPDEST PUSH1 0x0 PUSH1 0x20 DUP3 DUP5 SUB SLT ISZERO PUSH2 0x107F JUMPI DUP1 DUP2 REVERT JUMPDEST POP MLOAD SWAP2 SWAP1 POP JUMP JUMPDEST PUSH1 0x0 DUP1 PUSH1 0x40 DUP4 DUP6 SUB SLT ISZERO PUSH2 0x1098 JUMPI DUP1 DUP2 REVERT JUMPDEST POP POP DUP1 CALLDATALOAD SWAP3 PUSH1 0x20 SWAP1 SWAP2 ADD CALLDATALOAD SWAP2 POP JUMP JUMPDEST PUSH1 0x0 DUP3 MLOAD PUSH2 0x10B9 DUP2 DUP5 PUSH1 0x20 DUP8 ADD PUSH2 0x11D5 JUMP JUMPDEST SWAP2 SWAP1 SWAP2 ADD SWAP3 SWAP2 POP POP JUMP JUMPDEST PUSH1 0x1 PUSH1 0x1 PUSH1 0xA0 SHL SUB SWAP2 SWAP1 SWAP2 AND DUP2 MSTORE PUSH1 0x20 ADD SWAP1 JUMP JUMPDEST PUSH1 0x20 DUP2 MSTORE PUSH1 0x0 DUP3 MLOAD DUP1 PUSH1 0x20 DUP5 ADD MSTORE PUSH2 0x10F6 DUP2 PUSH1 0x40 DUP6 ADD PUSH1 0x20 DUP8 ADD PUSH2 0x11D5 JUMP JUMPDEST PUSH1 0x1F ADD PUSH1 0x1F NOT AND SWAP2 SWAP1 SWAP2 ADD PUSH1 0x40 ADD SWAP3 SWAP2 POP POP JUMP JUMPDEST PUSH1 0x20 DUP1 DUP3 MSTORE PUSH1 0x1D SWAP1 DUP3 ADD MSTORE PUSH32 0x616D6F756E74206D7573742062652067726561746572207468616E2030000000 PUSH1 0x40 DUP3 ADD MSTORE PUSH1 0x60 ADD SWAP1 JUMP JUMPDEST PUSH1 0x20 DUP1 DUP3 MSTORE PUSH1 0xC SWAP1 DUP3 ADD MSTORE PUSH12 0x2737BA102932BBB0B93232B9 PUSH1 0xA1 SHL PUSH1 0x40 DUP3 ADD MSTORE PUSH1 0x60 ADD SWAP1 JUMP JUMPDEST PUSH1 0x0 DUP3 NOT DUP3 GT ISZERO PUSH2 0x117A JUMPI PUSH2 0x117A PUSH2 0x1201 JUMP JUMPDEST POP ADD SWAP1 JUMP JUMPDEST PUSH1 0x0 DUP3 PUSH2 0x119A JUMPI PUSH4 0x4E487B71 PUSH1 0xE0 SHL DUP2 MSTORE PUSH1 0x12 PUSH1 0x4 MSTORE PUSH1 0x24 DUP2 REVERT JUMPDEST POP DIV SWAP1 JUMP JUMPDEST PUSH1 0x0 DUP2 PUSH1 0x0 NOT DIV DUP4 GT DUP3 ISZERO ISZERO AND ISZERO PUSH2 0x11B9 JUMPI PUSH2 0x11B9 PUSH2 0x1201 JUMP JUMPDEST POP MUL SWAP1 JUMP JUMPDEST PUSH1 0x0 DUP3 DUP3 LT ISZERO PUSH2 0x11D0 JUMPI PUSH2 0x11D0 PUSH2 0x1201 JUMP JUMPDEST POP SUB SWAP1 JUMP JUMPDEST PUSH1 0x0 JUMPDEST DUP4 DUP2 LT ISZERO PUSH2 0x11F0 JUMPI DUP2 DUP2 ADD MLOAD DUP4 DUP3 ADD MSTORE PUSH1 0x20 ADD PUSH2 0x11D8 JUMP JUMPDEST DUP4 DUP2 GT ISZERO PUSH2 0xDF2 JUMPI POP POP PUSH1 0x0 SWAP2 ADD MSTORE JUMP JUMPDEST PUSH4 0x4E487B71 PUSH1 0xE0 SHL PUSH1 0x0 MSTORE PUSH1 0x11 PUSH1 0x4 MSTORE PUSH1 0x24 PUSH1 0x0 REVERT INVALID LOG2 PUSH5 0x6970667358 0x22 SLT KECCAK256 0xC0 DUP11 KECCAK256 DUP6 ISZERO 0xBB PUSH22 0x10660F2B1A66EA92979240CD265B14D6AF5B6D1714AB SMOD 0x5D PUSH27 0x64736F6C6343000804003300000000000000000000000000000000 "
        },
        "gasEstimates": {
          "creation": {
            "codeDepositCost": "937000",
            "executionCost": "infinite",
            "totalCost": "infinite"
          },
          "external": {
            "deposit(uint256)": "infinite",
            "endBlock()": "962",
            "fund(uint256,uint256)": "infinite",
            "getLatestRewardPerShare()": "infinite",
            "getLpSupplyAndLastBlock()": "infinite",
            "getTotalPending()": "infinite",
            "getUserDepositedAmount(address)": "1609",
            "getUserPendingReward(address)": "infinite",
            "harvest(address)": "infinite",
            "lastFunded()": "1336",
            "maxFundAmount()": "1226",
            "poolInfo()": "2026",
            "rewardPerBlock()": "1248",
            "rewarder()": "1435",
            "setMaxFundAmount(uint256)": "22375",
            "startBlock()": "infinite",
            "sweep()": "infinite",
            "totalPaidOut()": "1006",
            "updatePool()": "infinite",
            "userInfo(address)": "2067",
            "withdraw(uint256)": "infinite"
          },
          "internal": {
            "_getLastBlock()": "1641",
            "_harvest(address,uint256,uint256)": "infinite",
            "_mockRewardsTransfer(address,uint256)": "infinite"
          }
        },
        "methodIdentifiers": {
          "deposit(uint256)": "b6b55f25",
          "endBlock()": "083c6323",
          "fund(uint256,uint256)": "a65e2cfd",
          "getLatestRewardPerShare()": "4099d475",
          "getLpSupplyAndLastBlock()": "2b1bf448",
          "getTotalPending()": "3bd05400",
          "getUserDepositedAmount(address)": "f84e8d17",
          "getUserPendingReward(address)": "c6710629",
          "harvest(address)": "0e5c011e",
          "lastFunded()": "dc1a704e",
          "maxFundAmount()": "80cac648",
          "poolInfo()": "5a2f3d09",
          "rewardPerBlock()": "8ae39cac",
          "rewarder()": "dcc3e06e",
          "setMaxFundAmount(uint256)": "6ec3e028",
          "startBlock()": "48cd4cb1",
          "sweep()": "35faa416",
          "totalPaidOut()": "1357e1dc",
          "updatePool()": "e3161ddd",
          "userInfo(address)": "1959a002",
          "withdraw(uint256)": "2e1a7d4d"
        }
      },
      "storageLayout": {
        "storage": [
          {
            "astId": 622,
            "contract": "contracts/MockStakingRewards.sol:mockStakingRewards",
            "label": "totalPaidOut",
            "offset": 0,
            "slot": "0",
            "type": "t_uint256"
          },
          {
            "astId": 624,
            "contract": "contracts/MockStakingRewards.sol:mockStakingRewards",
            "label": "rewardPerBlock",
            "offset": 0,
            "slot": "1",
            "type": "t_uint256"
          },
          {
            "astId": 626,
            "contract": "contracts/MockStakingRewards.sol:mockStakingRewards",
            "label": "endBlock",
            "offset": 0,
            "slot": "2",
            "type": "t_uint256"
          },
          {
            "astId": 628,
            "contract": "contracts/MockStakingRewards.sol:mockStakingRewards",
            "label": "lastFunded",
            "offset": 0,
            "slot": "3",
            "type": "t_uint256"
          },
          {
            "astId": 630,
            "contract": "contracts/MockStakingRewards.sol:mockStakingRewards",
            "label": "maxFundAmount",
            "offset": 0,
            "slot": "4",
            "type": "t_uint256"
          },
          {
            "astId": 633,
            "contract": "contracts/MockStakingRewards.sol:mockStakingRewards",
            "label": "mockTokenContract",
            "offset": 0,
            "slot": "5",
            "type": "t_contract(IERC20)368"
          },
          {
            "astId": 636,
            "contract": "contracts/MockStakingRewards.sol:mockStakingRewards",
            "label": "mockLpTokenContract",
            "offset": 0,
            "slot": "6",
            "type": "t_contract(IERC20)368"
          },
          {
            "astId": 639,
            "contract": "contracts/MockStakingRewards.sol:mockStakingRewards",
            "label": "poolInfo",
            "offset": 0,
            "slot": "7",
            "type": "t_struct(PoolInfo)598_storage"
          },
          {
            "astId": 641,
            "contract": "contracts/MockStakingRewards.sol:mockStakingRewards",
            "label": "rewarder",
            "offset": 0,
            "slot": "9",
            "type": "t_address"
          },
          {
            "astId": 646,
            "contract": "contracts/MockStakingRewards.sol:mockStakingRewards",
            "label": "userInfo",
            "offset": 0,
            "slot": "10",
            "type": "t_mapping(t_address,t_struct(UserInfo)593_storage)"
          }
        ],
        "types": {
          "t_address": {
            "encoding": "inplace",
            "label": "address",
            "numberOfBytes": "20"
          },
          "t_contract(IERC20)368": {
            "encoding": "inplace",
            "label": "contract IERC20",
            "numberOfBytes": "20"
          },
          "t_mapping(t_address,t_struct(UserInfo)593_storage)": {
            "encoding": "mapping",
            "key": "t_address",
            "label": "mapping(address => struct mockStakingRewards.UserInfo)",
            "numberOfBytes": "32",
            "value": "t_struct(UserInfo)593_storage"
          },
          "t_struct(PoolInfo)598_storage": {
            "encoding": "inplace",
            "label": "struct mockStakingRewards.PoolInfo",
            "members": [
              {
                "astId": 595,
                "contract": "contracts/MockStakingRewards.sol:mockStakingRewards",
                "label": "lastRewardBlock",
                "offset": 0,
                "slot": "0",
                "type": "t_uint256"
              },
              {
                "astId": 597,
                "contract": "contracts/MockStakingRewards.sol:mockStakingRewards",
                "label": "accmockPerShare",
                "offset": 0,
                "slot": "1",
                "type": "t_uint256"
              }
            ],
            "numberOfBytes": "64"
          },
          "t_struct(UserInfo)593_storage": {
            "encoding": "inplace",
            "label": "struct mockStakingRewards.UserInfo",
            "members": [
              {
                "astId": 590,
                "contract": "contracts/MockStakingRewards.sol:mockStakingRewards",
                "label": "amount",
                "offset": 0,
                "slot": "0",
                "type": "t_uint256"
              },
              {
                "astId": 592,
                "contract": "contracts/MockStakingRewards.sol:mockStakingRewards",
                "label": "rewardDebt",
                "offset": 0,
                "slot": "1",
                "type": "t_uint256"
              }
            ],
            "numberOfBytes": "64"
          },
          "t_uint256": {
            "encoding": "inplace",
            "label": "uint256",
            "numberOfBytes": "32"
          }
        }
      },
      "userdoc": {
        "kind": "user",
        "methods": {},
        "version": 1
      }
    }
  }
}