{
  "contracts/MGGovToken.sol": {
    "MockGovToken": {
      "abi": [
        {
          "inputs": [],
          "stateMutability": "nonpayable",
          "type": "constructor"
        },
        {
          "anonymous": false,
          "inputs": [
            {
              "indexed": true,
              "internalType": "address",
              "name": "owner",
              "type": "address"
            },
            {
              "indexed": true,
              "internalType": "address",
              "name": "spender",
              "type": "address"
            },
            {
              "indexed": false,
              "internalType": "uint256",
              "name": "value",
              "type": "uint256"
            }
          ],
          "name": "Approval",
          "type": "event"
        },
        {
          "anonymous": false,
          "inputs": [
            {
              "indexed": true,
              "internalType": "address",
              "name": "delegator",
              "type": "address"
            },
            {
              "indexed": true,
              "internalType": "address",
              "name": "fromDelegate",
              "type": "address"
            },
            {
              "indexed": true,
              "internalType": "address",
              "name": "toDelegate",
              "type": "address"
            }
          ],
          "name": "DelegateChanged",
          "type": "event"
        },
        {
          "anonymous": false,
          "inputs": [
            {
              "indexed": true,
              "internalType": "address",
              "name": "delegate",
              "type": "address"
            },
            {
              "indexed": false,
              "internalType": "uint256",
              "name": "previousBalance",
              "type": "uint256"
            },
            {
              "indexed": false,
              "internalType": "uint256",
              "name": "newBalance",
              "type": "uint256"
            }
          ],
          "name": "DelegateVotesChanged",
          "type": "event"
        },
        {
          "anonymous": false,
          "inputs": [
            {
              "indexed": true,
              "internalType": "address",
              "name": "previousOwner",
              "type": "address"
            },
            {
              "indexed": true,
              "internalType": "address",
              "name": "newOwner",
              "type": "address"
            }
          ],
          "name": "OwnershipTransferred",
          "type": "event"
        },
        {
          "anonymous": false,
          "inputs": [
            {
              "indexed": true,
              "internalType": "address",
              "name": "from",
              "type": "address"
            },
            {
              "indexed": true,
              "internalType": "address",
              "name": "to",
              "type": "address"
            },
            {
              "indexed": false,
              "internalType": "uint256",
              "name": "value",
              "type": "uint256"
            }
          ],
          "name": "Transfer",
          "type": "event"
        },
        {
          "inputs": [],
          "name": "DELEGATION_TYPEHASH",
          "outputs": [
            {
              "internalType": "bytes32",
              "name": "",
              "type": "bytes32"
            }
          ],
          "stateMutability": "view",
          "type": "function"
        },
        {
          "inputs": [],
          "name": "DOMAIN_TYPEHASH",
          "outputs": [
            {
              "internalType": "bytes32",
              "name": "",
              "type": "bytes32"
            }
          ],
          "stateMutability": "view",
          "type": "function"
        },
        {
          "inputs": [
            {
              "internalType": "address",
              "name": "owner",
              "type": "address"
            },
            {
              "internalType": "address",
              "name": "spender",
              "type": "address"
            }
          ],
          "name": "allowance",
          "outputs": [
            {
              "internalType": "uint256",
              "name": "",
              "type": "uint256"
            }
          ],
          "stateMutability": "view",
          "type": "function"
        },
        {
          "inputs": [
            {
              "internalType": "address",
              "name": "spender",
              "type": "address"
            },
            {
              "internalType": "uint256",
              "name": "amount",
              "type": "uint256"
            }
          ],
          "name": "approve",
          "outputs": [
            {
              "internalType": "bool",
              "name": "",
              "type": "bool"
            }
          ],
          "stateMutability": "nonpayable",
          "type": "function"
        },
        {
          "inputs": [
            {
              "internalType": "address",
              "name": "account",
              "type": "address"
            }
          ],
          "name": "balanceOf",
          "outputs": [
            {
              "internalType": "uint256",
              "name": "",
              "type": "uint256"
            }
          ],
          "stateMutability": "view",
          "type": "function"
        },
        {
          "inputs": [
            {
              "internalType": "address",
              "name": "_from",
              "type": "address"
            },
            {
              "internalType": "uint256",
              "name": "_amount",
              "type": "uint256"
            }
          ],
          "name": "burn",
          "outputs": [],
          "stateMutability": "nonpayable",
          "type": "function"
        },
        {
          "inputs": [
            {
              "internalType": "address",
              "name": "",
              "type": "address"
            },
            {
              "internalType": "uint32",
              "name": "",
              "type": "uint32"
            }
          ],
          "name": "checkpoints",
          "outputs": [
            {
              "internalType": "uint32",
              "name": "fromBlock",
              "type": "uint32"
            },
            {
              "internalType": "uint256",
              "name": "votes",
              "type": "uint256"
            }
          ],
          "stateMutability": "view",
          "type": "function"
        },
        {
          "inputs": [],
          "name": "decimals",
          "outputs": [
            {
              "internalType": "uint8",
              "name": "",
              "type": "uint8"
            }
          ],
          "stateMutability": "view",
          "type": "function"
        },
        {
          "inputs": [
            {
              "internalType": "address",
              "name": "spender",
              "type": "address"
            },
            {
              "internalType": "uint256",
              "name": "subtractedValue",
              "type": "uint256"
            }
          ],
          "name": "decreaseAllowance",
          "outputs": [
            {
              "internalType": "bool",
              "name": "",
              "type": "bool"
            }
          ],
          "stateMutability": "nonpayable",
          "type": "function"
        },
        {
          "inputs": [
            {
              "internalType": "address",
              "name": "delegatee",
              "type": "address"
            }
          ],
          "name": "delegate",
          "outputs": [],
          "stateMutability": "nonpayable",
          "type": "function"
        },
        {
          "inputs": [
            {
              "internalType": "address",
              "name": "delegatee",
              "type": "address"
            },
            {
              "internalType": "uint256",
              "name": "nonce",
              "type": "uint256"
            },
            {
              "internalType": "uint256",
              "name": "expiry",
              "type": "uint256"
            },
            {
              "internalType": "uint8",
              "name": "v",
              "type": "uint8"
            },
            {
              "internalType": "bytes32",
              "name": "r",
              "type": "bytes32"
            },
            {
              "internalType": "bytes32",
              "name": "s",
              "type": "bytes32"
            }
          ],
          "name": "delegateBySig",
          "outputs": [],
          "stateMutability": "nonpayable",
          "type": "function"
        },
        {
          "inputs": [
            {
              "internalType": "address",
              "name": "delegator",
              "type": "address"
            }
          ],
          "name": "delegates",
          "outputs": [
            {
              "internalType": "address",
              "name": "",
              "type": "address"
            }
          ],
          "stateMutability": "view",
          "type": "function"
        },
        {
          "inputs": [
            {
              "internalType": "address",
              "name": "account",
              "type": "address"
            }
          ],
          "name": "getCurrentVotes",
          "outputs": [
            {
              "internalType": "uint256",
              "name": "",
              "type": "uint256"
            }
          ],
          "stateMutability": "view",
          "type": "function"
        },
        {
          "inputs": [],
          "name": "getOwner",
          "outputs": [
            {
              "internalType": "address",
              "name": "",
              "type": "address"
            }
          ],
          "stateMutability": "view",
          "type": "function"
        },
        {
          "inputs": [
            {
              "internalType": "address",
              "name": "account",
              "type": "address"
            },
            {
              "internalType": "uint256",
              "name": "blockNumber",
              "type": "uint256"
            }
          ],
          "name": "getPriorVotes",
          "outputs": [
            {
              "internalType": "uint256",
              "name": "",
              "type": "uint256"
            }
          ],
          "stateMutability": "view",
          "type": "function"
        },
        {
          "inputs": [
            {
              "internalType": "address",
              "name": "spender",
              "type": "address"
            },
            {
              "internalType": "uint256",
              "name": "addedValue",
              "type": "uint256"
            }
          ],
          "name": "increaseAllowance",
          "outputs": [
            {
              "internalType": "bool",
              "name": "",
              "type": "bool"
            }
          ],
          "stateMutability": "nonpayable",
          "type": "function"
        },
        {
          "inputs": [
            {
              "internalType": "address",
              "name": "_to",
              "type": "address"
            },
            {
              "internalType": "uint256",
              "name": "_amount",
              "type": "uint256"
            }
          ],
          "name": "mint",
          "outputs": [],
          "stateMutability": "nonpayable",
          "type": "function"
        },
        {
          "inputs": [
            {
              "internalType": "uint256",
              "name": "amount",
              "type": "uint256"
            }
          ],
          "name": "mint",
          "outputs": [
            {
              "internalType": "bool",
              "name": "",
              "type": "bool"
            }
          ],
          "stateMutability": "nonpayable",
          "type": "function"
        },
        {
          "inputs": [],
          "name": "name",
          "outputs": [
            {
              "internalType": "string",
              "name": "",
              "type": "string"
            }
          ],
          "stateMutability": "view",
          "type": "function"
        },
        {
          "inputs": [
            {
              "internalType": "address",
              "name": "",
              "type": "address"
            }
          ],
          "name": "nonces",
          "outputs": [
            {
              "internalType": "uint256",
              "name": "",
              "type": "uint256"
            }
          ],
          "stateMutability": "view",
          "type": "function"
        },
        {
          "inputs": [
            {
              "internalType": "address",
              "name": "",
              "type": "address"
            }
          ],
          "name": "numCheckpoints",
          "outputs": [
            {
              "internalType": "uint32",
              "name": "",
              "type": "uint32"
            }
          ],
          "stateMutability": "view",
          "type": "function"
        },
        {
          "inputs": [],
          "name": "owner",
          "outputs": [
            {
              "internalType": "address",
              "name": "",
              "type": "address"
            }
          ],
          "stateMutability": "view",
          "type": "function"
        },
        {
          "inputs": [],
          "name": "renounceOwnership",
          "outputs": [],
          "stateMutability": "nonpayable",
          "type": "function"
        },
        {
          "inputs": [],
          "name": "symbol",
          "outputs": [
            {
              "internalType": "string",
              "name": "",
              "type": "string"
            }
          ],
          "stateMutability": "view",
          "type": "function"
        },
        {
          "inputs": [],
          "name": "totalSupply",
          "outputs": [
            {
              "internalType": "uint256",
              "name": "",
              "type": "uint256"
            }
          ],
          "stateMutability": "view",
          "type": "function"
        },
        {
          "inputs": [
            {
              "internalType": "address",
              "name": "recipient",
              "type": "address"
            },
            {
              "internalType": "uint256",
              "name": "amount",
              "type": "uint256"
            }
          ],
          "name": "transfer",
          "outputs": [
            {
              "internalType": "bool",
              "name": "",
              "type": "bool"
            }
          ],
          "stateMutability": "nonpayable",
          "type": "function"
        },
        {
          "inputs": [
            {
              "internalType": "address",
              "name": "sender",
              "type": "address"
            },
            {
              "internalType": "address",
              "name": "recipient",
              "type": "address"
            },
            {
              "internalType": "uint256",
              "name": "amount",
              "type": "uint256"
            }
          ],
          "name": "transferFrom",
          "outputs": [
            {
              "internalType": "bool",
              "name": "",
              "type": "bool"
            }
          ],
          "stateMutability": "nonpayable",
          "type": "function"
        },
        {
          "inputs": [
            {
              "internalType": "address",
              "name": "newOwner",
              "type": "address"
            }
          ],
          "name": "transferOwnership",
          "outputs": [],
          "stateMutability": "nonpayable",
          "type": "function"
        }
      ],
      "devdoc": {
        "kind": "dev",
        "methods": {
          "allowance(address,address)": {
            "details": "See {BEP20-allowance}."
          },
          "approve(address,uint256)": {
            "details": "See {BEP20-approve}. Requirements: - `spender` cannot be the zero address."
          },
          "balanceOf(address)": {
            "details": "See {BEP20-balanceOf}."
          },
          "decimals()": {
            "details": "Returns the token decimals."
          },
          "decreaseAllowance(address,uint256)": {
            "details": "Atomically decreases the allowance granted to `spender` by the caller. This is an alternative to {approve} that can be used as a mitigation for problems described in {BEP20-approve}. Emits an {Approval} event indicating the updated allowance. Requirements: - `spender` cannot be the zero address. - `spender` must have allowance for the caller of at least `subtractedValue`."
          },
          "delegate(address)": {
            "params": {
              "delegatee": "The address to delegate votes to"
            }
          },
          "delegateBySig(address,uint256,uint256,uint8,bytes32,bytes32)": {
            "params": {
              "delegatee": "The address to delegate votes to",
              "expiry": "The time at which to expire the signature",
              "nonce": "The contract state required to match the signature",
              "r": "Half of the ECDSA signature pair",
              "s": "Half of the ECDSA signature pair",
              "v": "The recovery byte of the signature"
            }
          },
          "delegates(address)": {
            "params": {
              "delegator": "The address to get delegatee for"
            }
          },
          "getCurrentVotes(address)": {
            "params": {
              "account": "The address to get votes balance"
            },
            "returns": {
              "_0": "The number of current votes for `account`"
            }
          },
          "getOwner()": {
            "details": "Returns the bep token owner."
          },
          "getPriorVotes(address,uint256)": {
            "details": "Block number must be a finalized block or else this function will revert to prevent misinformation.",
            "params": {
              "account": "The address of the account to check",
              "blockNumber": "The block number to get the vote balance at"
            },
            "returns": {
              "_0": "The number of votes the account had as of the given block"
            }
          },
          "increaseAllowance(address,uint256)": {
            "details": "Atomically increases the allowance granted to `spender` by the caller. This is an alternative to {approve} that can be used as a mitigation for problems described in {BEP20-approve}. Emits an {Approval} event indicating the updated allowance. Requirements: - `spender` cannot be the zero address."
          },
          "mint(uint256)": {
            "details": "Creates `amount` tokens and assigns them to `msg.sender`, increasing the total supply. Requirements - `msg.sender` must be the token owner"
          },
          "name()": {
            "details": "Returns the token name."
          },
          "owner()": {
            "details": "Returns the address of the current owner."
          },
          "renounceOwnership()": {
            "details": "Leaves the contract without owner. It will not be possible to call `onlyOwner` functions anymore. Can only be called by the current owner. NOTE: Renouncing ownership will leave the contract without an owner, thereby removing any functionality that is only available to the owner."
          },
          "symbol()": {
            "details": "Returns the token symbol."
          },
          "totalSupply()": {
            "details": "See {BEP20-totalSupply}."
          },
          "transfer(address,uint256)": {
            "details": "See {BEP20-transfer}. Requirements: - `recipient` cannot be the zero address. - the caller must have a balance of at least `amount`."
          },
          "transferFrom(address,address,uint256)": {
            "details": "See {BEP20-transferFrom}. Emits an {Approval} event indicating the updated allowance. This is not required by the EIP. See the note at the beginning of {BEP20}; Requirements: - `sender` and `recipient` cannot be the zero address. - `sender` must have a balance of at least `amount`. - the caller must have allowance for `sender`'s tokens of at least `amount`."
          },
          "transferOwnership(address)": {
            "details": "Transfers ownership of the contract to a new account (`newOwner`). Can only be called by the current owner."
          }
        },
        "version": 1
      },
      "evm": {
        "bytecode": {
          "linkReferences": {},
          "object": "60806040523480156200001157600080fd5b506040518060400160405280600c81526020016b26b7b1b5a3b7bb2a37b5b2b760a11b8152506040518060400160405280600781526020016626a3aa37b5b2b760c91b815250600062000069620000f460201b60201c565b600080546001600160a01b0319166001600160a01b0383169081178255604051929350917f8be0079c531659141344cd1fd0a4f28419497f9722a3daafe3b4186f6b6457e0908290a3508151620000c8906004906020850190620000f8565b508051620000de906005906020840190620000f8565b50506006805460ff191660121790555062000194565b3390565b828054600181600116156101000203166002900490600052602060002090601f016020900481019282601f106200013b57805160ff19168380011785556200016b565b828001600101855582156200016b579182015b828111156200016b5782518255916020019190600101906200014e565b50620001799291506200017d565b5090565b5b808211156200017957600081556001016200017e565b611cff80620001a46000396000f3fe608060405234801561001057600080fd5b50600436106101545760003560e01c806306fdde0314610159578063095ea7b3146101d657806318160ddd1461021657806320606b701461023057806323b872dd14610238578063313ce5671461026e578063395093511461028c57806340c10f19146102b8578063587cde1e146102e65780635c19a95c146103285780636fcfff451461034e57806370a082311461038d578063715018a6146103b3578063782d6fe1146103bb5780637ecebe00146103e7578063893d20e81461040d5780638da5cb5b1461041557806395d89b411461041d5780639dc29fac14610425578063a0712d6814610451578063a457c2d71461046e578063a9059cbb1461049a578063b4b5ea57146104c6578063c3cda520146104ec578063dd62ed3e14610533578063e7a324dc14610561578063f1127ed814610569578063f2fde38b146105bb575b600080fd5b6101616105e1565b6040805160208082528351818301528351919283929083019185019080838360005b8381101561019b578181015183820152602001610183565b50505050905090810190601f1680156101c85780820380516001836020036101000a031916815260200191505b509250505060405180910390f35b610202600480360360408110156101ec57600080fd5b506001600160a01b038135169060200135610677565b604080519115158252519081900360200190f35b61021e610695565b60408051918252519081900360200190f35b61021e61069b565b6102026004803603606081101561024e57600080fd5b506001600160a01b038135811691602081013590911690604001356106ad565b610276610734565b6040805160ff9092168252519081900360200190f35b610202600480360360408110156102a257600080fd5b506001600160a01b03813516906020013561073d565b6102e4600480360360408110156102ce57600080fd5b506001600160a01b03813516906020013561078b565b005b61030c600480360360208110156102fc57600080fd5b50356001600160a01b0316610816565b604080516001600160a01b039092168252519081900360200190f35b6102e46004803603602081101561033e57600080fd5b50356001600160a01b0316610834565b6103746004803603602081101561036457600080fd5b50356001600160a01b0316610841565b6040805163ffffffff9092168252519081900360200190f35b61021e600480360360208110156103a357600080fd5b50356001600160a01b0316610859565b6102e4610874565b61021e600480360360408110156103d157600080fd5b506001600160a01b038135169060200135610904565b61021e600480360360208110156103fd57600080fd5b50356001600160a01b0316610b0c565b61030c610b1e565b61030c610b2d565b610161610b3c565b6102e46004803603604081101561043b57600080fd5b506001600160a01b038135169060200135610b9d565b6102026004803603602081101561046757600080fd5b5035610c25565b6102026004803603604081101561048457600080fd5b506001600160a01b038135169060200135610c98565b610202600480360360408110156104b057600080fd5b506001600160a01b038135169060200135610d00565b61021e600480360360208110156104dc57600080fd5b50356001600160a01b0316610d14565b6102e4600480360360c081101561050257600080fd5b506001600160a01b038135169060208101359060408101359060ff6060820135169060808101359060a00135610d78565b61021e6004803603604081101561054957600080fd5b506001600160a01b0381358116916020013516610fc7565b61021e610ff2565b61059b6004803603604081101561057f57600080fd5b5080356001600160a01b0316906020013563ffffffff16611004565b6040805163ffffffff909316835260208301919091528051918290030190f35b6102e4600480360360208110156105d157600080fd5b50356001600160a01b0316611031565b60048054604080516020601f600260001961010060018816150201909516949094049384018190048102820181019092528281526060939092909183018282801561066d5780601f106106425761010080835404028352916020019161066d565b820191906000526020600020905b81548152906001019060200180831161065057829003601f168201915b5050505050905090565b600061068b610684611092565b8484611096565b5060015b92915050565b60035490565b600080516020611a3183398151915281565b60006106ba848484611182565b61072a846106c6611092565b61072585604051806060016040528060288152602001611ae6602891396001600160a01b038a16600090815260026020526040812090610704611092565b6001600160a01b0316815260208101919091526040016000205491906112c2565b611096565b5060019392505050565b60065460ff1690565b600061068b61074a611092565b84610725856002600061075b611092565b6001600160a01b03908116825260208083019390935260409182016000908120918c168152925290205490611359565b610793611092565b6000546001600160a01b039081169116146107e3576040805162461bcd60e51b81526020600482018190526024820152600080516020611b0e833981519152604482015290519081900360640190fd5b6107ed82826113b1565b6001600160a01b03808316600090815260076020526040812054610812921683611485565b5050565b6001600160a01b039081166000908152600760205260409020541690565b61083e33826115c7565b50565b60096020526000908152604090205463ffffffff1681565b6001600160a01b031660009081526001602052604090205490565b61087c611092565b6000546001600160a01b039081169116146108cc576040805162461bcd60e51b81526020600482018190526024820152600080516020611b0e833981519152604482015290519081900360640190fd5b600080546040516001600160a01b0390911690600080516020611b2e833981519152908390a3600080546001600160a01b0319169055565b60004382106109445760405162461bcd60e51b815260040180806020018281038252602a815260200180611abc602a913960400191505060405180910390fd5b6001600160a01b03831660009081526009602052604090205463ffffffff168061097257600091505061068f565b6001600160a01b038416600090815260086020908152604080832063ffffffff6000198601811685529252909120541683106109e1576001600160a01b03841660009081526008602090815260408083206000199490940163ffffffff1683529290522060010154905061068f565b6001600160a01b038416600090815260086020908152604080832083805290915290205463ffffffff16831015610a1c57600091505061068f565b600060001982015b8163ffffffff168163ffffffff161115610ad557600282820363ffffffff16048103610a4e6119d0565b506001600160a01b038716600090815260086020908152604080832063ffffffff808616855290835292819020815180830190925280549093168082526001909301549181019190915290871415610ab05760200151945061068f9350505050565b805163ffffffff16871115610ac757819350610ace565b6001820392505b5050610a24565b506001600160a01b038516600090815260086020908152604080832063ffffffff9094168352929052206001015491505092915050565b600a6020526000908152604090205481565b6000610b28610b2d565b905090565b6000546001600160a01b031690565b60058054604080516020601f600260001961010060018816150201909516949094049384018190048102820181019092528281526060939092909183018282801561066d5780601f106106425761010080835404028352916020019161066d565b610ba5611092565b6000546001600160a01b03908116911614610bf5576040805162461bcd60e51b81526020600482018190526024820152600080516020611b0e833981519152604482015290519081900360640190fd5b610bff828261165c565b6001600160a01b0380831660009081526007602052604081205461081292169083611485565b6000610c2f611092565b6000546001600160a01b03908116911614610c7f576040805162461bcd60e51b81526020600482018190526024820152600080516020611b0e833981519152604482015290519081900360640190fd5b610c90610c8a611092565b836113b1565b506001919050565b600061068b610ca5611092565b8461072585604051806060016040528060258152602001611bb76025913960026000610ccf611092565b6001600160a01b03908116825260208083019390935260409182016000908120918d168152925290205491906112c2565b600061068b610d0d611092565b8484611182565b6001600160a01b03811660009081526009602052604081205463ffffffff1680610d3f576000610d71565b6001600160a01b038316600090815260086020908152604080832063ffffffff60001986011684529091529020600101545b9392505050565b6000600080516020611a31833981519152610d916105e1565b80519060200120610da061173a565b60408051602080820195909552808201939093526060830191909152306080808401919091528151808403909101815260a083018252805190840120600080516020611a9c83398151915260c08401526001600160a01b038b1660e084015261010083018a90526101208084018a9052825180850390910181526101408401835280519085012061190160f01b6101608501526101628401829052610182808501829052835180860390910181526101a285018085528151918701919091206000918290526101c2860180865281905260ff8b166101e287015261020286018a90526102228601899052935192965090949293909260019261024280840193601f198301929081900390910190855afa158015610ec1573d6000803e3d6000fd5b5050604051601f1901519150506001600160a01b038116610f135760405162461bcd60e51b8152600401808060200182810382526029815260200180611ca16029913960400191505060405180910390fd5b6001600160a01b0381166000908152600a602052604090208054600181019091558914610f715760405162461bcd60e51b8152600401808060200182810382526025815260200180611a776025913960400191505060405180910390fd5b87421115610fb05760405162461bcd60e51b8152600401808060200182810382526029815260200180611bfd6029913960400191505060405180910390fd5b610fba818b6115c7565b505050505b505050505050565b6001600160a01b03918216600090815260026020908152604080832093909416825291909152205490565b600080516020611a9c83398151915281565b60086020908152600092835260408084209091529082529020805460019091015463ffffffff9091169082565b611039611092565b6000546001600160a01b03908116911614611089576040805162461bcd60e51b81526020600482018190526024820152600080516020611b0e833981519152604482015290519081900360640190fd5b61083e8161173e565b3390565b6001600160a01b0383166110db5760405162461bcd60e51b8152600401808060200182810382526024815260200180611a0d6024913960400191505060405180910390fd5b6001600160a01b0382166111205760405162461bcd60e51b8152600401808060200182810382526022815260200180611c7f6022913960400191505060405180910390fd5b6001600160a01b03808416600081815260026020908152604080832094871680845294825291829020859055815185815291517f8c5be1e5ebec7d5bd14f71427d1e84f3dd0314c0f7b2291e5b200ac8c7c3b9259281900390910190a3505050565b6001600160a01b0383166111c75760405162461bcd60e51b81526004018080602001828103825260258152602001806119e86025913960400191505060405180910390fd5b6001600160a01b03821661120c5760405162461bcd60e51b8152600401808060200182810382526023815260200180611b946023913960400191505060405180910390fd5b61124981604051806060016040528060268152602001611b4e602691396001600160a01b03861660009081526001602052604090205491906112c2565b6001600160a01b0380851660009081526001602052604080822093909355908416815220546112789082611359565b6001600160a01b038084166000818152600160209081526040918290209490945580518581529051919392871692600080516020611b7483398151915292918290030190a3505050565b600081848411156113515760405162461bcd60e51b81526004018080602001828103825283818151815260200191508051906020019080838360005b838110156113165781810151838201526020016112fe565b50505050905090810190601f1680156113435780820380516001836020036101000a031916815260200191505b509250505060405180910390fd5b505050900390565b600082820183811015610d71576040805162461bcd60e51b815260206004820152601b60248201527a536166654d6174683a206164646974696f6e206f766572666c6f7760281b604482015290519081900360640190fd5b6001600160a01b03821661140c576040805162461bcd60e51b815260206004820152601f60248201527f42455032303a206d696e7420746f20746865207a65726f206164647265737300604482015290519081900360640190fd5b6003546114199082611359565b6003556001600160a01b03821660009081526001602052604090205461143f9082611359565b6001600160a01b0383166000818152600160209081526040808320949094558351858152935192939192600080516020611b748339815191529281900390910190a35050565b816001600160a01b0316836001600160a01b0316141580156114a75750600081115b156115c2576001600160a01b03831615611539576001600160a01b03831660009081526009602052604081205463ffffffff1690816114e7576000611519565b6001600160a01b038516600090815260086020908152604080832063ffffffff60001987011684529091529020600101545b9050600061152782856117cc565b90506115358684848461180e565b5050505b6001600160a01b038216156115c2576001600160a01b03821660009081526009602052604081205463ffffffff1690816115745760006115a6565b6001600160a01b038416600090815260086020908152604080832063ffffffff60001987011684529091529020600101545b905060006115b48285611359565b9050610fbf8584848461180e565b505050565b6001600160a01b03808316600090815260076020526040812054909116906115ee84610859565b6001600160a01b0385811660008181526007602052604080822080546001600160a01b031916898616908117909155905194955093928616927f3134e8a2e6d97e929a7e54011ea5485d7d196dd5f0ba4d4ef95803e8e3fc257f9190a4611656828483611485565b50505050565b6001600160a01b0382166116a15760405162461bcd60e51b8152600401808060200182810382526021815260200180611bdc6021913960400191505060405180910390fd5b6116de81604051806060016040528060228152602001611c5d602291396001600160a01b03851660009081526001602052604090205491906112c2565b6001600160a01b03831660009081526001602052604090205560035461170490826117cc565b6003556040805182815290516000916001600160a01b03851691600080516020611b748339815191529181900360200190a35050565b4690565b6001600160a01b0381166117835760405162461bcd60e51b8152600401808060200182810382526026815260200180611a516026913960400191505060405180910390fd5b600080546040516001600160a01b0380851693921691600080516020611b2e83398151915291a3600080546001600160a01b0319166001600160a01b0392909216919091179055565b6000610d7183836040518060400160405280601e81526020017f536166654d6174683a207375627472616374696f6e206f766572666c6f7700008152506112c2565b600061183243604051806060016040528060378152602001611c2660379139611973565b905060008463ffffffff1611801561187b57506001600160a01b038516600090815260086020908152604080832063ffffffff6000198901811685529252909120548282169116145b156118b8576001600160a01b038516600090815260086020908152604080832063ffffffff60001989011684529091529020600101829055611929565b60408051808201825263ffffffff808416825260208083018681526001600160a01b038a166000818152600884528681208b8616825284528681209551865490861663ffffffff19918216178755925160019687015590815260099092529390208054928801909116919092161790555b604080518481526020810184905281516001600160a01b038816927fdec2bacdd2f05b59de34da9b523dff8be42e5e38e818c82fdb0bae774387a724928290030190a25050505050565b600081600160201b84106119c85760405162461bcd60e51b81526020600482018181528351602484015283519092839260449091019190850190808383600083156113165781810151838201526020016112fe565b509192915050565b60408051808201909152600080825260208201529056fe42455032303a207472616e736665722066726f6d20746865207a65726f206164647265737342455032303a20617070726f76652066726f6d20746865207a65726f20616464726573738cad95687ba82c2ce50e74f7b754645e5117c3a5bec8151c0726d5857980a8664f776e61626c653a206e6577206f776e657220697320746865207a65726f20616464726573734d47546f6b656e3a3a64656c656761746542795369673a20696e76616c6964206e6f6e6365e48329057bfd03d55e49b547132e39cffd9c1820ad7b9d4c5307691425d15adf4d47546f6b656e3a3a6765745072696f72566f7465733a206e6f74207965742064657465726d696e656442455032303a207472616e7366657220616d6f756e74206578636565647320616c6c6f77616e63654f776e61626c653a2063616c6c6572206973206e6f7420746865206f776e65728be0079c531659141344cd1fd0a4f28419497f9722a3daafe3b4186f6b6457e042455032303a207472616e7366657220616d6f756e7420657863656564732062616c616e6365ddf252ad1be2c89b69c2b068fc378daa952ba7f163c4a11628f55a4df523b3ef42455032303a207472616e7366657220746f20746865207a65726f206164647265737342455032303a2064656372656173656420616c6c6f77616e63652062656c6f77207a65726f42455032303a206275726e2066726f6d20746865207a65726f20616464726573734d47546f6b656e3a3a64656c656761746542795369673a207369676e617475726520657870697265644d47546f6b656e3a3a5f7772697465436865636b706f696e743a20626c6f636b206e756d6265722065786365656473203332206269747342455032303a206275726e20616d6f756e7420657863656564732062616c616e636542455032303a20617070726f766520746f20746865207a65726f20616464726573734d47546f6b656e3a3a64656c656761746542795369673a20696e76616c6964207369676e6174757265a2646970667358221220e610df2dd92c4988a967ceb84f39872353f19ccaa2e1361efbf9663a6070038c64736f6c634300060c0033",
          "opcodes": "PUSH1 0x80 PUSH1 0x40 MSTORE CALLVALUE DUP1 ISZERO PUSH3 0x11 JUMPI PUSH1 0x0 DUP1 REVERT JUMPDEST POP PUSH1 0x40 MLOAD DUP1 PUSH1 0x40 ADD PUSH1 0x40 MSTORE DUP1 PUSH1 0xC DUP2 MSTORE PUSH1 0x20 ADD PUSH12 0x26B7B1B5A3B7BB2A37B5B2B7 PUSH1 0xA1 SHL DUP2 MSTORE POP PUSH1 0x40 MLOAD DUP1 PUSH1 0x40 ADD PUSH1 0x40 MSTORE DUP1 PUSH1 0x7 DUP2 MSTORE PUSH1 0x20 ADD PUSH7 0x26A3AA37B5B2B7 PUSH1 0xC9 SHL DUP2 MSTORE POP PUSH1 0x0 PUSH3 0x69 PUSH3 0xF4 PUSH1 0x20 SHL PUSH1 0x20 SHR JUMP JUMPDEST PUSH1 0x0 DUP1 SLOAD PUSH1 0x1 PUSH1 0x1 PUSH1 0xA0 SHL SUB NOT AND PUSH1 0x1 PUSH1 0x1 PUSH1 0xA0 SHL SUB DUP4 AND SWAP1 DUP2 OR DUP3 SSTORE PUSH1 0x40 MLOAD SWAP3 SWAP4 POP SWAP2 PUSH32 0x8BE0079C531659141344CD1FD0A4F28419497F9722A3DAAFE3B4186F6B6457E0 SWAP1 DUP3 SWAP1 LOG3 POP DUP2 MLOAD PUSH3 0xC8 SWAP1 PUSH1 0x4 SWAP1 PUSH1 0x20 DUP6 ADD SWAP1 PUSH3 0xF8 JUMP JUMPDEST POP DUP1 MLOAD PUSH3 0xDE SWAP1 PUSH1 0x5 SWAP1 PUSH1 0x20 DUP5 ADD SWAP1 PUSH3 0xF8 JUMP JUMPDEST POP POP PUSH1 0x6 DUP1 SLOAD PUSH1 0xFF NOT AND PUSH1 0x12 OR SWAP1 SSTORE POP PUSH3 0x194 JUMP JUMPDEST CALLER SWAP1 JUMP JUMPDEST DUP3 DUP1 SLOAD PUSH1 0x1 DUP2 PUSH1 0x1 AND ISZERO PUSH2 0x100 MUL SUB AND PUSH1 0x2 SWAP1 DIV SWAP1 PUSH1 0x0 MSTORE PUSH1 0x20 PUSH1 0x0 KECCAK256 SWAP1 PUSH1 0x1F ADD PUSH1 0x20 SWAP1 DIV DUP2 ADD SWAP3 DUP3 PUSH1 0x1F LT PUSH3 0x13B JUMPI DUP1 MLOAD PUSH1 0xFF NOT AND DUP4 DUP1 ADD OR DUP6 SSTORE PUSH3 0x16B JUMP JUMPDEST DUP3 DUP1 ADD PUSH1 0x1 ADD DUP6 SSTORE DUP3 ISZERO PUSH3 0x16B JUMPI SWAP2 DUP3 ADD JUMPDEST DUP3 DUP2 GT ISZERO PUSH3 0x16B JUMPI DUP3 MLOAD DUP3 SSTORE SWAP2 PUSH1 0x20 ADD SWAP2 SWAP1 PUSH1 0x1 ADD SWAP1 PUSH3 0x14E JUMP JUMPDEST POP PUSH3 0x179 SWAP3 SWAP2 POP PUSH3 0x17D JUMP JUMPDEST POP SWAP1 JUMP JUMPDEST JUMPDEST DUP1 DUP3 GT ISZERO PUSH3 0x179 JUMPI PUSH1 0x0 DUP2 SSTORE PUSH1 0x1 ADD PUSH3 0x17E JUMP JUMPDEST PUSH2 0x1CFF DUP1 PUSH3 0x1A4 PUSH1 0x0 CODECOPY PUSH1 0x0 RETURN INVALID PUSH1 0x80 PUSH1 0x40 MSTORE CALLVALUE DUP1 ISZERO PUSH2 0x10 JUMPI PUSH1 0x0 DUP1 REVERT JUMPDEST POP PUSH1 0x4 CALLDATASIZE LT PUSH2 0x154 JUMPI PUSH1 0x0 CALLDATALOAD PUSH1 0xE0 SHR DUP1 PUSH4 0x6FDDE03 EQ PUSH2 0x159 JUMPI DUP1 PUSH4 0x95EA7B3 EQ PUSH2 0x1D6 JUMPI DUP1 PUSH4 0x18160DDD EQ PUSH2 0x216 JUMPI DUP1 PUSH4 0x20606B70 EQ PUSH2 0x230 JUMPI DUP1 PUSH4 0x23B872DD EQ PUSH2 0x238 JUMPI DUP1 PUSH4 0x313CE567 EQ PUSH2 0x26E JUMPI DUP1 PUSH4 0x39509351 EQ PUSH2 0x28C JUMPI DUP1 PUSH4 0x40C10F19 EQ PUSH2 0x2B8 JUMPI DUP1 PUSH4 0x587CDE1E EQ PUSH2 0x2E6 JUMPI DUP1 PUSH4 0x5C19A95C EQ PUSH2 0x328 JUMPI DUP1 PUSH4 0x6FCFFF45 EQ PUSH2 0x34E JUMPI DUP1 PUSH4 0x70A08231 EQ PUSH2 0x38D JUMPI DUP1 PUSH4 0x715018A6 EQ PUSH2 0x3B3 JUMPI DUP1 PUSH4 0x782D6FE1 EQ PUSH2 0x3BB JUMPI DUP1 PUSH4 0x7ECEBE00 EQ PUSH2 0x3E7 JUMPI DUP1 PUSH4 0x893D20E8 EQ PUSH2 0x40D JUMPI DUP1 PUSH4 0x8DA5CB5B EQ PUSH2 0x415 JUMPI DUP1 PUSH4 0x95D89B41 EQ PUSH2 0x41D JUMPI DUP1 PUSH4 0x9DC29FAC EQ PUSH2 0x425 JUMPI DUP1 PUSH4 0xA0712D68 EQ PUSH2 0x451 JUMPI DUP1 PUSH4 0xA457C2D7 EQ PUSH2 0x46E JUMPI DUP1 PUSH4 0xA9059CBB EQ PUSH2 0x49A JUMPI DUP1 PUSH4 0xB4B5EA57 EQ PUSH2 0x4C6 JUMPI DUP1 PUSH4 0xC3CDA520 EQ PUSH2 0x4EC JUMPI DUP1 PUSH4 0xDD62ED3E EQ PUSH2 0x533 JUMPI DUP1 PUSH4 0xE7A324DC EQ PUSH2 0x561 JUMPI DUP1 PUSH4 0xF1127ED8 EQ PUSH2 0x569 JUMPI DUP1 PUSH4 0xF2FDE38B EQ PUSH2 0x5BB JUMPI JUMPDEST PUSH1 0x0 DUP1 REVERT JUMPDEST PUSH2 0x161 PUSH2 0x5E1 JUMP JUMPDEST PUSH1 0x40 DUP1 MLOAD PUSH1 0x20 DUP1 DUP3 MSTORE DUP4 MLOAD DUP2 DUP4 ADD MSTORE DUP4 MLOAD SWAP2 SWAP3 DUP4 SWAP3 SWAP1 DUP4 ADD SWAP2 DUP6 ADD SWAP1 DUP1 DUP4 DUP4 PUSH1 0x0 JUMPDEST DUP4 DUP2 LT ISZERO PUSH2 0x19B JUMPI DUP2 DUP2 ADD MLOAD DUP4 DUP3 ADD MSTORE PUSH1 0x20 ADD PUSH2 0x183 JUMP JUMPDEST POP POP POP POP SWAP1 POP SWAP1 DUP2 ADD SWAP1 PUSH1 0x1F AND DUP1 ISZERO PUSH2 0x1C8 JUMPI DUP1 DUP3 SUB DUP1 MLOAD PUSH1 0x1 DUP4 PUSH1 0x20 SUB PUSH2 0x100 EXP SUB NOT AND DUP2 MSTORE PUSH1 0x20 ADD SWAP2 POP JUMPDEST POP SWAP3 POP POP POP PUSH1 0x40 MLOAD DUP1 SWAP2 SUB SWAP1 RETURN JUMPDEST PUSH2 0x202 PUSH1 0x4 DUP1 CALLDATASIZE SUB PUSH1 0x40 DUP2 LT ISZERO PUSH2 0x1EC JUMPI PUSH1 0x0 DUP1 REVERT JUMPDEST POP PUSH1 0x1 PUSH1 0x1 PUSH1 0xA0 SHL SUB DUP2 CALLDATALOAD AND SWAP1 PUSH1 0x20 ADD CALLDATALOAD PUSH2 0x677 JUMP JUMPDEST PUSH1 0x40 DUP1 MLOAD SWAP2 ISZERO ISZERO DUP3 MSTORE MLOAD SWAP1 DUP2 SWAP1 SUB PUSH1 0x20 ADD SWAP1 RETURN JUMPDEST PUSH2 0x21E PUSH2 0x695 JUMP JUMPDEST PUSH1 0x40 DUP1 MLOAD SWAP2 DUP3 MSTORE MLOAD SWAP1 DUP2 SWAP1 SUB PUSH1 0x20 ADD SWAP1 RETURN JUMPDEST PUSH2 0x21E PUSH2 0x69B JUMP JUMPDEST PUSH2 0x202 PUSH1 0x4 DUP1 CALLDATASIZE SUB PUSH1 0x60 DUP2 LT ISZERO PUSH2 0x24E JUMPI PUSH1 0x0 DUP1 REVERT JUMPDEST POP PUSH1 0x1 PUSH1 0x1 PUSH1 0xA0 SHL SUB DUP2 CALLDATALOAD DUP2 AND SWAP2 PUSH1 0x20 DUP2 ADD CALLDATALOAD SWAP1 SWAP2 AND SWAP1 PUSH1 0x40 ADD CALLDATALOAD PUSH2 0x6AD JUMP JUMPDEST PUSH2 0x276 PUSH2 0x734 JUMP JUMPDEST PUSH1 0x40 DUP1 MLOAD PUSH1 0xFF SWAP1 SWAP3 AND DUP3 MSTORE MLOAD SWAP1 DUP2 SWAP1 SUB PUSH1 0x20 ADD SWAP1 RETURN JUMPDEST PUSH2 0x202 PUSH1 0x4 DUP1 CALLDATASIZE SUB PUSH1 0x40 DUP2 LT ISZERO PUSH2 0x2A2 JUMPI PUSH1 0x0 DUP1 REVERT JUMPDEST POP PUSH1 0x1 PUSH1 0x1 PUSH1 0xA0 SHL SUB DUP2 CALLDATALOAD AND SWAP1 PUSH1 0x20 ADD CALLDATALOAD PUSH2 0x73D JUMP JUMPDEST PUSH2 0x2E4 PUSH1 0x4 DUP1 CALLDATASIZE SUB PUSH1 0x40 DUP2 LT ISZERO PUSH2 0x2CE JUMPI PUSH1 0x0 DUP1 REVERT JUMPDEST POP PUSH1 0x1 PUSH1 0x1 PUSH1 0xA0 SHL SUB DUP2 CALLDATALOAD AND SWAP1 PUSH1 0x20 ADD CALLDATALOAD PUSH2 0x78B JUMP JUMPDEST STOP JUMPDEST PUSH2 0x30C PUSH1 0x4 DUP1 CALLDATASIZE SUB PUSH1 0x20 DUP2 LT ISZERO PUSH2 0x2FC JUMPI PUSH1 0x0 DUP1 REVERT JUMPDEST POP CALLDATALOAD PUSH1 0x1 PUSH1 0x1 PUSH1 0xA0 SHL SUB AND PUSH2 0x816 JUMP JUMPDEST PUSH1 0x40 DUP1 MLOAD PUSH1 0x1 PUSH1 0x1 PUSH1 0xA0 SHL SUB SWAP1 SWAP3 AND DUP3 MSTORE MLOAD SWAP1 DUP2 SWAP1 SUB PUSH1 0x20 ADD SWAP1 RETURN JUMPDEST PUSH2 0x2E4 PUSH1 0x4 DUP1 CALLDATASIZE SUB PUSH1 0x20 DUP2 LT ISZERO PUSH2 0x33E JUMPI PUSH1 0x0 DUP1 REVERT JUMPDEST POP CALLDATALOAD PUSH1 0x1 PUSH1 0x1 PUSH1 0xA0 SHL SUB AND PUSH2 0x834 JUMP JUMPDEST PUSH2 0x374 PUSH1 0x4 DUP1 CALLDATASIZE SUB PUSH1 0x20 DUP2 LT ISZERO PUSH2 0x364 JUMPI PUSH1 0x0 DUP1 REVERT JUMPDEST POP CALLDATALOAD PUSH1 0x1 PUSH1 0x1 PUSH1 0xA0 SHL SUB AND PUSH2 0x841 JUMP JUMPDEST PUSH1 0x40 DUP1 MLOAD PUSH4 0xFFFFFFFF SWAP1 SWAP3 AND DUP3 MSTORE MLOAD SWAP1 DUP2 SWAP1 SUB PUSH1 0x20 ADD SWAP1 RETURN JUMPDEST PUSH2 0x21E PUSH1 0x4 DUP1 CALLDATASIZE SUB PUSH1 0x20 DUP2 LT ISZERO PUSH2 0x3A3 JUMPI PUSH1 0x0 DUP1 REVERT JUMPDEST POP CALLDATALOAD PUSH1 0x1 PUSH1 0x1 PUSH1 0xA0 SHL SUB AND PUSH2 0x859 JUMP JUMPDEST PUSH2 0x2E4 PUSH2 0x874 JUMP JUMPDEST PUSH2 0x21E PUSH1 0x4 DUP1 CALLDATASIZE SUB PUSH1 0x40 DUP2 LT ISZERO PUSH2 0x3D1 JUMPI PUSH1 0x0 DUP1 REVERT JUMPDEST POP PUSH1 0x1 PUSH1 0x1 PUSH1 0xA0 SHL SUB DUP2 CALLDATALOAD AND SWAP1 PUSH1 0x20 ADD CALLDATALOAD PUSH2 0x904 JUMP JUMPDEST PUSH2 0x21E PUSH1 0x4 DUP1 CALLDATASIZE SUB PUSH1 0x20 DUP2 LT ISZERO PUSH2 0x3FD JUMPI PUSH1 0x0 DUP1 REVERT JUMPDEST POP CALLDATALOAD PUSH1 0x1 PUSH1 0x1 PUSH1 0xA0 SHL SUB AND PUSH2 0xB0C JUMP JUMPDEST PUSH2 0x30C PUSH2 0xB1E JUMP JUMPDEST PUSH2 0x30C PUSH2 0xB2D JUMP JUMPDEST PUSH2 0x161 PUSH2 0xB3C JUMP JUMPDEST PUSH2 0x2E4 PUSH1 0x4 DUP1 CALLDATASIZE SUB PUSH1 0x40 DUP2 LT ISZERO PUSH2 0x43B JUMPI PUSH1 0x0 DUP1 REVERT JUMPDEST POP PUSH1 0x1 PUSH1 0x1 PUSH1 0xA0 SHL SUB DUP2 CALLDATALOAD AND SWAP1 PUSH1 0x20 ADD CALLDATALOAD PUSH2 0xB9D JUMP JUMPDEST PUSH2 0x202 PUSH1 0x4 DUP1 CALLDATASIZE SUB PUSH1 0x20 DUP2 LT ISZERO PUSH2 0x467 JUMPI PUSH1 0x0 DUP1 REVERT JUMPDEST POP CALLDATALOAD PUSH2 0xC25 JUMP JUMPDEST PUSH2 0x202 PUSH1 0x4 DUP1 CALLDATASIZE SUB PUSH1 0x40 DUP2 LT ISZERO PUSH2 0x484 JUMPI PUSH1 0x0 DUP1 REVERT JUMPDEST POP PUSH1 0x1 PUSH1 0x1 PUSH1 0xA0 SHL SUB DUP2 CALLDATALOAD AND SWAP1 PUSH1 0x20 ADD CALLDATALOAD PUSH2 0xC98 JUMP JUMPDEST PUSH2 0x202 PUSH1 0x4 DUP1 CALLDATASIZE SUB PUSH1 0x40 DUP2 LT ISZERO PUSH2 0x4B0 JUMPI PUSH1 0x0 DUP1 REVERT JUMPDEST POP PUSH1 0x1 PUSH1 0x1 PUSH1 0xA0 SHL SUB DUP2 CALLDATALOAD AND SWAP1 PUSH1 0x20 ADD CALLDATALOAD PUSH2 0xD00 JUMP JUMPDEST PUSH2 0x21E PUSH1 0x4 DUP1 CALLDATASIZE SUB PUSH1 0x20 DUP2 LT ISZERO PUSH2 0x4DC JUMPI PUSH1 0x0 DUP1 REVERT JUMPDEST POP CALLDATALOAD PUSH1 0x1 PUSH1 0x1 PUSH1 0xA0 SHL SUB AND PUSH2 0xD14 JUMP JUMPDEST PUSH2 0x2E4 PUSH1 0x4 DUP1 CALLDATASIZE SUB PUSH1 0xC0 DUP2 LT ISZERO PUSH2 0x502 JUMPI PUSH1 0x0 DUP1 REVERT JUMPDEST POP PUSH1 0x1 PUSH1 0x1 PUSH1 0xA0 SHL SUB DUP2 CALLDATALOAD AND SWAP1 PUSH1 0x20 DUP2 ADD CALLDATALOAD SWAP1 PUSH1 0x40 DUP2 ADD CALLDATALOAD SWAP1 PUSH1 0xFF PUSH1 0x60 DUP3 ADD CALLDATALOAD AND SWAP1 PUSH1 0x80 DUP2 ADD CALLDATALOAD SWAP1 PUSH1 0xA0 ADD CALLDATALOAD PUSH2 0xD78 JUMP JUMPDEST PUSH2 0x21E PUSH1 0x4 DUP1 CALLDATASIZE SUB PUSH1 0x40 DUP2 LT ISZERO PUSH2 0x549 JUMPI PUSH1 0x0 DUP1 REVERT JUMPDEST POP PUSH1 0x1 PUSH1 0x1 PUSH1 0xA0 SHL SUB DUP2 CALLDATALOAD DUP2 AND SWAP2 PUSH1 0x20 ADD CALLDATALOAD AND PUSH2 0xFC7 JUMP JUMPDEST PUSH2 0x21E PUSH2 0xFF2 JUMP JUMPDEST PUSH2 0x59B PUSH1 0x4 DUP1 CALLDATASIZE SUB PUSH1 0x40 DUP2 LT ISZERO PUSH2 0x57F JUMPI PUSH1 0x0 DUP1 REVERT JUMPDEST POP DUP1 CALLDATALOAD PUSH1 0x1 PUSH1 0x1 PUSH1 0xA0 SHL SUB AND SWAP1 PUSH1 0x20 ADD CALLDATALOAD PUSH4 0xFFFFFFFF AND PUSH2 0x1004 JUMP JUMPDEST PUSH1 0x40 DUP1 MLOAD PUSH4 0xFFFFFFFF SWAP1 SWAP4 AND DUP4 MSTORE PUSH1 0x20 DUP4 ADD SWAP2 SWAP1 SWAP2 MSTORE DUP1 MLOAD SWAP2 DUP3 SWAP1 SUB ADD SWAP1 RETURN JUMPDEST PUSH2 0x2E4 PUSH1 0x4 DUP1 CALLDATASIZE SUB PUSH1 0x20 DUP2 LT ISZERO PUSH2 0x5D1 JUMPI PUSH1 0x0 DUP1 REVERT JUMPDEST POP CALLDATALOAD PUSH1 0x1 PUSH1 0x1 PUSH1 0xA0 SHL SUB AND PUSH2 0x1031 JUMP JUMPDEST PUSH1 0x4 DUP1 SLOAD PUSH1 0x40 DUP1 MLOAD PUSH1 0x20 PUSH1 0x1F PUSH1 0x2 PUSH1 0x0 NOT PUSH2 0x100 PUSH1 0x1 DUP9 AND ISZERO MUL ADD SWAP1 SWAP6 AND SWAP5 SWAP1 SWAP5 DIV SWAP4 DUP5 ADD DUP2 SWAP1 DIV DUP2 MUL DUP3 ADD DUP2 ADD SWAP1 SWAP3 MSTORE DUP3 DUP2 MSTORE PUSH1 0x60 SWAP4 SWAP1 SWAP3 SWAP1 SWAP2 DUP4 ADD DUP3 DUP3 DUP1 ISZERO PUSH2 0x66D JUMPI DUP1 PUSH1 0x1F LT PUSH2 0x642 JUMPI PUSH2 0x100 DUP1 DUP4 SLOAD DIV MUL DUP4 MSTORE SWAP2 PUSH1 0x20 ADD SWAP2 PUSH2 0x66D JUMP JUMPDEST DUP3 ADD SWAP2 SWAP1 PUSH1 0x0 MSTORE PUSH1 0x20 PUSH1 0x0 KECCAK256 SWAP1 JUMPDEST DUP2 SLOAD DUP2 MSTORE SWAP1 PUSH1 0x1 ADD SWAP1 PUSH1 0x20 ADD DUP1 DUP4 GT PUSH2 0x650 JUMPI DUP3 SWAP1 SUB PUSH1 0x1F AND DUP3 ADD SWAP2 JUMPDEST POP POP POP POP POP SWAP1 POP SWAP1 JUMP JUMPDEST PUSH1 0x0 PUSH2 0x68B PUSH2 0x684 PUSH2 0x1092 JUMP JUMPDEST DUP5 DUP5 PUSH2 0x1096 JUMP JUMPDEST POP PUSH1 0x1 JUMPDEST SWAP3 SWAP2 POP POP JUMP JUMPDEST PUSH1 0x3 SLOAD SWAP1 JUMP JUMPDEST PUSH1 0x0 DUP1 MLOAD PUSH1 0x20 PUSH2 0x1A31 DUP4 CODECOPY DUP2 MLOAD SWAP2 MSTORE DUP2 JUMP JUMPDEST PUSH1 0x0 PUSH2 0x6BA DUP5 DUP5 DUP5 PUSH2 0x1182 JUMP JUMPDEST PUSH2 0x72A DUP5 PUSH2 0x6C6 PUSH2 0x1092 JUMP JUMPDEST PUSH2 0x725 DUP6 PUSH1 0x40 MLOAD DUP1 PUSH1 0x60 ADD PUSH1 0x40 MSTORE DUP1 PUSH1 0x28 DUP2 MSTORE PUSH1 0x20 ADD PUSH2 0x1AE6 PUSH1 0x28 SWAP2 CODECOPY PUSH1 0x1 PUSH1 0x1 PUSH1 0xA0 SHL SUB DUP11 AND PUSH1 0x0 SWAP1 DUP2 MSTORE PUSH1 0x2 PUSH1 0x20 MSTORE PUSH1 0x40 DUP2 KECCAK256 SWAP1 PUSH2 0x704 PUSH2 0x1092 JUMP JUMPDEST PUSH1 0x1 PUSH1 0x1 PUSH1 0xA0 SHL SUB AND DUP2 MSTORE PUSH1 0x20 DUP2 ADD SWAP2 SWAP1 SWAP2 MSTORE PUSH1 0x40 ADD PUSH1 0x0 KECCAK256 SLOAD SWAP2 SWAP1 PUSH2 0x12C2 JUMP JUMPDEST PUSH2 0x1096 JUMP JUMPDEST POP PUSH1 0x1 SWAP4 SWAP3 POP POP POP JUMP JUMPDEST PUSH1 0x6 SLOAD PUSH1 0xFF AND SWAP1 JUMP JUMPDEST PUSH1 0x0 PUSH2 0x68B PUSH2 0x74A PUSH2 0x1092 JUMP JUMPDEST DUP5 PUSH2 0x725 DUP6 PUSH1 0x2 PUSH1 0x0 PUSH2 0x75B PUSH2 0x1092 JUMP JUMPDEST PUSH1 0x1 PUSH1 0x1 PUSH1 0xA0 SHL SUB SWAP1 DUP2 AND DUP3 MSTORE PUSH1 0x20 DUP1 DUP4 ADD SWAP4 SWAP1 SWAP4 MSTORE PUSH1 0x40 SWAP2 DUP3 ADD PUSH1 0x0 SWAP1 DUP2 KECCAK256 SWAP2 DUP13 AND DUP2 MSTORE SWAP3 MSTORE SWAP1 KECCAK256 SLOAD SWAP1 PUSH2 0x1359 JUMP JUMPDEST PUSH2 0x793 PUSH2 0x1092 JUMP JUMPDEST PUSH1 0x0 SLOAD PUSH1 0x1 PUSH1 0x1 PUSH1 0xA0 SHL SUB SWAP1 DUP2 AND SWAP2 AND EQ PUSH2 0x7E3 JUMPI PUSH1 0x40 DUP1 MLOAD PUSH3 0x461BCD PUSH1 0xE5 SHL DUP2 MSTORE PUSH1 0x20 PUSH1 0x4 DUP3 ADD DUP2 SWAP1 MSTORE PUSH1 0x24 DUP3 ADD MSTORE PUSH1 0x0 DUP1 MLOAD PUSH1 0x20 PUSH2 0x1B0E DUP4 CODECOPY DUP2 MLOAD SWAP2 MSTORE PUSH1 0x44 DUP3 ADD MSTORE SWAP1 MLOAD SWAP1 DUP2 SWAP1 SUB PUSH1 0x64 ADD SWAP1 REVERT JUMPDEST PUSH2 0x7ED DUP3 DUP3 PUSH2 0x13B1 JUMP JUMPDEST PUSH1 0x1 PUSH1 0x1 PUSH1 0xA0 SHL SUB DUP1 DUP4 AND PUSH1 0x0 SWAP1 DUP2 MSTORE PUSH1 0x7 PUSH1 0x20 MSTORE PUSH1 0x40 DUP2 KECCAK256 SLOAD PUSH2 0x812 SWAP3 AND DUP4 PUSH2 0x1485 JUMP JUMPDEST POP POP JUMP JUMPDEST PUSH1 0x1 PUSH1 0x1 PUSH1 0xA0 SHL SUB SWAP1 DUP2 AND PUSH1 0x0 SWAP1 DUP2 MSTORE PUSH1 0x7 PUSH1 0x20 MSTORE PUSH1 0x40 SWAP1 KECCAK256 SLOAD AND SWAP1 JUMP JUMPDEST PUSH2 0x83E CALLER DUP3 PUSH2 0x15C7 JUMP JUMPDEST POP JUMP JUMPDEST PUSH1 0x9 PUSH1 0x20 MSTORE PUSH1 0x0 SWAP1 DUP2 MSTORE PUSH1 0x40 SWAP1 KECCAK256 SLOAD PUSH4 0xFFFFFFFF AND DUP2 JUMP JUMPDEST PUSH1 0x1 PUSH1 0x1 PUSH1 0xA0 SHL SUB AND PUSH1 0x0 SWAP1 DUP2 MSTORE PUSH1 0x1 PUSH1 0x20 MSTORE PUSH1 0x40 SWAP1 KECCAK256 SLOAD SWAP1 JUMP JUMPDEST PUSH2 0x87C PUSH2 0x1092 JUMP JUMPDEST PUSH1 0x0 SLOAD PUSH1 0x1 PUSH1 0x1 PUSH1 0xA0 SHL SUB SWAP1 DUP2 AND SWAP2 AND EQ PUSH2 0x8CC JUMPI PUSH1 0x40 DUP1 MLOAD PUSH3 0x461BCD PUSH1 0xE5 SHL DUP2 MSTORE PUSH1 0x20 PUSH1 0x4 DUP3 ADD DUP2 SWAP1 MSTORE PUSH1 0x24 DUP3 ADD MSTORE PUSH1 0x0 DUP1 MLOAD PUSH1 0x20 PUSH2 0x1B0E DUP4 CODECOPY DUP2 MLOAD SWAP2 MSTORE PUSH1 0x44 DUP3 ADD MSTORE SWAP1 MLOAD SWAP1 DUP2 SWAP1 SUB PUSH1 0x64 ADD SWAP1 REVERT JUMPDEST PUSH1 0x0 DUP1 SLOAD PUSH1 0x40 MLOAD PUSH1 0x1 PUSH1 0x1 PUSH1 0xA0 SHL SUB SWAP1 SWAP2 AND SWAP1 PUSH1 0x0 DUP1 MLOAD PUSH1 0x20 PUSH2 0x1B2E DUP4 CODECOPY DUP2 MLOAD SWAP2 MSTORE SWAP1 DUP4 SWAP1 LOG3 PUSH1 0x0 DUP1 SLOAD PUSH1 0x1 PUSH1 0x1 PUSH1 0xA0 SHL SUB NOT AND SWAP1 SSTORE JUMP JUMPDEST PUSH1 0x0 NUMBER DUP3 LT PUSH2 0x944 JUMPI PUSH1 0x40 MLOAD PUSH3 0x461BCD PUSH1 0xE5 SHL DUP2 MSTORE PUSH1 0x4 ADD DUP1 DUP1 PUSH1 0x20 ADD DUP3 DUP2 SUB DUP3 MSTORE PUSH1 0x2A DUP2 MSTORE PUSH1 0x20 ADD DUP1 PUSH2 0x1ABC PUSH1 0x2A SWAP2 CODECOPY PUSH1 0x40 ADD SWAP2 POP POP PUSH1 0x40 MLOAD DUP1 SWAP2 SUB SWAP1 REVERT JUMPDEST PUSH1 0x1 PUSH1 0x1 PUSH1 0xA0 SHL SUB DUP4 AND PUSH1 0x0 SWAP1 DUP2 MSTORE PUSH1 0x9 PUSH1 0x20 MSTORE PUSH1 0x40 SWAP1 KECCAK256 SLOAD PUSH4 0xFFFFFFFF AND DUP1 PUSH2 0x972 JUMPI PUSH1 0x0 SWAP2 POP POP PUSH2 0x68F JUMP JUMPDEST PUSH1 0x1 PUSH1 0x1 PUSH1 0xA0 SHL SUB DUP5 AND PUSH1 0x0 SWAP1 DUP2 MSTORE PUSH1 0x8 PUSH1 0x20 SWAP1 DUP2 MSTORE PUSH1 0x40 DUP1 DUP4 KECCAK256 PUSH4 0xFFFFFFFF PUSH1 0x0 NOT DUP7 ADD DUP2 AND DUP6 MSTORE SWAP3 MSTORE SWAP1 SWAP2 KECCAK256 SLOAD AND DUP4 LT PUSH2 0x9E1 JUMPI PUSH1 0x1 PUSH1 0x1 PUSH1 0xA0 SHL SUB DUP5 AND PUSH1 0x0 SWAP1 DUP2 MSTORE PUSH1 0x8 PUSH1 0x20 SWAP1 DUP2 MSTORE PUSH1 0x40 DUP1 DUP4 KECCAK256 PUSH1 0x0 NOT SWAP5 SWAP1 SWAP5 ADD PUSH4 0xFFFFFFFF AND DUP4 MSTORE SWAP3 SWAP1 MSTORE KECCAK256 PUSH1 0x1 ADD SLOAD SWAP1 POP PUSH2 0x68F JUMP JUMPDEST PUSH1 0x1 PUSH1 0x1 PUSH1 0xA0 SHL SUB DUP5 AND PUSH1 0x0 SWAP1 DUP2 MSTORE PUSH1 0x8 PUSH1 0x20 SWAP1 DUP2 MSTORE PUSH1 0x40 DUP1 DUP4 KECCAK256 DUP4 DUP1 MSTORE SWAP1 SWAP2 MSTORE SWAP1 KECCAK256 SLOAD PUSH4 0xFFFFFFFF AND DUP4 LT ISZERO PUSH2 0xA1C JUMPI PUSH1 0x0 SWAP2 POP POP PUSH2 0x68F JUMP JUMPDEST PUSH1 0x0 PUSH1 0x0 NOT DUP3 ADD JUMPDEST DUP2 PUSH4 0xFFFFFFFF AND DUP2 PUSH4 0xFFFFFFFF AND GT ISZERO PUSH2 0xAD5 JUMPI PUSH1 0x2 DUP3 DUP3 SUB PUSH4 0xFFFFFFFF AND DIV DUP2 SUB PUSH2 0xA4E PUSH2 0x19D0 JUMP JUMPDEST POP PUSH1 0x1 PUSH1 0x1 PUSH1 0xA0 SHL SUB DUP8 AND PUSH1 0x0 SWAP1 DUP2 MSTORE PUSH1 0x8 PUSH1 0x20 SWAP1 DUP2 MSTORE PUSH1 0x40 DUP1 DUP4 KECCAK256 PUSH4 0xFFFFFFFF DUP1 DUP7 AND DUP6 MSTORE SWAP1 DUP4 MSTORE SWAP3 DUP2 SWAP1 KECCAK256 DUP2 MLOAD DUP1 DUP4 ADD SWAP1 SWAP3 MSTORE DUP1 SLOAD SWAP1 SWAP4 AND DUP1 DUP3 MSTORE PUSH1 0x1 SWAP1 SWAP4 ADD SLOAD SWAP2 DUP2 ADD SWAP2 SWAP1 SWAP2 MSTORE SWAP1 DUP8 EQ ISZERO PUSH2 0xAB0 JUMPI PUSH1 0x20 ADD MLOAD SWAP5 POP PUSH2 0x68F SWAP4 POP POP POP POP JUMP JUMPDEST DUP1 MLOAD PUSH4 0xFFFFFFFF AND DUP8 GT ISZERO PUSH2 0xAC7 JUMPI DUP2 SWAP4 POP PUSH2 0xACE JUMP JUMPDEST PUSH1 0x1 DUP3 SUB SWAP3 POP JUMPDEST POP POP PUSH2 0xA24 JUMP JUMPDEST POP PUSH1 0x1 PUSH1 0x1 PUSH1 0xA0 SHL SUB DUP6 AND PUSH1 0x0 SWAP1 DUP2 MSTORE PUSH1 0x8 PUSH1 0x20 SWAP1 DUP2 MSTORE PUSH1 0x40 DUP1 DUP4 KECCAK256 PUSH4 0xFFFFFFFF SWAP1 SWAP5 AND DUP4 MSTORE SWAP3 SWAP1 MSTORE KECCAK256 PUSH1 0x1 ADD SLOAD SWAP2 POP POP SWAP3 SWAP2 POP POP JUMP JUMPDEST PUSH1 0xA PUSH1 0x20 MSTORE PUSH1 0x0 SWAP1 DUP2 MSTORE PUSH1 0x40 SWAP1 KECCAK256 SLOAD DUP2 JUMP JUMPDEST PUSH1 0x0 PUSH2 0xB28 PUSH2 0xB2D JUMP JUMPDEST SWAP1 POP SWAP1 JUMP JUMPDEST PUSH1 0x0 SLOAD PUSH1 0x1 PUSH1 0x1 PUSH1 0xA0 SHL SUB AND SWAP1 JUMP JUMPDEST PUSH1 0x5 DUP1 SLOAD PUSH1 0x40 DUP1 MLOAD PUSH1 0x20 PUSH1 0x1F PUSH1 0x2 PUSH1 0x0 NOT PUSH2 0x100 PUSH1 0x1 DUP9 AND ISZERO MUL ADD SWAP1 SWAP6 AND SWAP5 SWAP1 SWAP5 DIV SWAP4 DUP5 ADD DUP2 SWAP1 DIV DUP2 MUL DUP3 ADD DUP2 ADD SWAP1 SWAP3 MSTORE DUP3 DUP2 MSTORE PUSH1 0x60 SWAP4 SWAP1 SWAP3 SWAP1 SWAP2 DUP4 ADD DUP3 DUP3 DUP1 ISZERO PUSH2 0x66D JUMPI DUP1 PUSH1 0x1F LT PUSH2 0x642 JUMPI PUSH2 0x100 DUP1 DUP4 SLOAD DIV MUL DUP4 MSTORE SWAP2 PUSH1 0x20 ADD SWAP2 PUSH2 0x66D JUMP JUMPDEST PUSH2 0xBA5 PUSH2 0x1092 JUMP JUMPDEST PUSH1 0x0 SLOAD PUSH1 0x1 PUSH1 0x1 PUSH1 0xA0 SHL SUB SWAP1 DUP2 AND SWAP2 AND EQ PUSH2 0xBF5 JUMPI PUSH1 0x40 DUP1 MLOAD PUSH3 0x461BCD PUSH1 0xE5 SHL DUP2 MSTORE PUSH1 0x20 PUSH1 0x4 DUP3 ADD DUP2 SWAP1 MSTORE PUSH1 0x24 DUP3 ADD MSTORE PUSH1 0x0 DUP1 MLOAD PUSH1 0x20 PUSH2 0x1B0E DUP4 CODECOPY DUP2 MLOAD SWAP2 MSTORE PUSH1 0x44 DUP3 ADD MSTORE SWAP1 MLOAD SWAP1 DUP2 SWAP1 SUB PUSH1 0x64 ADD SWAP1 REVERT JUMPDEST PUSH2 0xBFF DUP3 DUP3 PUSH2 0x165C JUMP JUMPDEST PUSH1 0x1 PUSH1 0x1 PUSH1 0xA0 SHL SUB DUP1 DUP4 AND PUSH1 0x0 SWAP1 DUP2 MSTORE PUSH1 0x7 PUSH1 0x20 MSTORE PUSH1 0x40 DUP2 KECCAK256 SLOAD PUSH2 0x812 SWAP3 AND SWAP1 DUP4 PUSH2 0x1485 JUMP JUMPDEST PUSH1 0x0 PUSH2 0xC2F PUSH2 0x1092 JUMP JUMPDEST PUSH1 0x0 SLOAD PUSH1 0x1 PUSH1 0x1 PUSH1 0xA0 SHL SUB SWAP1 DUP2 AND SWAP2 AND EQ PUSH2 0xC7F JUMPI PUSH1 0x40 DUP1 MLOAD PUSH3 0x461BCD PUSH1 0xE5 SHL DUP2 MSTORE PUSH1 0x20 PUSH1 0x4 DUP3 ADD DUP2 SWAP1 MSTORE PUSH1 0x24 DUP3 ADD MSTORE PUSH1 0x0 DUP1 MLOAD PUSH1 0x20 PUSH2 0x1B0E DUP4 CODECOPY DUP2 MLOAD SWAP2 MSTORE PUSH1 0x44 DUP3 ADD MSTORE SWAP1 MLOAD SWAP1 DUP2 SWAP1 SUB PUSH1 0x64 ADD SWAP1 REVERT JUMPDEST PUSH2 0xC90 PUSH2 0xC8A PUSH2 0x1092 JUMP JUMPDEST DUP4 PUSH2 0x13B1 JUMP JUMPDEST POP PUSH1 0x1 SWAP2 SWAP1 POP JUMP JUMPDEST PUSH1 0x0 PUSH2 0x68B PUSH2 0xCA5 PUSH2 0x1092 JUMP JUMPDEST DUP5 PUSH2 0x725 DUP6 PUSH1 0x40 MLOAD DUP1 PUSH1 0x60 ADD PUSH1 0x40 MSTORE DUP1 PUSH1 0x25 DUP2 MSTORE PUSH1 0x20 ADD PUSH2 0x1BB7 PUSH1 0x25 SWAP2 CODECOPY PUSH1 0x2 PUSH1 0x0 PUSH2 0xCCF PUSH2 0x1092 JUMP JUMPDEST PUSH1 0x1 PUSH1 0x1 PUSH1 0xA0 SHL SUB SWAP1 DUP2 AND DUP3 MSTORE PUSH1 0x20 DUP1 DUP4 ADD SWAP4 SWAP1 SWAP4 MSTORE PUSH1 0x40 SWAP2 DUP3 ADD PUSH1 0x0 SWAP1 DUP2 KECCAK256 SWAP2 DUP14 AND DUP2 MSTORE SWAP3 MSTORE SWAP1 KECCAK256 SLOAD SWAP2 SWAP1 PUSH2 0x12C2 JUMP JUMPDEST PUSH1 0x0 PUSH2 0x68B PUSH2 0xD0D PUSH2 0x1092 JUMP JUMPDEST DUP5 DUP5 PUSH2 0x1182 JUMP JUMPDEST PUSH1 0x1 PUSH1 0x1 PUSH1 0xA0 SHL SUB DUP2 AND PUSH1 0x0 SWAP1 DUP2 MSTORE PUSH1 0x9 PUSH1 0x20 MSTORE PUSH1 0x40 DUP2 KECCAK256 SLOAD PUSH4 0xFFFFFFFF AND DUP1 PUSH2 0xD3F JUMPI PUSH1 0x0 PUSH2 0xD71 JUMP JUMPDEST PUSH1 0x1 PUSH1 0x1 PUSH1 0xA0 SHL SUB DUP4 AND PUSH1 0x0 SWAP1 DUP2 MSTORE PUSH1 0x8 PUSH1 0x20 SWAP1 DUP2 MSTORE PUSH1 0x40 DUP1 DUP4 KECCAK256 PUSH4 0xFFFFFFFF PUSH1 0x0 NOT DUP7 ADD AND DUP5 MSTORE SWAP1 SWAP2 MSTORE SWAP1 KECCAK256 PUSH1 0x1 ADD SLOAD JUMPDEST SWAP4 SWAP3 POP POP POP JUMP JUMPDEST PUSH1 0x0 PUSH1 0x0 DUP1 MLOAD PUSH1 0x20 PUSH2 0x1A31 DUP4 CODECOPY DUP2 MLOAD SWAP2 MSTORE PUSH2 0xD91 PUSH2 0x5E1 JUMP JUMPDEST DUP1 MLOAD SWAP1 PUSH1 0x20 ADD KECCAK256 PUSH2 0xDA0 PUSH2 0x173A JUMP JUMPDEST PUSH1 0x40 DUP1 MLOAD PUSH1 0x20 DUP1 DUP3 ADD SWAP6 SWAP1 SWAP6 MSTORE DUP1 DUP3 ADD SWAP4 SWAP1 SWAP4 MSTORE PUSH1 0x60 DUP4 ADD SWAP2 SWAP1 SWAP2 MSTORE ADDRESS PUSH1 0x80 DUP1 DUP5 ADD SWAP2 SWAP1 SWAP2 MSTORE DUP2 MLOAD DUP1 DUP5 SUB SWAP1 SWAP2 ADD DUP2 MSTORE PUSH1 0xA0 DUP4 ADD DUP3 MSTORE DUP1 MLOAD SWAP1 DUP5 ADD KECCAK256 PUSH1 0x0 DUP1 MLOAD PUSH1 0x20 PUSH2 0x1A9C DUP4 CODECOPY DUP2 MLOAD SWAP2 MSTORE PUSH1 0xC0 DUP5 ADD MSTORE PUSH1 0x1 PUSH1 0x1 PUSH1 0xA0 SHL SUB DUP12 AND PUSH1 0xE0 DUP5 ADD MSTORE PUSH2 0x100 DUP4 ADD DUP11 SWAP1 MSTORE PUSH2 0x120 DUP1 DUP5 ADD DUP11 SWAP1 MSTORE DUP3 MLOAD DUP1 DUP6 SUB SWAP1 SWAP2 ADD DUP2 MSTORE PUSH2 0x140 DUP5 ADD DUP4 MSTORE DUP1 MLOAD SWAP1 DUP6 ADD KECCAK256 PUSH2 0x1901 PUSH1 0xF0 SHL PUSH2 0x160 DUP6 ADD MSTORE PUSH2 0x162 DUP5 ADD DUP3 SWAP1 MSTORE PUSH2 0x182 DUP1 DUP6 ADD DUP3 SWAP1 MSTORE DUP4 MLOAD DUP1 DUP7 SUB SWAP1 SWAP2 ADD DUP2 MSTORE PUSH2 0x1A2 DUP6 ADD DUP1 DUP6 MSTORE DUP2 MLOAD SWAP2 DUP8 ADD SWAP2 SWAP1 SWAP2 KECCAK256 PUSH1 0x0 SWAP2 DUP3 SWAP1 MSTORE PUSH2 0x1C2 DUP7 ADD DUP1 DUP7 MSTORE DUP2 SWAP1 MSTORE PUSH1 0xFF DUP12 AND PUSH2 0x1E2 DUP8 ADD MSTORE PUSH2 0x202 DUP7 ADD DUP11 SWAP1 MSTORE PUSH2 0x222 DUP7 ADD DUP10 SWAP1 MSTORE SWAP4 MLOAD SWAP3 SWAP7 POP SWAP1 SWAP5 SWAP3 SWAP4 SWAP1 SWAP3 PUSH1 0x1 SWAP3 PUSH2 0x242 DUP1 DUP5 ADD SWAP4 PUSH1 0x1F NOT DUP4 ADD SWAP3 SWAP1 DUP2 SWAP1 SUB SWAP1 SWAP2 ADD SWAP1 DUP6 GAS STATICCALL ISZERO DUP1 ISZERO PUSH2 0xEC1 JUMPI RETURNDATASIZE PUSH1 0x0 DUP1 RETURNDATACOPY RETURNDATASIZE PUSH1 0x0 REVERT JUMPDEST POP POP PUSH1 0x40 MLOAD PUSH1 0x1F NOT ADD MLOAD SWAP2 POP POP PUSH1 0x1 PUSH1 0x1 PUSH1 0xA0 SHL SUB DUP2 AND PUSH2 0xF13 JUMPI PUSH1 0x40 MLOAD PUSH3 0x461BCD PUSH1 0xE5 SHL DUP2 MSTORE PUSH1 0x4 ADD DUP1 DUP1 PUSH1 0x20 ADD DUP3 DUP2 SUB DUP3 MSTORE PUSH1 0x29 DUP2 MSTORE PUSH1 0x20 ADD DUP1 PUSH2 0x1CA1 PUSH1 0x29 SWAP2 CODECOPY PUSH1 0x40 ADD SWAP2 POP POP PUSH1 0x40 MLOAD DUP1 SWAP2 SUB SWAP1 REVERT JUMPDEST PUSH1 0x1 PUSH1 0x1 PUSH1 0xA0 SHL SUB DUP2 AND PUSH1 0x0 SWAP1 DUP2 MSTORE PUSH1 0xA PUSH1 0x20 MSTORE PUSH1 0x40 SWAP1 KECCAK256 DUP1 SLOAD PUSH1 0x1 DUP2 ADD SWAP1 SWAP2 SSTORE DUP10 EQ PUSH2 0xF71 JUMPI PUSH1 0x40 MLOAD PUSH3 0x461BCD PUSH1 0xE5 SHL DUP2 MSTORE PUSH1 0x4 ADD DUP1 DUP1 PUSH1 0x20 ADD DUP3 DUP2 SUB DUP3 MSTORE PUSH1 0x25 DUP2 MSTORE PUSH1 0x20 ADD DUP1 PUSH2 0x1A77 PUSH1 0x25 SWAP2 CODECOPY PUSH1 0x40 ADD SWAP2 POP POP PUSH1 0x40 MLOAD DUP1 SWAP2 SUB SWAP1 REVERT JUMPDEST DUP8 TIMESTAMP GT ISZERO PUSH2 0xFB0 JUMPI PUSH1 0x40 MLOAD PUSH3 0x461BCD PUSH1 0xE5 SHL DUP2 MSTORE PUSH1 0x4 ADD DUP1 DUP1 PUSH1 0x20 ADD DUP3 DUP2 SUB DUP3 MSTORE PUSH1 0x29 DUP2 MSTORE PUSH1 0x20 ADD DUP1 PUSH2 0x1BFD PUSH1 0x29 SWAP2 CODECOPY PUSH1 0x40 ADD SWAP2 POP POP PUSH1 0x40 MLOAD DUP1 SWAP2 SUB SWAP1 REVERT JUMPDEST PUSH2 0xFBA DUP2 DUP12 PUSH2 0x15C7 JUMP JUMPDEST POP POP POP POP JUMPDEST POP POP POP POP POP POP JUMP JUMPDEST PUSH1 0x1 PUSH1 0x1 PUSH1 0xA0 SHL SUB SWAP2 DUP3 AND PUSH1 0x0 SWAP1 DUP2 MSTORE PUSH1 0x2 PUSH1 0x20 SWAP1 DUP2 MSTORE PUSH1 0x40 DUP1 DUP4 KECCAK256 SWAP4 SWAP1 SWAP5 AND DUP3 MSTORE SWAP2 SWAP1 SWAP2 MSTORE KECCAK256 SLOAD SWAP1 JUMP JUMPDEST PUSH1 0x0 DUP1 MLOAD PUSH1 0x20 PUSH2 0x1A9C DUP4 CODECOPY DUP2 MLOAD SWAP2 MSTORE DUP2 JUMP JUMPDEST PUSH1 0x8 PUSH1 0x20 SWAP1 DUP2 MSTORE PUSH1 0x0 SWAP3 DUP4 MSTORE PUSH1 0x40 DUP1 DUP5 KECCAK256 SWAP1 SWAP2 MSTORE SWAP1 DUP3 MSTORE SWAP1 KECCAK256 DUP1 SLOAD PUSH1 0x1 SWAP1 SWAP2 ADD SLOAD PUSH4 0xFFFFFFFF SWAP1 SWAP2 AND SWAP1 DUP3 JUMP JUMPDEST PUSH2 0x1039 PUSH2 0x1092 JUMP JUMPDEST PUSH1 0x0 SLOAD PUSH1 0x1 PUSH1 0x1 PUSH1 0xA0 SHL SUB SWAP1 DUP2 AND SWAP2 AND EQ PUSH2 0x1089 JUMPI PUSH1 0x40 DUP1 MLOAD PUSH3 0x461BCD PUSH1 0xE5 SHL DUP2 MSTORE PUSH1 0x20 PUSH1 0x4 DUP3 ADD DUP2 SWAP1 MSTORE PUSH1 0x24 DUP3 ADD MSTORE PUSH1 0x0 DUP1 MLOAD PUSH1 0x20 PUSH2 0x1B0E DUP4 CODECOPY DUP2 MLOAD SWAP2 MSTORE PUSH1 0x44 DUP3 ADD MSTORE SWAP1 MLOAD SWAP1 DUP2 SWAP1 SUB PUSH1 0x64 ADD SWAP1 REVERT JUMPDEST PUSH2 0x83E DUP2 PUSH2 0x173E JUMP JUMPDEST CALLER SWAP1 JUMP JUMPDEST PUSH1 0x1 PUSH1 0x1 PUSH1 0xA0 SHL SUB DUP4 AND PUSH2 0x10DB JUMPI PUSH1 0x40 MLOAD PUSH3 0x461BCD PUSH1 0xE5 SHL DUP2 MSTORE PUSH1 0x4 ADD DUP1 DUP1 PUSH1 0x20 ADD DUP3 DUP2 SUB DUP3 MSTORE PUSH1 0x24 DUP2 MSTORE PUSH1 0x20 ADD DUP1 PUSH2 0x1A0D PUSH1 0x24 SWAP2 CODECOPY PUSH1 0x40 ADD SWAP2 POP POP PUSH1 0x40 MLOAD DUP1 SWAP2 SUB SWAP1 REVERT JUMPDEST PUSH1 0x1 PUSH1 0x1 PUSH1 0xA0 SHL SUB DUP3 AND PUSH2 0x1120 JUMPI PUSH1 0x40 MLOAD PUSH3 0x461BCD PUSH1 0xE5 SHL DUP2 MSTORE PUSH1 0x4 ADD DUP1 DUP1 PUSH1 0x20 ADD DUP3 DUP2 SUB DUP3 MSTORE PUSH1 0x22 DUP2 MSTORE PUSH1 0x20 ADD DUP1 PUSH2 0x1C7F PUSH1 0x22 SWAP2 CODECOPY PUSH1 0x40 ADD SWAP2 POP POP PUSH1 0x40 MLOAD DUP1 SWAP2 SUB SWAP1 REVERT JUMPDEST PUSH1 0x1 PUSH1 0x1 PUSH1 0xA0 SHL SUB DUP1 DUP5 AND PUSH1 0x0 DUP2 DUP2 MSTORE PUSH1 0x2 PUSH1 0x20 SWAP1 DUP2 MSTORE PUSH1 0x40 DUP1 DUP4 KECCAK256 SWAP5 DUP8 AND DUP1 DUP5 MSTORE SWAP5 DUP3 MSTORE SWAP2 DUP3 SWAP1 KECCAK256 DUP6 SWAP1 SSTORE DUP2 MLOAD DUP6 DUP2 MSTORE SWAP2 MLOAD PUSH32 0x8C5BE1E5EBEC7D5BD14F71427D1E84F3DD0314C0F7B2291E5B200AC8C7C3B925 SWAP3 DUP2 SWAP1 SUB SWAP1 SWAP2 ADD SWAP1 LOG3 POP POP POP JUMP JUMPDEST PUSH1 0x1 PUSH1 0x1 PUSH1 0xA0 SHL SUB DUP4 AND PUSH2 0x11C7 JUMPI PUSH1 0x40 MLOAD PUSH3 0x461BCD PUSH1 0xE5 SHL DUP2 MSTORE PUSH1 0x4 ADD DUP1 DUP1 PUSH1 0x20 ADD DUP3 DUP2 SUB DUP3 MSTORE PUSH1 0x25 DUP2 MSTORE PUSH1 0x20 ADD DUP1 PUSH2 0x19E8 PUSH1 0x25 SWAP2 CODECOPY PUSH1 0x40 ADD SWAP2 POP POP PUSH1 0x40 MLOAD DUP1 SWAP2 SUB SWAP1 REVERT JUMPDEST PUSH1 0x1 PUSH1 0x1 PUSH1 0xA0 SHL SUB DUP3 AND PUSH2 0x120C JUMPI PUSH1 0x40 MLOAD PUSH3 0x461BCD PUSH1 0xE5 SHL DUP2 MSTORE PUSH1 0x4 ADD DUP1 DUP1 PUSH1 0x20 ADD DUP3 DUP2 SUB DUP3 MSTORE PUSH1 0x23 DUP2 MSTORE PUSH1 0x20 ADD DUP1 PUSH2 0x1B94 PUSH1 0x23 SWAP2 CODECOPY PUSH1 0x40 ADD SWAP2 POP POP PUSH1 0x40 MLOAD DUP1 SWAP2 SUB SWAP1 REVERT JUMPDEST PUSH2 0x1249 DUP2 PUSH1 0x40 MLOAD DUP1 PUSH1 0x60 ADD PUSH1 0x40 MSTORE DUP1 PUSH1 0x26 DUP2 MSTORE PUSH1 0x20 ADD PUSH2 0x1B4E PUSH1 0x26 SWAP2 CODECOPY PUSH1 0x1 PUSH1 0x1 PUSH1 0xA0 SHL SUB DUP7 AND PUSH1 0x0 SWAP1 DUP2 MSTORE PUSH1 0x1 PUSH1 0x20 MSTORE PUSH1 0x40 SWAP1 KECCAK256 SLOAD SWAP2 SWAP1 PUSH2 0x12C2 JUMP JUMPDEST PUSH1 0x1 PUSH1 0x1 PUSH1 0xA0 SHL SUB DUP1 DUP6 AND PUSH1 0x0 SWAP1 DUP2 MSTORE PUSH1 0x1 PUSH1 0x20 MSTORE PUSH1 0x40 DUP1 DUP3 KECCAK256 SWAP4 SWAP1 SWAP4 SSTORE SWAP1 DUP5 AND DUP2 MSTORE KECCAK256 SLOAD PUSH2 0x1278 SWAP1 DUP3 PUSH2 0x1359 JUMP JUMPDEST PUSH1 0x1 PUSH1 0x1 PUSH1 0xA0 SHL SUB DUP1 DUP5 AND PUSH1 0x0 DUP2 DUP2 MSTORE PUSH1 0x1 PUSH1 0x20 SWAP1 DUP2 MSTORE PUSH1 0x40 SWAP2 DUP3 SWAP1 KECCAK256 SWAP5 SWAP1 SWAP5 SSTORE DUP1 MLOAD DUP6 DUP2 MSTORE SWAP1 MLOAD SWAP2 SWAP4 SWAP3 DUP8 AND SWAP3 PUSH1 0x0 DUP1 MLOAD PUSH1 0x20 PUSH2 0x1B74 DUP4 CODECOPY DUP2 MLOAD SWAP2 MSTORE SWAP3 SWAP2 DUP3 SWAP1 SUB ADD SWAP1 LOG3 POP POP POP JUMP JUMPDEST PUSH1 0x0 DUP2 DUP5 DUP5 GT ISZERO PUSH2 0x1351 JUMPI PUSH1 0x40 MLOAD PUSH3 0x461BCD PUSH1 0xE5 SHL DUP2 MSTORE PUSH1 0x4 ADD DUP1 DUP1 PUSH1 0x20 ADD DUP3 DUP2 SUB DUP3 MSTORE DUP4 DUP2 DUP2 MLOAD DUP2 MSTORE PUSH1 0x20 ADD SWAP2 POP DUP1 MLOAD SWAP1 PUSH1 0x20 ADD SWAP1 DUP1 DUP4 DUP4 PUSH1 0x0 JUMPDEST DUP4 DUP2 LT ISZERO PUSH2 0x1316 JUMPI DUP2 DUP2 ADD MLOAD DUP4 DUP3 ADD MSTORE PUSH1 0x20 ADD PUSH2 0x12FE JUMP JUMPDEST POP POP POP POP SWAP1 POP SWAP1 DUP2 ADD SWAP1 PUSH1 0x1F AND DUP1 ISZERO PUSH2 0x1343 JUMPI DUP1 DUP3 SUB DUP1 MLOAD PUSH1 0x1 DUP4 PUSH1 0x20 SUB PUSH2 0x100 EXP SUB NOT AND DUP2 MSTORE PUSH1 0x20 ADD SWAP2 POP JUMPDEST POP SWAP3 POP POP POP PUSH1 0x40 MLOAD DUP1 SWAP2 SUB SWAP1 REVERT JUMPDEST POP POP POP SWAP1 SUB SWAP1 JUMP JUMPDEST PUSH1 0x0 DUP3 DUP3 ADD DUP4 DUP2 LT ISZERO PUSH2 0xD71 JUMPI PUSH1 0x40 DUP1 MLOAD PUSH3 0x461BCD PUSH1 0xE5 SHL DUP2 MSTORE PUSH1 0x20 PUSH1 0x4 DUP3 ADD MSTORE PUSH1 0x1B PUSH1 0x24 DUP3 ADD MSTORE PUSH27 0x536166654D6174683A206164646974696F6E206F766572666C6F77 PUSH1 0x28 SHL PUSH1 0x44 DUP3 ADD MSTORE SWAP1 MLOAD SWAP1 DUP2 SWAP1 SUB PUSH1 0x64 ADD SWAP1 REVERT JUMPDEST PUSH1 0x1 PUSH1 0x1 PUSH1 0xA0 SHL SUB DUP3 AND PUSH2 0x140C JUMPI PUSH1 0x40 DUP1 MLOAD PUSH3 0x461BCD PUSH1 0xE5 SHL DUP2 MSTORE PUSH1 0x20 PUSH1 0x4 DUP3 ADD MSTORE PUSH1 0x1F PUSH1 0x24 DUP3 ADD MSTORE PUSH32 0x42455032303A206D696E7420746F20746865207A65726F206164647265737300 PUSH1 0x44 DUP3 ADD MSTORE SWAP1 MLOAD SWAP1 DUP2 SWAP1 SUB PUSH1 0x64 ADD SWAP1 REVERT JUMPDEST PUSH1 0x3 SLOAD PUSH2 0x1419 SWAP1 DUP3 PUSH2 0x1359 JUMP JUMPDEST PUSH1 0x3 SSTORE PUSH1 0x1 PUSH1 0x1 PUSH1 0xA0 SHL SUB DUP3 AND PUSH1 0x0 SWAP1 DUP2 MSTORE PUSH1 0x1 PUSH1 0x20 MSTORE PUSH1 0x40 SWAP1 KECCAK256 SLOAD PUSH2 0x143F SWAP1 DUP3 PUSH2 0x1359 JUMP JUMPDEST PUSH1 0x1 PUSH1 0x1 PUSH1 0xA0 SHL SUB DUP4 AND PUSH1 0x0 DUP2 DUP2 MSTORE PUSH1 0x1 PUSH1 0x20 SWAP1 DUP2 MSTORE PUSH1 0x40 DUP1 DUP4 KECCAK256 SWAP5 SWAP1 SWAP5 SSTORE DUP4 MLOAD DUP6 DUP2 MSTORE SWAP4 MLOAD SWAP3 SWAP4 SWAP2 SWAP3 PUSH1 0x0 DUP1 MLOAD PUSH1 0x20 PUSH2 0x1B74 DUP4 CODECOPY DUP2 MLOAD SWAP2 MSTORE SWAP3 DUP2 SWAP1 SUB SWAP1 SWAP2 ADD SWAP1 LOG3 POP POP JUMP JUMPDEST DUP2 PUSH1 0x1 PUSH1 0x1 PUSH1 0xA0 SHL SUB AND DUP4 PUSH1 0x1 PUSH1 0x1 PUSH1 0xA0 SHL SUB AND EQ ISZERO DUP1 ISZERO PUSH2 0x14A7 JUMPI POP PUSH1 0x0 DUP2 GT JUMPDEST ISZERO PUSH2 0x15C2 JUMPI PUSH1 0x1 PUSH1 0x1 PUSH1 0xA0 SHL SUB DUP4 AND ISZERO PUSH2 0x1539 JUMPI PUSH1 0x1 PUSH1 0x1 PUSH1 0xA0 SHL SUB DUP4 AND PUSH1 0x0 SWAP1 DUP2 MSTORE PUSH1 0x9 PUSH1 0x20 MSTORE PUSH1 0x40 DUP2 KECCAK256 SLOAD PUSH4 0xFFFFFFFF AND SWAP1 DUP2 PUSH2 0x14E7 JUMPI PUSH1 0x0 PUSH2 0x1519 JUMP JUMPDEST PUSH1 0x1 PUSH1 0x1 PUSH1 0xA0 SHL SUB DUP6 AND PUSH1 0x0 SWAP1 DUP2 MSTORE PUSH1 0x8 PUSH1 0x20 SWAP1 DUP2 MSTORE PUSH1 0x40 DUP1 DUP4 KECCAK256 PUSH4 0xFFFFFFFF PUSH1 0x0 NOT DUP8 ADD AND DUP5 MSTORE SWAP1 SWAP2 MSTORE SWAP1 KECCAK256 PUSH1 0x1 ADD SLOAD JUMPDEST SWAP1 POP PUSH1 0x0 PUSH2 0x1527 DUP3 DUP6 PUSH2 0x17CC JUMP JUMPDEST SWAP1 POP PUSH2 0x1535 DUP7 DUP5 DUP5 DUP5 PUSH2 0x180E JUMP JUMPDEST POP POP POP JUMPDEST PUSH1 0x1 PUSH1 0x1 PUSH1 0xA0 SHL SUB DUP3 AND ISZERO PUSH2 0x15C2 JUMPI PUSH1 0x1 PUSH1 0x1 PUSH1 0xA0 SHL SUB DUP3 AND PUSH1 0x0 SWAP1 DUP2 MSTORE PUSH1 0x9 PUSH1 0x20 MSTORE PUSH1 0x40 DUP2 KECCAK256 SLOAD PUSH4 0xFFFFFFFF AND SWAP1 DUP2 PUSH2 0x1574 JUMPI PUSH1 0x0 PUSH2 0x15A6 JUMP JUMPDEST PUSH1 0x1 PUSH1 0x1 PUSH1 0xA0 SHL SUB DUP5 AND PUSH1 0x0 SWAP1 DUP2 MSTORE PUSH1 0x8 PUSH1 0x20 SWAP1 DUP2 MSTORE PUSH1 0x40 DUP1 DUP4 KECCAK256 PUSH4 0xFFFFFFFF PUSH1 0x0 NOT DUP8 ADD AND DUP5 MSTORE SWAP1 SWAP2 MSTORE SWAP1 KECCAK256 PUSH1 0x1 ADD SLOAD JUMPDEST SWAP1 POP PUSH1 0x0 PUSH2 0x15B4 DUP3 DUP6 PUSH2 0x1359 JUMP JUMPDEST SWAP1 POP PUSH2 0xFBF DUP6 DUP5 DUP5 DUP5 PUSH2 0x180E JUMP JUMPDEST POP POP POP JUMP JUMPDEST PUSH1 0x1 PUSH1 0x1 PUSH1 0xA0 SHL SUB DUP1 DUP4 AND PUSH1 0x0 SWAP1 DUP2 MSTORE PUSH1 0x7 PUSH1 0x20 MSTORE PUSH1 0x40 DUP2 KECCAK256 SLOAD SWAP1 SWAP2 AND SWAP1 PUSH2 0x15EE DUP5 PUSH2 0x859 JUMP JUMPDEST PUSH1 0x1 PUSH1 0x1 PUSH1 0xA0 SHL SUB DUP6 DUP2 AND PUSH1 0x0 DUP2 DUP2 MSTORE PUSH1 0x7 PUSH1 0x20 MSTORE PUSH1 0x40 DUP1 DUP3 KECCAK256 DUP1 SLOAD PUSH1 0x1 PUSH1 0x1 PUSH1 0xA0 SHL SUB NOT AND DUP10 DUP7 AND SWAP1 DUP2 OR SWAP1 SWAP2 SSTORE SWAP1 MLOAD SWAP5 SWAP6 POP SWAP4 SWAP3 DUP7 AND SWAP3 PUSH32 0x3134E8A2E6D97E929A7E54011EA5485D7D196DD5F0BA4D4EF95803E8E3FC257F SWAP2 SWAP1 LOG4 PUSH2 0x1656 DUP3 DUP5 DUP4 PUSH2 0x1485 JUMP JUMPDEST POP POP POP POP JUMP JUMPDEST PUSH1 0x1 PUSH1 0x1 PUSH1 0xA0 SHL SUB DUP3 AND PUSH2 0x16A1 JUMPI PUSH1 0x40 MLOAD PUSH3 0x461BCD PUSH1 0xE5 SHL DUP2 MSTORE PUSH1 0x4 ADD DUP1 DUP1 PUSH1 0x20 ADD DUP3 DUP2 SUB DUP3 MSTORE PUSH1 0x21 DUP2 MSTORE PUSH1 0x20 ADD DUP1 PUSH2 0x1BDC PUSH1 0x21 SWAP2 CODECOPY PUSH1 0x40 ADD SWAP2 POP POP PUSH1 0x40 MLOAD DUP1 SWAP2 SUB SWAP1 REVERT JUMPDEST PUSH2 0x16DE DUP2 PUSH1 0x40 MLOAD DUP1 PUSH1 0x60 ADD PUSH1 0x40 MSTORE DUP1 PUSH1 0x22 DUP2 MSTORE PUSH1 0x20 ADD PUSH2 0x1C5D PUSH1 0x22 SWAP2 CODECOPY PUSH1 0x1 PUSH1 0x1 PUSH1 0xA0 SHL SUB DUP6 AND PUSH1 0x0 SWAP1 DUP2 MSTORE PUSH1 0x1 PUSH1 0x20 MSTORE PUSH1 0x40 SWAP1 KECCAK256 SLOAD SWAP2 SWAP1 PUSH2 0x12C2 JUMP JUMPDEST PUSH1 0x1 PUSH1 0x1 PUSH1 0xA0 SHL SUB DUP4 AND PUSH1 0x0 SWAP1 DUP2 MSTORE PUSH1 0x1 PUSH1 0x20 MSTORE PUSH1 0x40 SWAP1 KECCAK256 SSTORE PUSH1 0x3 SLOAD PUSH2 0x1704 SWAP1 DUP3 PUSH2 0x17CC JUMP JUMPDEST PUSH1 0x3 SSTORE PUSH1 0x40 DUP1 MLOAD DUP3 DUP2 MSTORE SWAP1 MLOAD PUSH1 0x0 SWAP2 PUSH1 0x1 PUSH1 0x1 PUSH1 0xA0 SHL SUB DUP6 AND SWAP2 PUSH1 0x0 DUP1 MLOAD PUSH1 0x20 PUSH2 0x1B74 DUP4 CODECOPY DUP2 MLOAD SWAP2 MSTORE SWAP2 DUP2 SWAP1 SUB PUSH1 0x20 ADD SWAP1 LOG3 POP POP JUMP JUMPDEST CHAINID SWAP1 JUMP JUMPDEST PUSH1 0x1 PUSH1 0x1 PUSH1 0xA0 SHL SUB DUP2 AND PUSH2 0x1783 JUMPI PUSH1 0x40 MLOAD PUSH3 0x461BCD PUSH1 0xE5 SHL DUP2 MSTORE PUSH1 0x4 ADD DUP1 DUP1 PUSH1 0x20 ADD DUP3 DUP2 SUB DUP3 MSTORE PUSH1 0x26 DUP2 MSTORE PUSH1 0x20 ADD DUP1 PUSH2 0x1A51 PUSH1 0x26 SWAP2 CODECOPY PUSH1 0x40 ADD SWAP2 POP POP PUSH1 0x40 MLOAD DUP1 SWAP2 SUB SWAP1 REVERT JUMPDEST PUSH1 0x0 DUP1 SLOAD PUSH1 0x40 MLOAD PUSH1 0x1 PUSH1 0x1 PUSH1 0xA0 SHL SUB DUP1 DUP6 AND SWAP4 SWAP3 AND SWAP2 PUSH1 0x0 DUP1 MLOAD PUSH1 0x20 PUSH2 0x1B2E DUP4 CODECOPY DUP2 MLOAD SWAP2 MSTORE SWAP2 LOG3 PUSH1 0x0 DUP1 SLOAD PUSH1 0x1 PUSH1 0x1 PUSH1 0xA0 SHL SUB NOT AND PUSH1 0x1 PUSH1 0x1 PUSH1 0xA0 SHL SUB SWAP3 SWAP1 SWAP3 AND SWAP2 SWAP1 SWAP2 OR SWAP1 SSTORE JUMP JUMPDEST PUSH1 0x0 PUSH2 0xD71 DUP4 DUP4 PUSH1 0x40 MLOAD DUP1 PUSH1 0x40 ADD PUSH1 0x40 MSTORE DUP1 PUSH1 0x1E DUP2 MSTORE PUSH1 0x20 ADD PUSH32 0x536166654D6174683A207375627472616374696F6E206F766572666C6F770000 DUP2 MSTORE POP PUSH2 0x12C2 JUMP JUMPDEST PUSH1 0x0 PUSH2 0x1832 NUMBER PUSH1 0x40 MLOAD DUP1 PUSH1 0x60 ADD PUSH1 0x40 MSTORE DUP1 PUSH1 0x37 DUP2 MSTORE PUSH1 0x20 ADD PUSH2 0x1C26 PUSH1 0x37 SWAP2 CODECOPY PUSH2 0x1973 JUMP JUMPDEST SWAP1 POP PUSH1 0x0 DUP5 PUSH4 0xFFFFFFFF AND GT DUP1 ISZERO PUSH2 0x187B JUMPI POP PUSH1 0x1 PUSH1 0x1 PUSH1 0xA0 SHL SUB DUP6 AND PUSH1 0x0 SWAP1 DUP2 MSTORE PUSH1 0x8 PUSH1 0x20 SWAP1 DUP2 MSTORE PUSH1 0x40 DUP1 DUP4 KECCAK256 PUSH4 0xFFFFFFFF PUSH1 0x0 NOT DUP10 ADD DUP2 AND DUP6 MSTORE SWAP3 MSTORE SWAP1 SWAP2 KECCAK256 SLOAD DUP3 DUP3 AND SWAP2 AND EQ JUMPDEST ISZERO PUSH2 0x18B8 JUMPI PUSH1 0x1 PUSH1 0x1 PUSH1 0xA0 SHL SUB DUP6 AND PUSH1 0x0 SWAP1 DUP2 MSTORE PUSH1 0x8 PUSH1 0x20 SWAP1 DUP2 MSTORE PUSH1 0x40 DUP1 DUP4 KECCAK256 PUSH4 0xFFFFFFFF PUSH1 0x0 NOT DUP10 ADD AND DUP5 MSTORE SWAP1 SWAP2 MSTORE SWAP1 KECCAK256 PUSH1 0x1 ADD DUP3 SWAP1 SSTORE PUSH2 0x1929 JUMP JUMPDEST PUSH1 0x40 DUP1 MLOAD DUP1 DUP3 ADD DUP3 MSTORE PUSH4 0xFFFFFFFF DUP1 DUP5 AND DUP3 MSTORE PUSH1 0x20 DUP1 DUP4 ADD DUP7 DUP2 MSTORE PUSH1 0x1 PUSH1 0x1 PUSH1 0xA0 SHL SUB DUP11 AND PUSH1 0x0 DUP2 DUP2 MSTORE PUSH1 0x8 DUP5 MSTORE DUP7 DUP2 KECCAK256 DUP12 DUP7 AND DUP3 MSTORE DUP5 MSTORE DUP7 DUP2 KECCAK256 SWAP6 MLOAD DUP7 SLOAD SWAP1 DUP7 AND PUSH4 0xFFFFFFFF NOT SWAP2 DUP3 AND OR DUP8 SSTORE SWAP3 MLOAD PUSH1 0x1 SWAP7 DUP8 ADD SSTORE SWAP1 DUP2 MSTORE PUSH1 0x9 SWAP1 SWAP3 MSTORE SWAP4 SWAP1 KECCAK256 DUP1 SLOAD SWAP3 DUP9 ADD SWAP1 SWAP2 AND SWAP2 SWAP1 SWAP3 AND OR SWAP1 SSTORE JUMPDEST PUSH1 0x40 DUP1 MLOAD DUP5 DUP2 MSTORE PUSH1 0x20 DUP2 ADD DUP5 SWAP1 MSTORE DUP2 MLOAD PUSH1 0x1 PUSH1 0x1 PUSH1 0xA0 SHL SUB DUP9 AND SWAP3 PUSH32 0xDEC2BACDD2F05B59DE34DA9B523DFF8BE42E5E38E818C82FDB0BAE774387A724 SWAP3 DUP3 SWAP1 SUB ADD SWAP1 LOG2 POP POP POP POP POP JUMP JUMPDEST PUSH1 0x0 DUP2 PUSH1 0x1 PUSH1 0x20 SHL DUP5 LT PUSH2 0x19C8 JUMPI PUSH1 0x40 MLOAD PUSH3 0x461BCD PUSH1 0xE5 SHL DUP2 MSTORE PUSH1 0x20 PUSH1 0x4 DUP3 ADD DUP2 DUP2 MSTORE DUP4 MLOAD PUSH1 0x24 DUP5 ADD MSTORE DUP4 MLOAD SWAP1 SWAP3 DUP4 SWAP3 PUSH1 0x44 SWAP1 SWAP2 ADD SWAP2 SWAP1 DUP6 ADD SWAP1 DUP1 DUP4 DUP4 PUSH1 0x0 DUP4 ISZERO PUSH2 0x1316 JUMPI DUP2 DUP2 ADD MLOAD DUP4 DUP3 ADD MSTORE PUSH1 0x20 ADD PUSH2 0x12FE JUMP JUMPDEST POP SWAP2 SWAP3 SWAP2 POP POP JUMP JUMPDEST PUSH1 0x40 DUP1 MLOAD DUP1 DUP3 ADD SWAP1 SWAP2 MSTORE PUSH1 0x0 DUP1 DUP3 MSTORE PUSH1 0x20 DUP3 ADD MSTORE SWAP1 JUMP INVALID TIMESTAMP GASLIMIT POP ORIGIN ADDRESS GASPRICE KECCAK256 PUSH21 0x72616E736665722066726F6D20746865207A65726F KECCAK256 PUSH2 0x6464 PUSH19 0x65737342455032303A20617070726F76652066 PUSH19 0x6F6D20746865207A65726F2061646472657373 DUP13 0xAD SWAP6 PUSH9 0x7BA82C2CE50E74F7B7 SLOAD PUSH5 0x5E5117C3A5 0xBE 0xC8 ISZERO SHR SMOD 0x26 0xD5 DUP6 PUSH26 0x80A8664F776E61626C653A206E6577206F776E65722069732074 PUSH9 0x65207A65726F206164 PUSH5 0x726573734D SELFBALANCE SLOAD PUSH16 0x6B656E3A3A64656C6567617465427953 PUSH10 0x673A20696E76616C6964 KECCAK256 PUSH15 0x6F6E6365E48329057BFD03D55E49B5 SELFBALANCE SGT 0x2E CODECOPY 0xCF REVERT SWAP13 XOR KECCAK256 0xAD PUSH28 0x9D4C5307691425D15ADF4D47546F6B656E3A3A6765745072696F7256 PUSH16 0x7465733A206E6F742079657420646574 PUSH6 0x726D696E6564 TIMESTAMP GASLIMIT POP ORIGIN ADDRESS GASPRICE KECCAK256 PUSH21 0x72616E7366657220616D6F756E7420657863656564 PUSH20 0x20616C6C6F77616E63654F776E61626C653A2063 PUSH2 0x6C6C PUSH6 0x72206973206E PUSH16 0x7420746865206F776E65728BE0079C53 AND MSIZE EQ SGT DIFFICULTY 0xCD 0x1F 0xD0 LOG4 CALLCODE DUP5 NOT 0x49 PUSH32 0x9722A3DAAFE3B4186F6B6457E042455032303A207472616E7366657220616D6F PUSH22 0x6E7420657863656564732062616C616E6365DDF252AD SHL 0xE2 0xC8 SWAP12 PUSH10 0xC2B068FC378DAA952BA7 CALL PUSH4 0xC4A11628 CREATE2 GAS 0x4D CREATE2 0x23 0xB3 0xEF TIMESTAMP GASLIMIT POP ORIGIN ADDRESS GASPRICE KECCAK256 PUSH21 0x72616E7366657220746F20746865207A65726F2061 PUSH5 0x6472657373 TIMESTAMP GASLIMIT POP ORIGIN ADDRESS GASPRICE KECCAK256 PUSH5 0x6563726561 PUSH20 0x656420616C6C6F77616E63652062656C6F77207A PUSH6 0x726F42455032 ADDRESS GASPRICE KECCAK256 PUSH3 0x75726E KECCAK256 PUSH7 0x726F6D20746865 KECCAK256 PUSH27 0x65726F20616464726573734D47546F6B656E3A3A64656C65676174 PUSH6 0x42795369673A KECCAK256 PUSH20 0x69676E617475726520657870697265644D47546F PUSH12 0x656E3A3A5F77726974654368 PUSH6 0x636B706F696E PUSH21 0x3A20626C6F636B206E756D62657220657863656564 PUSH20 0x203332206269747342455032303A206275726E20 PUSH2 0x6D6F PUSH22 0x6E7420657863656564732062616C616E636542455032 ADDRESS GASPRICE KECCAK256 PUSH2 0x7070 PUSH19 0x6F766520746F20746865207A65726F20616464 PUSH19 0x6573734D47546F6B656E3A3A64656C65676174 PUSH6 0x42795369673A KECCAK256 PUSH10 0x6E76616C696420736967 PUSH15 0x6174757265A2646970667358221220 0xE6 LT 0xDF 0x2D 0xD9 0x2C 0x49 DUP9 0xA9 PUSH8 0xCEB84F39872353F1 SWAP13 0xCA LOG2 0xE1 CALLDATASIZE 0x1E 0xFB 0xF9 PUSH7 0x3A6070038C6473 PUSH16 0x6C634300060C00330000000000000000 "
        },
        "gasEstimates": {
          "creation": {
            "codeDepositCost": "1484600",
            "executionCost": "infinite",
            "totalCost": "infinite"
          },
          "external": {
            "DELEGATION_TYPEHASH()": "infinite",
            "DOMAIN_TYPEHASH()": "infinite",
            "allowance(address,address)": "1756",
            "approve(address,uint256)": "infinite",
            "balanceOf(address)": "1362",
            "burn(address,uint256)": "infinite",
            "checkpoints(address,uint32)": "2630",
            "decimals()": "1101",
            "decreaseAllowance(address,uint256)": "infinite",
            "delegate(address)": "infinite",
            "delegateBySig(address,uint256,uint256,uint8,bytes32,bytes32)": "infinite",
            "delegates(address)": "1326",
            "getCurrentVotes(address)": "2623",
            "getOwner()": "1380",
            "getPriorVotes(address,uint256)": "infinite",
            "increaseAllowance(address,uint256)": "infinite",
            "mint(address,uint256)": "infinite",
            "mint(uint256)": "infinite",
            "name()": "infinite",
            "nonces(address)": "1410",
            "numCheckpoints(address)": "1337",
            "owner()": "1367",
            "renounceOwnership()": "infinite",
            "symbol()": "infinite",
            "totalSupply()": "1020",
            "transfer(address,uint256)": "infinite",
            "transferFrom(address,address,uint256)": "infinite",
            "transferOwnership(address)": "infinite"
          },
          "internal": {
            "_delegate(address,address)": "infinite",
            "_moveDelegates(address,address,uint256)": "infinite",
            "_writeCheckpoint(address,uint32,uint256,uint256)": "infinite",
            "getChainId()": "14",
            "safe32(uint256,string memory)": "infinite"
          }
        },
        "methodIdentifiers": {
          "DELEGATION_TYPEHASH()": "e7a324dc",
          "DOMAIN_TYPEHASH()": "20606b70",
          "allowance(address,address)": "dd62ed3e",
          "approve(address,uint256)": "095ea7b3",
          "balanceOf(address)": "70a08231",
          "burn(address,uint256)": "9dc29fac",
          "checkpoints(address,uint32)": "f1127ed8",
          "decimals()": "313ce567",
          "decreaseAllowance(address,uint256)": "a457c2d7",
          "delegate(address)": "5c19a95c",
          "delegateBySig(address,uint256,uint256,uint8,bytes32,bytes32)": "c3cda520",
          "delegates(address)": "587cde1e",
          "getCurrentVotes(address)": "b4b5ea57",
          "getOwner()": "893d20e8",
          "getPriorVotes(address,uint256)": "782d6fe1",
          "increaseAllowance(address,uint256)": "39509351",
          "mint(address,uint256)": "40c10f19",
          "mint(uint256)": "a0712d68",
          "name()": "06fdde03",
          "nonces(address)": "7ecebe00",
          "numCheckpoints(address)": "6fcfff45",
          "owner()": "8da5cb5b",
          "renounceOwnership()": "715018a6",
          "symbol()": "95d89b41",
          "totalSupply()": "18160ddd",
          "transfer(address,uint256)": "a9059cbb",
          "transferFrom(address,address,uint256)": "23b872dd",
          "transferOwnership(address)": "f2fde38b"
        }
      },
      "storageLayout": {
        "storage": [
          {
            "astId": 34,
            "contract": "contracts/MGGovToken.sol:MockGovToken",
            "label": "_owner",
            "offset": 0,
            "slot": "0",
            "type": "t_address"
          },
          {
            "astId": 439,
            "contract": "contracts/MGGovToken.sol:MockGovToken",
            "label": "_balances",
            "offset": 0,
            "slot": "1",
            "type": "t_mapping(t_address,t_uint256)"
          },
          {
            "astId": 445,
            "contract": "contracts/MGGovToken.sol:MockGovToken",
            "label": "_allowances",
            "offset": 0,
            "slot": "2",
            "type": "t_mapping(t_address,t_mapping(t_address,t_uint256))"
          },
          {
            "astId": 447,
            "contract": "contracts/MGGovToken.sol:MockGovToken",
            "label": "_totalSupply",
            "offset": 0,
            "slot": "3",
            "type": "t_uint256"
          },
          {
            "astId": 449,
            "contract": "contracts/MGGovToken.sol:MockGovToken",
            "label": "_name",
            "offset": 0,
            "slot": "4",
            "type": "t_string_storage"
          },
          {
            "astId": 451,
            "contract": "contracts/MGGovToken.sol:MockGovToken",
            "label": "_symbol",
            "offset": 0,
            "slot": "5",
            "type": "t_string_storage"
          },
          {
            "astId": 453,
            "contract": "contracts/MGGovToken.sol:MockGovToken",
            "label": "_decimals",
            "offset": 0,
            "slot": "6",
            "type": "t_uint8"
          },
          {
            "astId": 1314,
            "contract": "contracts/MGGovToken.sol:MockGovToken",
            "label": "_delegates",
            "offset": 0,
            "slot": "7",
            "type": "t_mapping(t_address,t_address)"
          },
          {
            "astId": 1326,
            "contract": "contracts/MGGovToken.sol:MockGovToken",
            "label": "checkpoints",
            "offset": 0,
            "slot": "8",
            "type": "t_mapping(t_address,t_mapping(t_uint32,t_struct(Checkpoint)1319_storage))"
          },
          {
            "astId": 1331,
            "contract": "contracts/MGGovToken.sol:MockGovToken",
            "label": "numCheckpoints",
            "offset": 0,
            "slot": "9",
            "type": "t_mapping(t_address,t_uint32)"
          },
          {
            "astId": 1348,
            "contract": "contracts/MGGovToken.sol:MockGovToken",
            "label": "nonces",
            "offset": 0,
            "slot": "10",
            "type": "t_mapping(t_address,t_uint256)"
          }
        ],
        "types": {
          "t_address": {
            "encoding": "inplace",
            "label": "address",
            "numberOfBytes": "20"
          },
          "t_mapping(t_address,t_address)": {
            "encoding": "mapping",
            "key": "t_address",
            "label": "mapping(address => address)",
            "numberOfBytes": "32",
            "value": "t_address"
          },
          "t_mapping(t_address,t_mapping(t_address,t_uint256))": {
            "encoding": "mapping",
            "key": "t_address",
            "label": "mapping(address => mapping(address => uint256))",
            "numberOfBytes": "32",
            "value": "t_mapping(t_address,t_uint256)"
          },
          "t_mapping(t_address,t_mapping(t_uint32,t_struct(Checkpoint)1319_storage))": {
            "encoding": "mapping",
            "key": "t_address",
            "label": "mapping(address => mapping(uint32 => struct MockGovToken.Checkpoint))",
            "numberOfBytes": "32",
            "value": "t_mapping(t_uint32,t_struct(Checkpoint)1319_storage)"
          },
          "t_mapping(t_address,t_uint256)": {
            "encoding": "mapping",
            "key": "t_address",
            "label": "mapping(address => uint256)",
            "numberOfBytes": "32",
            "value": "t_uint256"
          },
          "t_mapping(t_address,t_uint32)": {
            "encoding": "mapping",
            "key": "t_address",
            "label": "mapping(address => uint32)",
            "numberOfBytes": "32",
            "value": "t_uint32"
          },
          "t_mapping(t_uint32,t_struct(Checkpoint)1319_storage)": {
            "encoding": "mapping",
            "key": "t_uint32",
            "label": "mapping(uint32 => struct MockGovToken.Checkpoint)",
            "numberOfBytes": "32",
            "value": "t_struct(Checkpoint)1319_storage"
          },
          "t_string_storage": {
            "encoding": "bytes",
            "label": "string",
            "numberOfBytes": "32"
          },
          "t_struct(Checkpoint)1319_storage": {
            "encoding": "inplace",
            "label": "struct MockGovToken.Checkpoint",
            "members": [
              {
                "astId": 1316,
                "contract": "contracts/MGGovToken.sol:MockGovToken",
                "label": "fromBlock",
                "offset": 0,
                "slot": "0",
                "type": "t_uint32"
              },
              {
                "astId": 1318,
                "contract": "contracts/MGGovToken.sol:MockGovToken",
                "label": "votes",
                "offset": 0,
                "slot": "1",
                "type": "t_uint256"
              }
            ],
            "numberOfBytes": "64"
          },
          "t_uint256": {
            "encoding": "inplace",
            "label": "uint256",
            "numberOfBytes": "32"
          },
          "t_uint32": {
            "encoding": "inplace",
            "label": "uint32",
            "numberOfBytes": "4"
          },
          "t_uint8": {
            "encoding": "inplace",
            "label": "uint8",
            "numberOfBytes": "1"
          }
        }
      },
      "userdoc": {
        "events": {
          "DelegateChanged(address,address,address)": {
            "notice": "An event thats emitted when an account changes its delegate"
          },
          "DelegateVotesChanged(address,uint256,uint256)": {
            "notice": "An event thats emitted when a delegate account's vote balance changes"
          }
        },
        "kind": "user",
        "methods": {
          "DELEGATION_TYPEHASH()": {
            "notice": "The EIP-712 typehash for the delegation struct used by the contract"
          },
          "DOMAIN_TYPEHASH()": {
            "notice": "The EIP-712 typehash for the contract's domain"
          },
          "checkpoints(address,uint32)": {
            "notice": "A record of votes checkpoints for each account, by index"
          },
          "delegate(address)": {
            "notice": "Delegate votes from `msg.sender` to `delegatee`"
          },
          "delegateBySig(address,uint256,uint256,uint8,bytes32,bytes32)": {
            "notice": "Delegates votes from signatory to `delegatee`"
          },
          "delegates(address)": {
            "notice": "Delegate votes from `msg.sender` to `delegatee`"
          },
          "getCurrentVotes(address)": {
            "notice": "Gets the current votes balance for `account`"
          },
          "getPriorVotes(address,uint256)": {
            "notice": "Determine the prior number of votes for an account as of a block number"
          },
          "nonces(address)": {
            "notice": "A record of states for signing / validating signatures"
          },
          "numCheckpoints(address)": {
            "notice": "The number of checkpoints for each account"
          }
        },
        "version": 1
      }
    }
  }
}