{
  "contracts/MockAccessControl.sol": {
    "Minion": {
      "abi": [
        {
          "inputs": [],
          "stateMutability": "nonpayable",
          "type": "constructor"
        },
        {
          "inputs": [],
          "name": "owner",
          "outputs": [
            {
              "internalType": "address",
              "name": "",
              "type": "address"
            }
          ],
          "stateMutability": "view",
          "type": "function"
        },
        {
          "inputs": [],
          "name": "pwn",
          "outputs": [],
          "stateMutability": "payable",
          "type": "function"
        },
        {
          "inputs": [],
          "name": "retrieve",
          "outputs": [],
          "stateMutability": "nonpayable",
          "type": "function"
        },
        {
          "inputs": [],
          "name": "timeVal",
          "outputs": [
            {
              "internalType": "uint256",
              "name": "",
              "type": "uint256"
            }
          ],
          "stateMutability": "view",
          "type": "function"
        },
        {
          "inputs": [
            {
              "internalType": "address",
              "name": "account",
              "type": "address"
            }
          ],
          "name": "verify",
          "outputs": [
            {
              "internalType": "bool",
              "name": "",
              "type": "bool"
            }
          ],
          "stateMutability": "view",
          "type": "function"
        }
      ],
      "devdoc": {
        "kind": "dev",
        "methods": {},
        "version": 1
      },
      "evm": {
        "bytecode": {
          "linkReferences": {},
          "object": "608060405234801561001057600080fd5b50600280546001600160a01b03191633179055610552806100326000396000f3fe60806040526004361061004a5760003560e01c80632e64cec11461004f57806363a9c3d7146100665780636f36a39d1461009b5780638da5cb5b146100b6578063dd365b8b146100ee575b600080fd5b34801561005b57600080fd5b506100646100f6565b005b34801561007257600080fd5b506100866100813660046104a4565b6101d6565b60405190151581526020015b60405180910390f35b3480156100a757600080fd5b50604051428152602001610092565b3480156100c257600080fd5b506002546100d6906001600160a01b031681565b6040516001600160a01b039091168152602001610092565b610064610244565b6002546001600160a01b0316331461014a5760405162461bcd60e51b815260206004820152601260248201527141726520796f7520746865206f776e65723f60701b60448201526064015b60405180910390fd5b6000471161019a5760405162461bcd60e51b815260206004820152601d60248201527f4e6f2062616c616e63652c20796f752067726565647920686f6f6d616e0000006044820152606401610141565b6002546040516001600160a01b03909116904780156108fc02916000818181858888f193505050501580156101d3573d6000803e3d6000fd5b50565b60006001600160a01b0382166102255760405162461bcd60e51b8152602060048201526014602482015273596f75207472796e6e6120747269636b206d653f60601b6044820152606401610141565b506001600160a01b031660009081526001602052604090205460ff1690565b323314156102a05760405162461bcd60e51b8152602060048201526024808201527f57656c6c20776520617265206e6f7420616c6c6f77696e6720454f41732c20736044820152636f72727960e01b6064820152608401610141565b333b156102fb5760405162461bcd60e51b8152602060048201526024808201527f57656c6c20776520646f6e277420616c6c6f7720436f6e7472616374732065696044820152633a3432b960e11b6064820152608401610141565b67016345785d8a00003410156103645760405162461bcd60e51b815260206004820152602860248201527f4d696e696d756d20436f6e747269627574696f6e206e6565646564206973203060448201526717189032ba3432b960c11b6064820152608401610141565b6702c68af0bb1400003411156103dc5760405162461bcd60e51b815260206004820152603760248201527f486f772064696420796f752067657420736f206d756368206d6f6e65793f204d60448201527630bc1030b63637bbb2b21034b9901817191032ba3432b960491b6064820152608401610141565b60006103e96078426104d4565b101580156104015750603c6103ff6078426104d4565b105b6104425760405162461bcd60e51b81526020600482015260126024820152714e6f74207468652072696768742074696d6560701b6044820152606401610141565b33600090815260208190526040812080543492906104619084906104f6565b909155505033600090815260208190526040902054670de0b6b3a7640000116104a257336000908152600160208190526040909120805460ff191690911790555b565b6000602082840312156104b657600080fd5b81356001600160a01b03811681146104cd57600080fd5b9392505050565b6000826104f157634e487b7160e01b600052601260045260246000fd5b500690565b6000821982111561051757634e487b7160e01b600052601160045260246000fd5b50019056fea2646970667358221220951ad46759d36569857a19a96ab8db5c6791f5d492504e43af413bfc95c820ec64736f6c634300080a0033",
          "opcodes": "PUSH1 0x80 PUSH1 0x40 MSTORE CALLVALUE DUP1 ISZERO PUSH2 0x10 JUMPI PUSH1 0x0 DUP1 REVERT JUMPDEST POP PUSH1 0x2 DUP1 SLOAD PUSH1 0x1 PUSH1 0x1 PUSH1 0xA0 SHL SUB NOT AND CALLER OR SWAP1 SSTORE PUSH2 0x552 DUP1 PUSH2 0x32 PUSH1 0x0 CODECOPY PUSH1 0x0 RETURN INVALID PUSH1 0x80 PUSH1 0x40 MSTORE PUSH1 0x4 CALLDATASIZE LT PUSH2 0x4A JUMPI PUSH1 0x0 CALLDATALOAD PUSH1 0xE0 SHR DUP1 PUSH4 0x2E64CEC1 EQ PUSH2 0x4F JUMPI DUP1 PUSH4 0x63A9C3D7 EQ PUSH2 0x66 JUMPI DUP1 PUSH4 0x6F36A39D EQ PUSH2 0x9B JUMPI DUP1 PUSH4 0x8DA5CB5B EQ PUSH2 0xB6 JUMPI DUP1 PUSH4 0xDD365B8B EQ PUSH2 0xEE JUMPI JUMPDEST PUSH1 0x0 DUP1 REVERT JUMPDEST CALLVALUE DUP1 ISZERO PUSH2 0x5B JUMPI PUSH1 0x0 DUP1 REVERT JUMPDEST POP PUSH2 0x64 PUSH2 0xF6 JUMP JUMPDEST STOP JUMPDEST CALLVALUE DUP1 ISZERO PUSH2 0x72 JUMPI PUSH1 0x0 DUP1 REVERT JUMPDEST POP PUSH2 0x86 PUSH2 0x81 CALLDATASIZE PUSH1 0x4 PUSH2 0x4A4 JUMP JUMPDEST PUSH2 0x1D6 JUMP JUMPDEST PUSH1 0x40 MLOAD SWAP1 ISZERO ISZERO DUP2 MSTORE PUSH1 0x20 ADD JUMPDEST PUSH1 0x40 MLOAD DUP1 SWAP2 SUB SWAP1 RETURN JUMPDEST CALLVALUE DUP1 ISZERO PUSH2 0xA7 JUMPI PUSH1 0x0 DUP1 REVERT JUMPDEST POP PUSH1 0x40 MLOAD TIMESTAMP DUP2 MSTORE PUSH1 0x20 ADD PUSH2 0x92 JUMP JUMPDEST CALLVALUE DUP1 ISZERO PUSH2 0xC2 JUMPI PUSH1 0x0 DUP1 REVERT JUMPDEST POP PUSH1 0x2 SLOAD PUSH2 0xD6 SWAP1 PUSH1 0x1 PUSH1 0x1 PUSH1 0xA0 SHL SUB AND DUP2 JUMP JUMPDEST PUSH1 0x40 MLOAD PUSH1 0x1 PUSH1 0x1 PUSH1 0xA0 SHL SUB SWAP1 SWAP2 AND DUP2 MSTORE PUSH1 0x20 ADD PUSH2 0x92 JUMP JUMPDEST PUSH2 0x64 PUSH2 0x244 JUMP JUMPDEST PUSH1 0x2 SLOAD PUSH1 0x1 PUSH1 0x1 PUSH1 0xA0 SHL SUB AND CALLER EQ PUSH2 0x14A JUMPI PUSH1 0x40 MLOAD PUSH3 0x461BCD PUSH1 0xE5 SHL DUP2 MSTORE PUSH1 0x20 PUSH1 0x4 DUP3 ADD MSTORE PUSH1 0x12 PUSH1 0x24 DUP3 ADD MSTORE PUSH18 0x41726520796F7520746865206F776E65723F PUSH1 0x70 SHL PUSH1 0x44 DUP3 ADD MSTORE PUSH1 0x64 ADD JUMPDEST PUSH1 0x40 MLOAD DUP1 SWAP2 SUB SWAP1 REVERT JUMPDEST PUSH1 0x0 SELFBALANCE GT PUSH2 0x19A JUMPI PUSH1 0x40 MLOAD PUSH3 0x461BCD PUSH1 0xE5 SHL DUP2 MSTORE PUSH1 0x20 PUSH1 0x4 DUP3 ADD MSTORE PUSH1 0x1D PUSH1 0x24 DUP3 ADD MSTORE PUSH32 0x4E6F2062616C616E63652C20796F752067726565647920686F6F6D616E000000 PUSH1 0x44 DUP3 ADD MSTORE PUSH1 0x64 ADD PUSH2 0x141 JUMP JUMPDEST PUSH1 0x2 SLOAD PUSH1 0x40 MLOAD PUSH1 0x1 PUSH1 0x1 PUSH1 0xA0 SHL SUB SWAP1 SWAP2 AND SWAP1 SELFBALANCE DUP1 ISZERO PUSH2 0x8FC MUL SWAP2 PUSH1 0x0 DUP2 DUP2 DUP2 DUP6 DUP9 DUP9 CALL SWAP4 POP POP POP POP ISZERO DUP1 ISZERO PUSH2 0x1D3 JUMPI RETURNDATASIZE PUSH1 0x0 DUP1 RETURNDATACOPY RETURNDATASIZE PUSH1 0x0 REVERT JUMPDEST POP JUMP JUMPDEST PUSH1 0x0 PUSH1 0x1 PUSH1 0x1 PUSH1 0xA0 SHL SUB DUP3 AND PUSH2 0x225 JUMPI PUSH1 0x40 MLOAD PUSH3 0x461BCD PUSH1 0xE5 SHL DUP2 MSTORE PUSH1 0x20 PUSH1 0x4 DUP3 ADD MSTORE PUSH1 0x14 PUSH1 0x24 DUP3 ADD MSTORE PUSH20 0x596F75207472796E6E6120747269636B206D653F PUSH1 0x60 SHL PUSH1 0x44 DUP3 ADD MSTORE PUSH1 0x64 ADD PUSH2 0x141 JUMP JUMPDEST POP PUSH1 0x1 PUSH1 0x1 PUSH1 0xA0 SHL SUB AND PUSH1 0x0 SWAP1 DUP2 MSTORE PUSH1 0x1 PUSH1 0x20 MSTORE PUSH1 0x40 SWAP1 KECCAK256 SLOAD PUSH1 0xFF AND SWAP1 JUMP JUMPDEST ORIGIN CALLER EQ ISZERO PUSH2 0x2A0 JUMPI PUSH1 0x40 MLOAD PUSH3 0x461BCD PUSH1 0xE5 SHL DUP2 MSTORE PUSH1 0x20 PUSH1 0x4 DUP3 ADD MSTORE PUSH1 0x24 DUP1 DUP3 ADD MSTORE PUSH32 0x57656C6C20776520617265206E6F7420616C6C6F77696E6720454F41732C2073 PUSH1 0x44 DUP3 ADD MSTORE PUSH4 0x6F727279 PUSH1 0xE0 SHL PUSH1 0x64 DUP3 ADD MSTORE PUSH1 0x84 ADD PUSH2 0x141 JUMP JUMPDEST CALLER EXTCODESIZE ISZERO PUSH2 0x2FB JUMPI PUSH1 0x40 MLOAD PUSH3 0x461BCD PUSH1 0xE5 SHL DUP2 MSTORE PUSH1 0x20 PUSH1 0x4 DUP3 ADD MSTORE PUSH1 0x24 DUP1 DUP3 ADD MSTORE PUSH32 0x57656C6C20776520646F6E277420616C6C6F7720436F6E747261637473206569 PUSH1 0x44 DUP3 ADD MSTORE PUSH4 0x3A3432B9 PUSH1 0xE1 SHL PUSH1 0x64 DUP3 ADD MSTORE PUSH1 0x84 ADD PUSH2 0x141 JUMP JUMPDEST PUSH8 0x16345785D8A0000 CALLVALUE LT ISZERO PUSH2 0x364 JUMPI PUSH1 0x40 MLOAD PUSH3 0x461BCD PUSH1 0xE5 SHL DUP2 MSTORE PUSH1 0x20 PUSH1 0x4 DUP3 ADD MSTORE PUSH1 0x28 PUSH1 0x24 DUP3 ADD MSTORE PUSH32 0x4D696E696D756D20436F6E747269627574696F6E206E65656465642069732030 PUSH1 0x44 DUP3 ADD MSTORE PUSH8 0x17189032BA3432B9 PUSH1 0xC1 SHL PUSH1 0x64 DUP3 ADD MSTORE PUSH1 0x84 ADD PUSH2 0x141 JUMP JUMPDEST PUSH8 0x2C68AF0BB140000 CALLVALUE GT ISZERO PUSH2 0x3DC JUMPI PUSH1 0x40 MLOAD PUSH3 0x461BCD PUSH1 0xE5 SHL DUP2 MSTORE PUSH1 0x20 PUSH1 0x4 DUP3 ADD MSTORE PUSH1 0x37 PUSH1 0x24 DUP3 ADD MSTORE PUSH32 0x486F772064696420796F752067657420736F206D756368206D6F6E65793F204D PUSH1 0x44 DUP3 ADD MSTORE PUSH23 0x30BC1030B63637BBB2B21034B9901817191032BA3432B9 PUSH1 0x49 SHL PUSH1 0x64 DUP3 ADD MSTORE PUSH1 0x84 ADD PUSH2 0x141 JUMP JUMPDEST PUSH1 0x0 PUSH2 0x3E9 PUSH1 0x78 TIMESTAMP PUSH2 0x4D4 JUMP JUMPDEST LT ISZERO DUP1 ISZERO PUSH2 0x401 JUMPI POP PUSH1 0x3C PUSH2 0x3FF PUSH1 0x78 TIMESTAMP PUSH2 0x4D4 JUMP JUMPDEST LT JUMPDEST PUSH2 0x442 JUMPI PUSH1 0x40 MLOAD PUSH3 0x461BCD PUSH1 0xE5 SHL DUP2 MSTORE PUSH1 0x20 PUSH1 0x4 DUP3 ADD MSTORE PUSH1 0x12 PUSH1 0x24 DUP3 ADD MSTORE PUSH18 0x4E6F74207468652072696768742074696D65 PUSH1 0x70 SHL PUSH1 0x44 DUP3 ADD MSTORE PUSH1 0x64 ADD PUSH2 0x141 JUMP JUMPDEST CALLER PUSH1 0x0 SWAP1 DUP2 MSTORE PUSH1 0x20 DUP2 SWAP1 MSTORE PUSH1 0x40 DUP2 KECCAK256 DUP1 SLOAD CALLVALUE SWAP3 SWAP1 PUSH2 0x461 SWAP1 DUP5 SWAP1 PUSH2 0x4F6 JUMP JUMPDEST SWAP1 SWAP2 SSTORE POP POP CALLER PUSH1 0x0 SWAP1 DUP2 MSTORE PUSH1 0x20 DUP2 SWAP1 MSTORE PUSH1 0x40 SWAP1 KECCAK256 SLOAD PUSH8 0xDE0B6B3A7640000 GT PUSH2 0x4A2 JUMPI CALLER PUSH1 0x0 SWAP1 DUP2 MSTORE PUSH1 0x1 PUSH1 0x20 DUP2 SWAP1 MSTORE PUSH1 0x40 SWAP1 SWAP2 KECCAK256 DUP1 SLOAD PUSH1 0xFF NOT AND SWAP1 SWAP2 OR SWAP1 SSTORE JUMPDEST JUMP JUMPDEST PUSH1 0x0 PUSH1 0x20 DUP3 DUP5 SUB SLT ISZERO PUSH2 0x4B6 JUMPI PUSH1 0x0 DUP1 REVERT JUMPDEST DUP2 CALLDATALOAD PUSH1 0x1 PUSH1 0x1 PUSH1 0xA0 SHL SUB DUP2 AND DUP2 EQ PUSH2 0x4CD JUMPI PUSH1 0x0 DUP1 REVERT JUMPDEST SWAP4 SWAP3 POP POP POP JUMP JUMPDEST PUSH1 0x0 DUP3 PUSH2 0x4F1 JUMPI PUSH4 0x4E487B71 PUSH1 0xE0 SHL PUSH1 0x0 MSTORE PUSH1 0x12 PUSH1 0x4 MSTORE PUSH1 0x24 PUSH1 0x0 REVERT JUMPDEST POP MOD SWAP1 JUMP JUMPDEST PUSH1 0x0 DUP3 NOT DUP3 GT ISZERO PUSH2 0x517 JUMPI PUSH4 0x4E487B71 PUSH1 0xE0 SHL PUSH1 0x0 MSTORE PUSH1 0x11 PUSH1 0x4 MSTORE PUSH1 0x24 PUSH1 0x0 REVERT JUMPDEST POP ADD SWAP1 JUMP INVALID LOG2 PUSH5 0x6970667358 0x22 SLT KECCAK256 SWAP6 BYTE 0xD4 PUSH8 0x59D36569857A19A9 PUSH11 0xB8DB5C6791F5D492504E43 0xAF COINBASE EXTCODESIZE 0xFC SWAP6 0xC8 KECCAK256 0xEC PUSH5 0x736F6C6343 STOP ADDMOD EXP STOP CALLER "
        },
        "gasEstimates": {
          "creation": {
            "codeDepositCost": "272400",
            "executionCost": "24547",
            "totalCost": "296947"
          },
          "external": {
            "owner()": "2381",
            "pwn()": "infinite",
            "retrieve()": "infinite",
            "timeVal()": "198",
            "verify(address)": "2555"
          },
          "internal": {
            "isContract(address)": "infinite"
          }
        },
        "methodIdentifiers": {
          "owner()": "8da5cb5b",
          "pwn()": "dd365b8b",
          "retrieve()": "2e64cec1",
          "timeVal()": "6f36a39d",
          "verify(address)": "63a9c3d7"
        }
      },
      "storageLayout": {
        "storage": [
          {
            "astId": 5,
            "contract": "contracts/MockAccessControl.sol:Minion",
            "label": "contributionAmount",
            "offset": 0,
            "slot": "0",
            "type": "t_mapping(t_address,t_uint256)"
          },
          {
            "astId": 9,
            "contract": "contracts/MockAccessControl.sol:Minion",
            "label": "pwned",
            "offset": 0,
            "slot": "1",
            "type": "t_mapping(t_address,t_bool)"
          },
          {
            "astId": 11,
            "contract": "contracts/MockAccessControl.sol:Minion",
            "label": "owner",
            "offset": 0,
            "slot": "2",
            "type": "t_address"
          }
        ],
        "types": {
          "t_address": {
            "encoding": "inplace",
            "label": "address",
            "numberOfBytes": "20"
          },
          "t_bool": {
            "encoding": "inplace",
            "label": "bool",
            "numberOfBytes": "1"
          },
          "t_mapping(t_address,t_bool)": {
            "encoding": "mapping",
            "key": "t_address",
            "label": "mapping(address => bool)",
            "numberOfBytes": "32",
            "value": "t_bool"
          },
          "t_mapping(t_address,t_uint256)": {
            "encoding": "mapping",
            "key": "t_address",
            "label": "mapping(address => uint256)",
            "numberOfBytes": "32",
            "value": "t_uint256"
          },
          "t_uint256": {
            "encoding": "inplace",
            "label": "uint256",
            "numberOfBytes": "32"
          }
        }
      },
      "userdoc": {
        "kind": "user",
        "methods": {},
        "version": 1
      }
    }
  }
}