{
  "_format": "hh-sol-artifact-1",
  "contractName": "Minion",
  "sourceName": "contracts/MockAccessControl.sol",
  "abi": [
    {
      "inputs": [],
      "stateMutability": "nonpayable",
      "type": "constructor"
    },
    {
      "inputs": [],
      "name": "owner",
      "outputs": [
        {
          "internalType": "address",
          "name": "",
          "type": "address"
        }
      ],
      "stateMutability": "view",
      "type": "function"
    },
    {
      "inputs": [],
      "name": "pwn",
      "outputs": [],
      "stateMutability": "payable",
      "type": "function"
    },
    {
      "inputs": [],
      "name": "retrieve",
      "outputs": [],
      "stateMutability": "nonpayable",
      "type": "function"
    },
    {
      "inputs": [],
      "name": "timeVal",
      "outputs": [
        {
          "internalType": "uint256",
          "name": "",
          "type": "uint256"
        }
      ],
      "stateMutability": "view",
      "type": "function"
    },
    {
      "inputs": [
        {
          "internalType": "address",
          "name": "account",
          "type": "address"
        }
      ],
      "name": "verify",
      "outputs": [
        {
          "internalType": "bool",
          "name": "",
          "type": "bool"
        }
      ],
      "stateMutability": "view",
      "type": "function"
    }
  ],
  "bytecode": "0x608060405234801561001057600080fd5b50600280546001600160a01b03191633179055610552806100326000396000f3fe60806040526004361061004a5760003560e01c80632e64cec11461004f57806363a9c3d7146100665780636f36a39d1461009b5780638da5cb5b146100b6578063dd365b8b146100ee575b600080fd5b34801561005b57600080fd5b506100646100f6565b005b34801561007257600080fd5b506100866100813660046104a4565b6101d6565b60405190151581526020015b60405180910390f35b3480156100a757600080fd5b50604051428152602001610092565b3480156100c257600080fd5b506002546100d6906001600160a01b031681565b6040516001600160a01b039091168152602001610092565b610064610244565b6002546001600160a01b0316331461014a5760405162461bcd60e51b815260206004820152601260248201527141726520796f7520746865206f776e65723f60701b60448201526064015b60405180910390fd5b6000471161019a5760405162461bcd60e51b815260206004820152601d60248201527f4e6f2062616c616e63652c20796f752067726565647920686f6f6d616e0000006044820152606401610141565b6002546040516001600160a01b03909116904780156108fc02916000818181858888f193505050501580156101d3573d6000803e3d6000fd5b50565b60006001600160a01b0382166102255760405162461bcd60e51b8152602060048201526014602482015273596f75207472796e6e6120747269636b206d653f60601b6044820152606401610141565b506001600160a01b031660009081526001602052604090205460ff1690565b323314156102a05760405162461bcd60e51b8152602060048201526024808201527f57656c6c20776520617265206e6f7420616c6c6f77696e6720454f41732c20736044820152636f72727960e01b6064820152608401610141565b333b156102fb5760405162461bcd60e51b8152602060048201526024808201527f57656c6c20776520646f6e277420616c6c6f7720436f6e7472616374732065696044820152633a3432b960e11b6064820152608401610141565b67016345785d8a00003410156103645760405162461bcd60e51b815260206004820152602860248201527f4d696e696d756d20436f6e747269627574696f6e206e6565646564206973203060448201526717189032ba3432b960c11b6064820152608401610141565b6702c68af0bb1400003411156103dc5760405162461bcd60e51b815260206004820152603760248201527f486f772064696420796f752067657420736f206d756368206d6f6e65793f204d60448201527630bc1030b63637bbb2b21034b9901817191032ba3432b960491b6064820152608401610141565b60006103e96078426104d4565b101580156104015750603c6103ff6078426104d4565b105b6104425760405162461bcd60e51b81526020600482015260126024820152714e6f74207468652072696768742074696d6560701b6044820152606401610141565b33600090815260208190526040812080543492906104619084906104f6565b909155505033600090815260208190526040902054670de0b6b3a7640000116104a257336000908152600160208190526040909120805460ff191690911790555b565b6000602082840312156104b657600080fd5b81356001600160a01b03811681146104cd57600080fd5b9392505050565b6000826104f157634e487b7160e01b600052601260045260246000fd5b500690565b6000821982111561051757634e487b7160e01b600052601160045260246000fd5b50019056fea2646970667358221220f603d4c0c7b21babd416e01fa9459db604e5e4eba0189c7fe115e1fdbdf92d5564736f6c634300080a0033",
  "linkReferences": {},
  "deployedLinkReferences": {}
}