{
  "_format": "hh-sol-artifact-1",
  "contractName": "MockGovToken",
  "sourceName": "contracts/MGGovToken.sol",
  "abi": [
    {
      "inputs": [
        {
          "internalType": "address",
          "name": "router",
          "type": "address"
        }
      ],
      "stateMutability": "nonpayable",
      "type": "constructor"
    },
    {
      "anonymous": false,
      "inputs": [
        {
          "indexed": true,
          "internalType": "address",
          "name": "owner",
          "type": "address"
        },
        {
          "indexed": true,
          "internalType": "address",
          "name": "spender",
          "type": "address"
        },
        {
          "indexed": false,
          "internalType": "uint256",
          "name": "value",
          "type": "uint256"
        }
      ],
      "name": "Approval",
      "type": "event"
    },
    {
      "anonymous": false,
      "inputs": [
        {
          "indexed": true,
          "internalType": "address",
          "name": "delegator",
          "type": "address"
        },
        {
          "indexed": true,
          "internalType": "address",
          "name": "fromDelegate",
          "type": "address"
        },
        {
          "indexed": true,
          "internalType": "address",
          "name": "toDelegate",
          "type": "address"
        }
      ],
      "name": "DelegateChanged",
      "type": "event"
    },
    {
      "anonymous": false,
      "inputs": [
        {
          "indexed": true,
          "internalType": "address",
          "name": "delegate",
          "type": "address"
        },
        {
          "indexed": false,
          "internalType": "uint256",
          "name": "previousBalance",
          "type": "uint256"
        },
        {
          "indexed": false,
          "internalType": "uint256",
          "name": "newBalance",
          "type": "uint256"
        }
      ],
      "name": "DelegateVotesChanged",
      "type": "event"
    },
    {
      "anonymous": false,
      "inputs": [
        {
          "indexed": true,
          "internalType": "address",
          "name": "previousOwner",
          "type": "address"
        },
        {
          "indexed": true,
          "internalType": "address",
          "name": "newOwner",
          "type": "address"
        }
      ],
      "name": "OwnershipTransferred",
      "type": "event"
    },
    {
      "anonymous": false,
      "inputs": [
        {
          "indexed": true,
          "internalType": "address",
          "name": "from",
          "type": "address"
        },
        {
          "indexed": true,
          "internalType": "address",
          "name": "to",
          "type": "address"
        },
        {
          "indexed": false,
          "internalType": "uint256",
          "name": "value",
          "type": "uint256"
        }
      ],
      "name": "Transfer",
      "type": "event"
    },
    {
      "inputs": [],
      "name": "DELEGATION_TYPEHASH",
      "outputs": [
        {
          "internalType": "bytes32",
          "name": "",
          "type": "bytes32"
        }
      ],
      "stateMutability": "view",
      "type": "function"
    },
    {
      "inputs": [],
      "name": "DOMAIN_TYPEHASH",
      "outputs": [
        {
          "internalType": "bytes32",
          "name": "",
          "type": "bytes32"
        }
      ],
      "stateMutability": "view",
      "type": "function"
    },
    {
      "inputs": [],
      "name": "_pairWeth",
      "outputs": [
        {
          "internalType": "address",
          "name": "",
          "type": "address"
        }
      ],
      "stateMutability": "view",
      "type": "function"
    },
    {
      "inputs": [],
      "name": "_router",
      "outputs": [
        {
          "internalType": "address",
          "name": "",
          "type": "address"
        }
      ],
      "stateMutability": "view",
      "type": "function"
    },
    {
      "inputs": [
        {
          "internalType": "address",
          "name": "owner",
          "type": "address"
        },
        {
          "internalType": "address",
          "name": "spender",
          "type": "address"
        }
      ],
      "name": "allowance",
      "outputs": [
        {
          "internalType": "uint256",
          "name": "",
          "type": "uint256"
        }
      ],
      "stateMutability": "view",
      "type": "function"
    },
    {
      "inputs": [
        {
          "internalType": "address",
          "name": "spender",
          "type": "address"
        },
        {
          "internalType": "uint256",
          "name": "amount",
          "type": "uint256"
        }
      ],
      "name": "approve",
      "outputs": [
        {
          "internalType": "bool",
          "name": "",
          "type": "bool"
        }
      ],
      "stateMutability": "nonpayable",
      "type": "function"
    },
    {
      "inputs": [
        {
          "internalType": "address",
          "name": "account",
          "type": "address"
        }
      ],
      "name": "balanceOf",
      "outputs": [
        {
          "internalType": "uint256",
          "name": "",
          "type": "uint256"
        }
      ],
      "stateMutability": "view",
      "type": "function"
    },
    {
      "inputs": [
        {
          "internalType": "address",
          "name": "_from",
          "type": "address"
        },
        {
          "internalType": "uint256",
          "name": "_amount",
          "type": "uint256"
        }
      ],
      "name": "burnFunc",
      "outputs": [],
      "stateMutability": "nonpayable",
      "type": "function"
    },
    {
      "inputs": [
        {
          "internalType": "address",
          "name": "",
          "type": "address"
        },
        {
          "internalType": "uint32",
          "name": "",
          "type": "uint32"
        }
      ],
      "name": "checkpoints",
      "outputs": [
        {
          "internalType": "uint32",
          "name": "fromBlock",
          "type": "uint32"
        },
        {
          "internalType": "uint256",
          "name": "votes",
          "type": "uint256"
        }
      ],
      "stateMutability": "view",
      "type": "function"
    },
    {
      "inputs": [],
      "name": "decimals",
      "outputs": [
        {
          "internalType": "uint8",
          "name": "",
          "type": "uint8"
        }
      ],
      "stateMutability": "view",
      "type": "function"
    },
    {
      "inputs": [
        {
          "internalType": "address",
          "name": "spender",
          "type": "address"
        },
        {
          "internalType": "uint256",
          "name": "subtractedValue",
          "type": "uint256"
        }
      ],
      "name": "decreaseAllowance",
      "outputs": [
        {
          "internalType": "bool",
          "name": "",
          "type": "bool"
        }
      ],
      "stateMutability": "nonpayable",
      "type": "function"
    },
    {
      "inputs": [
        {
          "internalType": "address",
          "name": "delegatee",
          "type": "address"
        }
      ],
      "name": "delegate",
      "outputs": [],
      "stateMutability": "nonpayable",
      "type": "function"
    },
    {
      "inputs": [
        {
          "internalType": "address",
          "name": "delegatee",
          "type": "address"
        },
        {
          "internalType": "uint256",
          "name": "nonce",
          "type": "uint256"
        },
        {
          "internalType": "uint256",
          "name": "expiry",
          "type": "uint256"
        },
        {
          "internalType": "uint8",
          "name": "v",
          "type": "uint8"
        },
        {
          "internalType": "bytes32",
          "name": "r",
          "type": "bytes32"
        },
        {
          "internalType": "bytes32",
          "name": "s",
          "type": "bytes32"
        }
      ],
      "name": "delegateBySig",
      "outputs": [],
      "stateMutability": "nonpayable",
      "type": "function"
    },
    {
      "inputs": [
        {
          "internalType": "address",
          "name": "delegator",
          "type": "address"
        }
      ],
      "name": "delegates",
      "outputs": [
        {
          "internalType": "address",
          "name": "",
          "type": "address"
        }
      ],
      "stateMutability": "view",
      "type": "function"
    },
    {
      "inputs": [],
      "name": "getCurrentTime",
      "outputs": [
        {
          "internalType": "uint256",
          "name": "",
          "type": "uint256"
        }
      ],
      "stateMutability": "view",
      "type": "function"
    },
    {
      "inputs": [
        {
          "internalType": "address",
          "name": "account",
          "type": "address"
        }
      ],
      "name": "getCurrentVotes",
      "outputs": [
        {
          "internalType": "uint256",
          "name": "",
          "type": "uint256"
        }
      ],
      "stateMutability": "view",
      "type": "function"
    },
    {
      "inputs": [],
      "name": "getOwner",
      "outputs": [
        {
          "internalType": "address",
          "name": "",
          "type": "address"
        }
      ],
      "stateMutability": "view",
      "type": "function"
    },
    {
      "inputs": [
        {
          "internalType": "address",
          "name": "account",
          "type": "address"
        },
        {
          "internalType": "uint256",
          "name": "blockNumber",
          "type": "uint256"
        }
      ],
      "name": "getPriorVotes",
      "outputs": [
        {
          "internalType": "uint256",
          "name": "",
          "type": "uint256"
        }
      ],
      "stateMutability": "view",
      "type": "function"
    },
    {
      "inputs": [
        {
          "internalType": "address",
          "name": "spender",
          "type": "address"
        },
        {
          "internalType": "uint256",
          "name": "addedValue",
          "type": "uint256"
        }
      ],
      "name": "increaseAllowance",
      "outputs": [
        {
          "internalType": "bool",
          "name": "",
          "type": "bool"
        }
      ],
      "stateMutability": "nonpayable",
      "type": "function"
    },
    {
      "inputs": [
        {
          "internalType": "uint256",
          "name": "amount",
          "type": "uint256"
        }
      ],
      "name": "mint",
      "outputs": [
        {
          "internalType": "bool",
          "name": "",
          "type": "bool"
        }
      ],
      "stateMutability": "nonpayable",
      "type": "function"
    },
    {
      "inputs": [
        {
          "internalType": "address",
          "name": "_to",
          "type": "address"
        },
        {
          "internalType": "uint256",
          "name": "_amount",
          "type": "uint256"
        }
      ],
      "name": "mintFunc",
      "outputs": [],
      "stateMutability": "nonpayable",
      "type": "function"
    },
    {
      "inputs": [],
      "name": "name",
      "outputs": [
        {
          "internalType": "string",
          "name": "",
          "type": "string"
        }
      ],
      "stateMutability": "view",
      "type": "function"
    },
    {
      "inputs": [
        {
          "internalType": "address",
          "name": "",
          "type": "address"
        }
      ],
      "name": "nonces",
      "outputs": [
        {
          "internalType": "uint256",
          "name": "",
          "type": "uint256"
        }
      ],
      "stateMutability": "view",
      "type": "function"
    },
    {
      "inputs": [
        {
          "internalType": "address",
          "name": "",
          "type": "address"
        }
      ],
      "name": "numCheckpoints",
      "outputs": [
        {
          "internalType": "uint32",
          "name": "",
          "type": "uint32"
        }
      ],
      "stateMutability": "view",
      "type": "function"
    },
    {
      "inputs": [],
      "name": "owner",
      "outputs": [
        {
          "internalType": "address",
          "name": "",
          "type": "address"
        }
      ],
      "stateMutability": "view",
      "type": "function"
    },
    {
      "inputs": [],
      "name": "renounceOwnership",
      "outputs": [],
      "stateMutability": "nonpayable",
      "type": "function"
    },
    {
      "inputs": [],
      "name": "symbol",
      "outputs": [
        {
          "internalType": "string",
          "name": "",
          "type": "string"
        }
      ],
      "stateMutability": "view",
      "type": "function"
    },
    {
      "inputs": [],
      "name": "totalSupply",
      "outputs": [
        {
          "internalType": "uint256",
          "name": "",
          "type": "uint256"
        }
      ],
      "stateMutability": "view",
      "type": "function"
    },
    {
      "inputs": [
        {
          "internalType": "address",
          "name": "recipient",
          "type": "address"
        },
        {
          "internalType": "uint256",
          "name": "amount",
          "type": "uint256"
        }
      ],
      "name": "transfer",
      "outputs": [
        {
          "internalType": "bool",
          "name": "",
          "type": "bool"
        }
      ],
      "stateMutability": "nonpayable",
      "type": "function"
    },
    {
      "inputs": [
        {
          "internalType": "address",
          "name": "sender",
          "type": "address"
        },
        {
          "internalType": "address",
          "name": "recipient",
          "type": "address"
        },
        {
          "internalType": "uint256",
          "name": "amount",
          "type": "uint256"
        }
      ],
      "name": "transferFrom",
      "outputs": [
        {
          "internalType": "bool",
          "name": "",
          "type": "bool"
        }
      ],
      "stateMutability": "nonpayable",
      "type": "function"
    },
    {
      "inputs": [
        {
          "internalType": "address",
          "name": "newOwner",
          "type": "address"
        }
      ],
      "name": "transferOwnership",
      "outputs": [],
      "stateMutability": "nonpayable",
      "type": "function"
    }
  ],
  "bytecode": "0x60806040526b033b2e3c9fd0803ce80000006007553480156200002157600080fd5b5060405162001fae38038062001fae8339810160408190526200004491620003b3565b6040518060400160405280600c81526020016b26b7b1b5a3b7bb2a37b5b2b760a11b8152506040518060400160405280600781526020016626a3aa37b5b2b760c91b815250620000a36200009d620002b960201b60201c565b620002bd565b8151620000b89060049060208501906200030d565b508051620000ce9060059060208401906200030d565b50506006805460ff1916601217905550600880546001600160a01b0383166001600160a01b031990911681179091556040805163c45a015560e01b815290516000929163c45a0155916004808301926020929190829003018186803b1580156200013757600080fd5b505afa1580156200014c573d6000803e3d6000fd5b505050506040513d601f19601f82011682018060405250810190620001729190620003b3565b9050806001600160a01b031663c9c65396600860009054906101000a90046001600160a01b03166001600160a01b031663ad5c46486040518163ffffffff1660e01b815260040160206040518083038186803b158015620001d257600080fd5b505afa158015620001e7573d6000803e3d6000fd5b505050506040513d601f19601f820116820180604052508101906200020d9190620003b3565b6040516001600160e01b031960e084901b1681526001600160a01b039091166004820152306024820152604401602060405180830381600087803b1580156200025557600080fd5b505af11580156200026a573d6000803e3d6000fd5b505050506040513d601f19601f82011682018060405250810190620002909190620003b3565b600980546001600160a01b0319166001600160a01b039290921691909117905550620004209050565b3390565b600080546001600160a01b038381166001600160a01b0319831681178455604051919092169283917f8be0079c531659141344cd1fd0a4f28419497f9722a3daafe3b4186f6b6457e09190a35050565b8280546200031b90620003e3565b90600052602060002090601f0160209004810192826200033f57600085556200038a565b82601f106200035a57805160ff19168380011785556200038a565b828001600101855582156200038a579182015b828111156200038a5782518255916020019190600101906200036d565b50620003989291506200039c565b5090565b5b808211156200039857600081556001016200039d565b600060208284031215620003c5578081fd5b81516001600160a01b0381168114620003dc578182fd5b9392505050565b600181811c90821680620003f857607f821691505b602082108114156200041a57634e487b7160e01b600052602260045260246000fd5b50919050565b611b7e80620004306000396000f3fe608060405234801561001057600080fd5b50600436106101755760003560e01c806306fdde031461017a578063095ea7b31461019857806318160ddd146101bb5780631df91f72146101cd57806320606b70146101e257806323b872dd146101f757806329cb924d1461020a578063313ce56714610210578063395093511461022557806355e5c4a714610238578063587cde1e146102635780635c19a95c1461028f5780636fcfff45146102a257806370a08231146102dd578063715018a6146102f0578063782d6fe1146102f85780637ecebe001461030b578063893d20e81461032b5780638da5cb5b1461033357806395d89b411461033b578063a0712d6814610343578063a457c2d714610356578063a9059cbb14610369578063a97ee0e71461037c578063b4b5ea571461038f578063c3cda520146103a2578063dd62ed3e146103b5578063e7a324dc146103ee578063edae876f14610403578063f1127ed814610416578063f2fde38b1461046d575b600080fd5b610182610480565b60405161018f919061185d565b60405180910390f35b6101ab6101a6366004611780565b610512565b604051901515815260200161018f565b6003545b60405190815260200161018f565b6101e06101db366004611780565b610529565b005b6101bf6000805160206119fd83398151915281565b6101ab610205366004611745565b610595565b426101bf565b60065460405160ff909116815260200161018f565b6101ab610233366004611780565b6105fe565b60095461024b906001600160a01b031681565b6040516001600160a01b03909116815260200161018f565b61024b6102713660046116f9565b6001600160a01b039081166000908152600a60205260409020541690565b6101e061029d3660046116f9565b610634565b6102c86102b03660046116f9565b600c6020526000908152604090205463ffffffff1681565b60405163ffffffff909116815260200161018f565b6101bf6102eb3660046116f9565b610641565b6101e061065c565b6101bf610306366004611780565b610697565b6101bf6103193660046116f9565b600d6020526000908152604090205481565b61024b6108ff565b61024b61090e565b61018261091d565b6101ab610351366004611845565b61092c565b6101ab610364366004611780565b610970565b6101ab610377366004611780565b6109bf565b6101e061038a366004611780565b6109cc565b6101bf61039d3660046116f9565b610a88565b6101e06103b03660046117a9565b610afd565b6101bf6103c3366004611713565b6001600160a01b03918216600090815260026020908152604080832093909416825291909152205490565b6101bf600080516020611a1d83398151915281565b60085461024b906001600160a01b031681565b610451610424366004611807565b600b6020908152600092835260408084209091529082529020805460019091015463ffffffff9091169082565b6040805163ffffffff909316835260208301919091520161018f565b6101e061047b3660046116f9565b610d8c565b60606004805461048f90611990565b80601f01602080910402602001604051908101604052809291908181526020018280546104bb90611990565b80156105085780601f106104dd57610100808354040283529160200191610508565b820191906000526020600020905b8154815290600101906020018083116104eb57829003601f168201915b5050505050905090565b600061051f338484610e29565b5060015b92915050565b3361053261090e565b6001600160a01b0316146105615760405162461bcd60e51b8152600401610558906118b0565b60405180910390fd5b61056b8282610f4e565b6001600160a01b038083166000908152600a602052604081205461059192169083611048565b5050565b60006105a28484846111ac565b6105f484336105ef85604051806060016040528060288152602001611a3d602891396001600160a01b038a1660009081526002602090815260408083203384529091529020549190611320565b610e29565b5060019392505050565b3360008181526002602090815260408083206001600160a01b0387168452909152812054909161051f9185906105ef908661134c565b61063e3382611358565b50565b6001600160a01b031660009081526001602052604090205490565b3361066561090e565b6001600160a01b03161461068b5760405162461bcd60e51b8152600401610558906118b0565b61069560006113ed565b565b60004382106106fb5760405162461bcd60e51b815260206004820152602a60248201527f4d47546f6b656e3a3a6765745072696f72566f7465733a206e6f74207965742060448201526919195d195c9b5a5b995960b21b6064820152608401610558565b6001600160a01b0383166000908152600c602052604090205463ffffffff1680610729576000915050610523565b6001600160a01b0384166000908152600b60205260408120849161074e60018561196b565b63ffffffff908116825260208201929092526040016000205416116107b7576001600160a01b0384166000908152600b602052604081209061079160018461196b565b63ffffffff1663ffffffff16815260200190815260200160002060010154915050610523565b6001600160a01b0384166000908152600b6020908152604080832083805290915290205463ffffffff168310156107f2576000915050610523565b60008061080060018461196b565b90505b8163ffffffff168163ffffffff1611156108c85760006002610825848461196b565b61082f9190611925565b610839908361196b565b6001600160a01b0388166000908152600b6020908152604080832063ffffffff808616855290835292819020815180830190925280549093168082526001909301549181019190915291925087141561089c576020015194506105239350505050565b805163ffffffff168711156108b3578193506108c1565b6108be60018361196b565b92505b5050610803565b506001600160a01b0385166000908152600b6020908152604080832063ffffffff9094168352929052206001015491505092915050565b600061090961090e565b905090565b6000546001600160a01b031690565b60606005805461048f90611990565b60003361093761090e565b6001600160a01b03161461095d5760405162461bcd60e51b8152600401610558906118b0565b610967338361143d565b5060015b919050565b600061051f33846105ef85604051806060016040528060258152602001611aab602591393360009081526002602090815260408083206001600160a01b038d1684529091529020549190611320565b600061051f3384846111ac565b336109d561090e565b6001600160a01b0316146109fb5760405162461bcd60e51b8152600401610558906118b0565b6003546007541015610a595760405162461bcd60e51b815260206004820152602160248201527f746f74616c20737570706c79206f766572666c6f7773206d617820616d6f756e6044820152601d60fa1b6064820152608401610558565b610a63828261143d565b6001600160a01b038083166000908152600a6020526040812054610591921683611048565b6001600160a01b0381166000908152600c602052604081205463ffffffff1680610ab3576000610af6565b6001600160a01b0383166000908152600b6020526040812090610ad760018461196b565b63ffffffff1663ffffffff168152602001908152602001600020600101545b9392505050565b60006000805160206119fd833981519152610b16610480565b80519060200120610b244690565b60408051602080820195909552808201939093526060830191909152306080808401919091528151808403909101815260a083018252805190840120600080516020611a1d83398151915260c08401526001600160a01b038b1660e084015261010083018a90526101208084018a90528251808503909101815261014084019092528151919093012061190160f01b610160830152610162820183905261018282018190529192506000906101a20160408051601f198184030181528282528051602091820120600080855291840180845281905260ff8a169284019290925260608301889052608083018790529092509060019060a0016020604051602081039080840390855afa158015610c3e573d6000803e3d6000fd5b5050604051601f1901519150506001600160a01b038116610ca15760405162461bcd60e51b81526020600482015260296024820152600080516020611b298339815191526044820152687369676e617475726560b81b6064820152608401610558565b6001600160a01b0381166000908152600d60205260408120805491610cc5836119cb565b919050558914610d135760405162461bcd60e51b81526020600482015260256024820152600080516020611b298339815191526044820152646e6f6e636560d81b6064820152608401610558565b87421015610d755760405162461bcd60e51b815260206004820152602960248201527f4d47546f6b656e3a3a64656c656761746542795369673a207369676e617475726044820152681948195e1c1a5c995960ba1b6064820152608401610558565b610d7f818b611358565b505050505b505050505050565b33610d9561090e565b6001600160a01b031614610dbb5760405162461bcd60e51b8152600401610558906118b0565b6001600160a01b038116610e205760405162461bcd60e51b815260206004820152602660248201527f4f776e61626c653a206e6577206f776e657220697320746865207a65726f206160448201526564647265737360d01b6064820152608401610558565b61063e816113ed565b6001600160a01b038316610e8b5760405162461bcd60e51b8152602060048201526024808201527f42455032303a20617070726f76652066726f6d20746865207a65726f206164646044820152637265737360e01b6064820152608401610558565b6001600160a01b038216610eec5760405162461bcd60e51b815260206004820152602260248201527f42455032303a20617070726f766520746f20746865207a65726f206164647265604482015261737360f01b6064820152608401610558565b6001600160a01b0383811660008181526002602090815260408083209487168084529482529182902085905590518481527f8c5be1e5ebec7d5bd14f71427d1e84f3dd0314c0f7b2291e5b200ac8c7c3b92591015b60405180910390a3505050565b6001600160a01b038216610fae5760405162461bcd60e51b815260206004820152602160248201527f42455032303a206275726e2066726f6d20746865207a65726f206164647265736044820152607360f81b6064820152608401610558565b610feb81604051806060016040528060228152602001611b07602291396001600160a01b0385166000908152600160205260409020549190611320565b6001600160a01b0383166000908152600160205260409020556003546110119082611505565b6003556040518181526000906001600160a01b03841690600080516020611a8b833981519152906020015b60405180910390a35050565b816001600160a01b0316836001600160a01b03161415801561106a5750600081115b156111a7576001600160a01b0383161561110d576001600160a01b0383166000908152600c602052604081205463ffffffff1690816110aa5760006110ed565b6001600160a01b0385166000908152600b60205260408120906110ce60018561196b565b63ffffffff1663ffffffff168152602001908152602001600020600101545b905060006110fb8285611505565b905061110986848484611511565b5050505b6001600160a01b038216156111a7576001600160a01b0382166000908152600c602052604081205463ffffffff16908161114857600061118b565b6001600160a01b0384166000908152600b602052604081209061116c60018561196b565b63ffffffff1663ffffffff168152602001908152602001600020600101545b90506000611199828561134c565b9050610d8485848484611511565b505050565b6001600160a01b0383166112105760405162461bcd60e51b815260206004820152602560248201527f42455032303a207472616e736665722066726f6d20746865207a65726f206164604482015264647265737360d81b6064820152608401610558565b6001600160a01b0382166112725760405162461bcd60e51b815260206004820152602360248201527f42455032303a207472616e7366657220746f20746865207a65726f206164647260448201526265737360e81b6064820152608401610558565b6112af81604051806060016040528060268152602001611a65602691396001600160a01b0386166000908152600160205260409020549190611320565b6001600160a01b0380851660009081526001602052604080822093909355908416815220546112de908261134c565b6001600160a01b038084166000818152600160205260409081902093909355915190851690600080516020611a8b83398151915290610f419085815260200190565b600081848411156113445760405162461bcd60e51b8152600401610558919061185d565b505050900390565b6000610af682846118e5565b6001600160a01b038083166000908152600a60205260408120549091169061137f84610641565b6001600160a01b038581166000818152600a602052604080822080546001600160a01b031916898616908117909155905194955093928616927f3134e8a2e6d97e929a7e54011ea5485d7d196dd5f0ba4d4ef95803e8e3fc257f9190a46113e7828483611048565b50505050565b600080546001600160a01b038381166001600160a01b0319831681178455604051919092169283917f8be0079c531659141344cd1fd0a4f28419497f9722a3daafe3b4186f6b6457e09190a35050565b6001600160a01b0382166114935760405162461bcd60e51b815260206004820152601f60248201527f42455032303a206d696e7420746f20746865207a65726f2061646472657373006044820152606401610558565b6003546114a0908261134c565b6003556001600160a01b0382166000908152600160205260409020546114c6908261134c565b6001600160a01b038316600081815260016020526040808220939093559151909190600080516020611a8b8339815191529061103c9085815260200190565b6000610af68284611954565b600061153543604051806060016040528060378152602001611ad0603791396116b3565b905060008463ffffffff1611801561158f57506001600160a01b0385166000908152600b6020526040812063ffffffff83169161157360018861196b565b63ffffffff908116825260208201929092526040016000205416145b156115d8576001600160a01b0385166000908152600b6020526040812083916115b960018861196b565b63ffffffff168152602081019190915260400160002060010155611668565b60408051808201825263ffffffff838116825260208083018681526001600160a01b038a166000908152600b83528581208a851682529092529390209151825463ffffffff1916911617815590516001918201556116379085906118fd565b6001600160a01b0386166000908152600c60205260409020805463ffffffff191663ffffffff929092169190911790555b60408051848152602081018490526001600160a01b038716917fdec2bacdd2f05b59de34da9b523dff8be42e5e38e818c82fdb0bae774387a724910160405180910390a25050505050565b600081600160201b84106116da5760405162461bcd60e51b8152600401610558919061185d565b509192915050565b80356001600160a01b038116811461096b57600080fd5b60006020828403121561170a578081fd5b610af6826116e2565b60008060408385031215611725578081fd5b61172e836116e2565b915061173c602084016116e2565b90509250929050565b600080600060608486031215611759578081fd5b611762846116e2565b9250611770602085016116e2565b9150604084013590509250925092565b60008060408385031215611792578182fd5b61179b836116e2565b946020939093013593505050565b60008060008060008060c087890312156117c1578182fd5b6117ca876116e2565b95506020870135945060408701359350606087013560ff811681146117ed578283fd5b9598949750929560808101359460a0909101359350915050565b60008060408385031215611819578182fd5b611822836116e2565b9150602083013563ffffffff8116811461183a578182fd5b809150509250929050565b600060208284031215611856578081fd5b5035919050565b6000602080835283518082850152825b818110156118895785810183015185820160400152820161186d565b8181111561189a5783604083870101525b50601f01601f1916929092016040019392505050565b6020808252818101527f4f776e61626c653a2063616c6c6572206973206e6f7420746865206f776e6572604082015260600190565b600082198211156118f8576118f86119e6565b500190565b600063ffffffff80831681851680830382111561191c5761191c6119e6565b01949350505050565b600063ffffffff8084168061194857634e487b7160e01b83526012600452602483fd5b92169190910492915050565b600082821015611966576119666119e6565b500390565b600063ffffffff83811690831681811015611988576119886119e6565b039392505050565b600181811c908216806119a457607f821691505b602082108114156119c557634e487b7160e01b600052602260045260246000fd5b50919050565b60006000198214156119df576119df6119e6565b5060010190565b634e487b7160e01b600052601160045260246000fdfe8cad95687ba82c2ce50e74f7b754645e5117c3a5bec8151c0726d5857980a866e48329057bfd03d55e49b547132e39cffd9c1820ad7b9d4c5307691425d15adf42455032303a207472616e7366657220616d6f756e74206578636565647320616c6c6f77616e636542455032303a207472616e7366657220616d6f756e7420657863656564732062616c616e6365ddf252ad1be2c89b69c2b068fc378daa952ba7f163c4a11628f55a4df523b3ef42455032303a2064656372656173656420616c6c6f77616e63652062656c6f77207a65726f4d47546f6b656e3a3a5f7772697465436865636b706f696e743a20626c6f636b206e756d6265722065786365656473203332206269747342455032303a206275726e20616d6f756e7420657863656564732062616c616e63654d47546f6b656e3a3a64656c656761746542795369673a20696e76616c696420a26469706673582212206d00ad8202220841752ab4654b3dac3d5f1e539ae495aa2f06ffda3237ea774e64736f6c63430008040033",
  "linkReferences": {},
  "deployedLinkReferences": {}
}