{
  "_format": "hh-sol-artifact-1",
  "contractName": "MockGovToken",
  "sourceName": "contracts/MGGovToken.sol",
  "abi": [
    {
      "inputs": [],
      "stateMutability": "nonpayable",
      "type": "constructor"
    },
    {
      "anonymous": false,
      "inputs": [
        {
          "indexed": true,
          "internalType": "address",
          "name": "owner",
          "type": "address"
        },
        {
          "indexed": true,
          "internalType": "address",
          "name": "spender",
          "type": "address"
        },
        {
          "indexed": false,
          "internalType": "uint256",
          "name": "value",
          "type": "uint256"
        }
      ],
      "name": "Approval",
      "type": "event"
    },
    {
      "anonymous": false,
      "inputs": [
        {
          "indexed": true,
          "internalType": "address",
          "name": "delegator",
          "type": "address"
        },
        {
          "indexed": true,
          "internalType": "address",
          "name": "fromDelegate",
          "type": "address"
        },
        {
          "indexed": true,
          "internalType": "address",
          "name": "toDelegate",
          "type": "address"
        }
      ],
      "name": "DelegateChanged",
      "type": "event"
    },
    {
      "anonymous": false,
      "inputs": [
        {
          "indexed": true,
          "internalType": "address",
          "name": "delegate",
          "type": "address"
        },
        {
          "indexed": false,
          "internalType": "uint256",
          "name": "previousBalance",
          "type": "uint256"
        },
        {
          "indexed": false,
          "internalType": "uint256",
          "name": "newBalance",
          "type": "uint256"
        }
      ],
      "name": "DelegateVotesChanged",
      "type": "event"
    },
    {
      "anonymous": false,
      "inputs": [
        {
          "indexed": true,
          "internalType": "address",
          "name": "previousOwner",
          "type": "address"
        },
        {
          "indexed": true,
          "internalType": "address",
          "name": "newOwner",
          "type": "address"
        }
      ],
      "name": "OwnershipTransferred",
      "type": "event"
    },
    {
      "anonymous": false,
      "inputs": [
        {
          "indexed": true,
          "internalType": "address",
          "name": "from",
          "type": "address"
        },
        {
          "indexed": true,
          "internalType": "address",
          "name": "to",
          "type": "address"
        },
        {
          "indexed": false,
          "internalType": "uint256",
          "name": "value",
          "type": "uint256"
        }
      ],
      "name": "Transfer",
      "type": "event"
    },
    {
      "inputs": [],
      "name": "DELEGATION_TYPEHASH",
      "outputs": [
        {
          "internalType": "bytes32",
          "name": "",
          "type": "bytes32"
        }
      ],
      "stateMutability": "view",
      "type": "function"
    },
    {
      "inputs": [],
      "name": "DOMAIN_TYPEHASH",
      "outputs": [
        {
          "internalType": "bytes32",
          "name": "",
          "type": "bytes32"
        }
      ],
      "stateMutability": "view",
      "type": "function"
    },
    {
      "inputs": [
        {
          "internalType": "address",
          "name": "owner",
          "type": "address"
        },
        {
          "internalType": "address",
          "name": "spender",
          "type": "address"
        }
      ],
      "name": "allowance",
      "outputs": [
        {
          "internalType": "uint256",
          "name": "",
          "type": "uint256"
        }
      ],
      "stateMutability": "view",
      "type": "function"
    },
    {
      "inputs": [
        {
          "internalType": "address",
          "name": "spender",
          "type": "address"
        },
        {
          "internalType": "uint256",
          "name": "amount",
          "type": "uint256"
        }
      ],
      "name": "approve",
      "outputs": [
        {
          "internalType": "bool",
          "name": "",
          "type": "bool"
        }
      ],
      "stateMutability": "nonpayable",
      "type": "function"
    },
    {
      "inputs": [
        {
          "internalType": "address",
          "name": "account",
          "type": "address"
        }
      ],
      "name": "balanceOf",
      "outputs": [
        {
          "internalType": "uint256",
          "name": "",
          "type": "uint256"
        }
      ],
      "stateMutability": "view",
      "type": "function"
    },
    {
      "inputs": [
        {
          "internalType": "address",
          "name": "_from",
          "type": "address"
        },
        {
          "internalType": "uint256",
          "name": "_amount",
          "type": "uint256"
        }
      ],
      "name": "burnFunc",
      "outputs": [],
      "stateMutability": "nonpayable",
      "type": "function"
    },
    {
      "inputs": [
        {
          "internalType": "address",
          "name": "",
          "type": "address"
        },
        {
          "internalType": "uint32",
          "name": "",
          "type": "uint32"
        }
      ],
      "name": "checkpoints",
      "outputs": [
        {
          "internalType": "uint32",
          "name": "fromBlock",
          "type": "uint32"
        },
        {
          "internalType": "uint256",
          "name": "votes",
          "type": "uint256"
        }
      ],
      "stateMutability": "view",
      "type": "function"
    },
    {
      "inputs": [],
      "name": "decimals",
      "outputs": [
        {
          "internalType": "uint8",
          "name": "",
          "type": "uint8"
        }
      ],
      "stateMutability": "view",
      "type": "function"
    },
    {
      "inputs": [
        {
          "internalType": "address",
          "name": "spender",
          "type": "address"
        },
        {
          "internalType": "uint256",
          "name": "subtractedValue",
          "type": "uint256"
        }
      ],
      "name": "decreaseAllowance",
      "outputs": [
        {
          "internalType": "bool",
          "name": "",
          "type": "bool"
        }
      ],
      "stateMutability": "nonpayable",
      "type": "function"
    },
    {
      "inputs": [
        {
          "internalType": "address",
          "name": "delegatee",
          "type": "address"
        }
      ],
      "name": "delegate",
      "outputs": [],
      "stateMutability": "nonpayable",
      "type": "function"
    },
    {
      "inputs": [
        {
          "internalType": "address",
          "name": "delegatee",
          "type": "address"
        },
        {
          "internalType": "uint256",
          "name": "nonce",
          "type": "uint256"
        },
        {
          "internalType": "uint256",
          "name": "expiry",
          "type": "uint256"
        },
        {
          "internalType": "uint8",
          "name": "v",
          "type": "uint8"
        },
        {
          "internalType": "bytes32",
          "name": "r",
          "type": "bytes32"
        },
        {
          "internalType": "bytes32",
          "name": "s",
          "type": "bytes32"
        }
      ],
      "name": "delegateBySig",
      "outputs": [],
      "stateMutability": "nonpayable",
      "type": "function"
    },
    {
      "inputs": [
        {
          "internalType": "address",
          "name": "delegator",
          "type": "address"
        }
      ],
      "name": "delegates",
      "outputs": [
        {
          "internalType": "address",
          "name": "",
          "type": "address"
        }
      ],
      "stateMutability": "view",
      "type": "function"
    },
    {
      "inputs": [],
      "name": "getCurrentTime",
      "outputs": [
        {
          "internalType": "uint256",
          "name": "",
          "type": "uint256"
        }
      ],
      "stateMutability": "view",
      "type": "function"
    },
    {
      "inputs": [
        {
          "internalType": "address",
          "name": "account",
          "type": "address"
        }
      ],
      "name": "getCurrentVotes",
      "outputs": [
        {
          "internalType": "uint256",
          "name": "",
          "type": "uint256"
        }
      ],
      "stateMutability": "view",
      "type": "function"
    },
    {
      "inputs": [],
      "name": "getOwner",
      "outputs": [
        {
          "internalType": "address",
          "name": "",
          "type": "address"
        }
      ],
      "stateMutability": "view",
      "type": "function"
    },
    {
      "inputs": [
        {
          "internalType": "address",
          "name": "account",
          "type": "address"
        },
        {
          "internalType": "uint256",
          "name": "blockNumber",
          "type": "uint256"
        }
      ],
      "name": "getPriorVotes",
      "outputs": [
        {
          "internalType": "uint256",
          "name": "",
          "type": "uint256"
        }
      ],
      "stateMutability": "view",
      "type": "function"
    },
    {
      "inputs": [
        {
          "internalType": "address",
          "name": "spender",
          "type": "address"
        },
        {
          "internalType": "uint256",
          "name": "addedValue",
          "type": "uint256"
        }
      ],
      "name": "increaseAllowance",
      "outputs": [
        {
          "internalType": "bool",
          "name": "",
          "type": "bool"
        }
      ],
      "stateMutability": "nonpayable",
      "type": "function"
    },
    {
      "inputs": [
        {
          "internalType": "uint256",
          "name": "amount",
          "type": "uint256"
        }
      ],
      "name": "mint",
      "outputs": [
        {
          "internalType": "bool",
          "name": "",
          "type": "bool"
        }
      ],
      "stateMutability": "nonpayable",
      "type": "function"
    },
    {
      "inputs": [
        {
          "internalType": "address",
          "name": "_to",
          "type": "address"
        },
        {
          "internalType": "uint256",
          "name": "_amount",
          "type": "uint256"
        }
      ],
      "name": "mintFunc",
      "outputs": [],
      "stateMutability": "nonpayable",
      "type": "function"
    },
    {
      "inputs": [],
      "name": "name",
      "outputs": [
        {
          "internalType": "string",
          "name": "",
          "type": "string"
        }
      ],
      "stateMutability": "view",
      "type": "function"
    },
    {
      "inputs": [
        {
          "internalType": "address",
          "name": "",
          "type": "address"
        }
      ],
      "name": "nonces",
      "outputs": [
        {
          "internalType": "uint256",
          "name": "",
          "type": "uint256"
        }
      ],
      "stateMutability": "view",
      "type": "function"
    },
    {
      "inputs": [
        {
          "internalType": "address",
          "name": "",
          "type": "address"
        }
      ],
      "name": "numCheckpoints",
      "outputs": [
        {
          "internalType": "uint32",
          "name": "",
          "type": "uint32"
        }
      ],
      "stateMutability": "view",
      "type": "function"
    },
    {
      "inputs": [],
      "name": "owner",
      "outputs": [
        {
          "internalType": "address",
          "name": "",
          "type": "address"
        }
      ],
      "stateMutability": "view",
      "type": "function"
    },
    {
      "inputs": [],
      "name": "renounceOwnership",
      "outputs": [],
      "stateMutability": "nonpayable",
      "type": "function"
    },
    {
      "inputs": [],
      "name": "symbol",
      "outputs": [
        {
          "internalType": "string",
          "name": "",
          "type": "string"
        }
      ],
      "stateMutability": "view",
      "type": "function"
    },
    {
      "inputs": [],
      "name": "totalSupply",
      "outputs": [
        {
          "internalType": "uint256",
          "name": "",
          "type": "uint256"
        }
      ],
      "stateMutability": "view",
      "type": "function"
    },
    {
      "inputs": [
        {
          "internalType": "address",
          "name": "recipient",
          "type": "address"
        },
        {
          "internalType": "uint256",
          "name": "amount",
          "type": "uint256"
        }
      ],
      "name": "transfer",
      "outputs": [
        {
          "internalType": "bool",
          "name": "",
          "type": "bool"
        }
      ],
      "stateMutability": "nonpayable",
      "type": "function"
    },
    {
      "inputs": [
        {
          "internalType": "address",
          "name": "sender",
          "type": "address"
        },
        {
          "internalType": "address",
          "name": "recipient",
          "type": "address"
        },
        {
          "internalType": "uint256",
          "name": "amount",
          "type": "uint256"
        }
      ],
      "name": "transferFrom",
      "outputs": [
        {
          "internalType": "bool",
          "name": "",
          "type": "bool"
        }
      ],
      "stateMutability": "nonpayable",
      "type": "function"
    },
    {
      "inputs": [
        {
          "internalType": "address",
          "name": "newOwner",
          "type": "address"
        }
      ],
      "name": "transferOwnership",
      "outputs": [],
      "stateMutability": "nonpayable",
      "type": "function"
    }
  ],
  "bytecode": "0x60806040526b033b2e3c9fd0803ce80000006007553480156200002157600080fd5b506040518060400160405280600c81526020016b26b7b1b5a3b7bb2a37b5b2b760a11b8152506040518060400160405280600781526020016626a3aa37b5b2b760c91b8152506000620000796200010460201b60201c565b600080546001600160a01b0319166001600160a01b0383169081178255604051929350917f8be0079c531659141344cd1fd0a4f28419497f9722a3daafe3b4186f6b6457e0908290a3508151620000d890600490602085019062000108565b508051620000ee90600590602084019062000108565b50506006805460ff1916601217905550620001a4565b3390565b828054600181600116156101000203166002900490600052602060002090601f016020900481019282601f106200014b57805160ff19168380011785556200017b565b828001600101855582156200017b579182015b828111156200017b5782518255916020019190600101906200015e565b50620001899291506200018d565b5090565b5b808211156200018957600081556001016200018e565b611d7f80620001b46000396000f3fe608060405234801561001057600080fd5b506004361061015f5760003560e01c806306fdde0314610164578063095ea7b3146101e157806318160ddd146102215780631df91f721461023b57806320606b701461026957806323b872dd1461027157806329cb924d146102a7578063313ce567146102af57806339509351146102cd578063587cde1e146102f95780635c19a95c1461033b5780636fcfff451461036157806370a08231146103a0578063715018a6146103c6578063782d6fe1146103ce5780637ecebe00146103fa578063893d20e8146104205780638da5cb5b1461042857806395d89b4114610430578063a0712d6814610438578063a457c2d714610455578063a9059cbb14610481578063a97ee0e7146104ad578063b4b5ea57146104d9578063c3cda520146104ff578063dd62ed3e14610546578063e7a324dc14610574578063f1127ed81461057c578063f2fde38b146105ce575b600080fd5b61016c6105f4565b6040805160208082528351818301528351919283929083019185019080838360005b838110156101a657818101518382015260200161018e565b50505050905090810190601f1680156101d35780820380516001836020036101000a031916815260200191505b509250505060405180910390f35b61020d600480360360408110156101f757600080fd5b506001600160a01b03813516906020013561068a565b604080519115158252519081900360200190f35b6102296106a8565b60408051918252519081900360200190f35b6102676004803603604081101561025157600080fd5b506001600160a01b0381351690602001356106ae565b005b61022961073a565b61020d6004803603606081101561028757600080fd5b506001600160a01b0381358116916020810135909116906040013561074c565b6102296107d3565b6102b76107d7565b6040805160ff9092168252519081900360200190f35b61020d600480360360408110156102e357600080fd5b506001600160a01b0381351690602001356107e0565b61031f6004803603602081101561030f57600080fd5b50356001600160a01b031661082e565b604080516001600160a01b039092168252519081900360200190f35b6102676004803603602081101561035157600080fd5b50356001600160a01b031661084c565b6103876004803603602081101561037757600080fd5b50356001600160a01b0316610859565b6040805163ffffffff9092168252519081900360200190f35b610229600480360360208110156103b657600080fd5b50356001600160a01b0316610871565b61026761088c565b610229600480360360408110156103e457600080fd5b506001600160a01b03813516906020013561091c565b6102296004803603602081101561041057600080fd5b50356001600160a01b0316610b24565b61031f610b36565b61031f610b45565b61016c610b54565b61020d6004803603602081101561044e57600080fd5b5035610bb5565b61020d6004803603604081101561046b57600080fd5b506001600160a01b038135169060200135610c28565b61020d6004803603604081101561049757600080fd5b506001600160a01b038135169060200135610c90565b610267600480360360408110156104c357600080fd5b506001600160a01b038135169060200135610ca4565b610229600480360360208110156104ef57600080fd5b50356001600160a01b0316610d73565b610267600480360360c081101561051557600080fd5b506001600160a01b038135169060208101359060408101359060ff6060820135169060808101359060a00135610dd7565b6102296004803603604081101561055c57600080fd5b506001600160a01b0381358116916020013516611026565b610229611051565b6105ae6004803603604081101561059257600080fd5b5080356001600160a01b0316906020013563ffffffff16611063565b6040805163ffffffff909316835260208301919091528051918290030190f35b610267600480360360208110156105e457600080fd5b50356001600160a01b0316611090565b60048054604080516020601f60026000196101006001881615020190951694909404938401819004810282018101909252828152606093909290918301828280156106805780601f1061065557610100808354040283529160200191610680565b820191906000526020600020905b81548152906001019060200180831161066357829003601f168201915b5050505050905090565b600061069e6106976110f1565b84846110f5565b5060015b92915050565b60035490565b6106b66110f1565b6000546001600160a01b03908116911614610706576040805162461bcd60e51b81526020600482018190526024820152600080516020611b8e833981519152604482015290519081900360640190fd5b61071082826111e1565b6001600160a01b03808316600090815260086020526040812054610736921690836112bf565b5050565b600080516020611ab183398151915281565b6000610759848484611401565b6107c9846107656110f1565b6107c485604051806060016040528060288152602001611b66602891396001600160a01b038a166000908152600260205260408120906107a36110f1565b6001600160a01b031681526020810191909152604001600020549190611541565b6110f5565b5060019392505050565b4290565b60065460ff1690565b600061069e6107ed6110f1565b846107c485600260006107fe6110f1565b6001600160a01b03908116825260208083019390935260409182016000908120918c1681529252902054906115d8565b6001600160a01b039081166000908152600860205260409020541690565b6108563382611630565b50565b600a6020526000908152604090205463ffffffff1681565b6001600160a01b031660009081526001602052604090205490565b6108946110f1565b6000546001600160a01b039081169116146108e4576040805162461bcd60e51b81526020600482018190526024820152600080516020611b8e833981519152604482015290519081900360640190fd5b600080546040516001600160a01b0390911690600080516020611bae833981519152908390a3600080546001600160a01b0319169055565b600043821061095c5760405162461bcd60e51b815260040180806020018281038252602a815260200180611b3c602a913960400191505060405180910390fd5b6001600160a01b0383166000908152600a602052604090205463ffffffff168061098a5760009150506106a2565b6001600160a01b038416600090815260096020908152604080832063ffffffff6000198601811685529252909120541683106109f9576001600160a01b03841660009081526009602090815260408083206000199490940163ffffffff168352929052206001015490506106a2565b6001600160a01b038416600090815260096020908152604080832083805290915290205463ffffffff16831015610a345760009150506106a2565b600060001982015b8163ffffffff168163ffffffff161115610aed57600282820363ffffffff16048103610a66611a2f565b506001600160a01b038716600090815260096020908152604080832063ffffffff808616855290835292819020815180830190925280549093168082526001909301549181019190915290871415610ac8576020015194506106a29350505050565b805163ffffffff16871115610adf57819350610ae6565b6001820392505b5050610a3c565b506001600160a01b038516600090815260096020908152604080832063ffffffff9094168352929052206001015491505092915050565b600b6020526000908152604090205481565b6000610b40610b45565b905090565b6000546001600160a01b031690565b60058054604080516020601f60026000196101006001881615020190951694909404938401819004810282018101909252828152606093909290918301828280156106805780601f1061065557610100808354040283529160200191610680565b6000610bbf6110f1565b6000546001600160a01b03908116911614610c0f576040805162461bcd60e51b81526020600482018190526024820152600080516020611b8e833981519152604482015290519081900360640190fd5b610c20610c1a6110f1565b836116c5565b506001919050565b600061069e610c356110f1565b846107c485604051806060016040528060258152602001611c376025913960026000610c5f6110f1565b6001600160a01b03908116825260208083019390935260409182016000908120918d16815292529020549190611541565b600061069e610c9d6110f1565b8484611401565b610cac6110f1565b6000546001600160a01b03908116911614610cfc576040805162461bcd60e51b81526020600482018190526024820152600080516020611b8e833981519152604482015290519081900360640190fd5b610d046106a8565b6007541015610d445760405162461bcd60e51b8152600401808060200182810382526021815260200180611a476021913960400191505060405180910390fd5b610d4e82826116c5565b6001600160a01b038083166000908152600860205260408120546107369216836112bf565b6001600160a01b0381166000908152600a602052604081205463ffffffff1680610d9e576000610dd0565b6001600160a01b038316600090815260096020908152604080832063ffffffff60001986011684529091529020600101545b9392505050565b6000600080516020611ab1833981519152610df06105f4565b80519060200120610dff611799565b60408051602080820195909552808201939093526060830191909152306080808401919091528151808403909101815260a083018252805190840120600080516020611b1c83398151915260c08401526001600160a01b038b1660e084015261010083018a90526101208084018a9052825180850390910181526101408401835280519085012061190160f01b6101608501526101628401829052610182808501829052835180860390910181526101a285018085528151918701919091206000918290526101c2860180865281905260ff8b166101e287015261020286018a90526102228601899052935192965090949293909260019261024280840193601f198301929081900390910190855afa158015610f20573d6000803e3d6000fd5b5050604051601f1901519150506001600160a01b038116610f725760405162461bcd60e51b8152600401808060200182810382526029815260200180611d216029913960400191505060405180910390fd5b6001600160a01b0381166000908152600b602052604090208054600181019091558914610fd05760405162461bcd60e51b8152600401808060200182810382526025815260200180611af76025913960400191505060405180910390fd5b8742101561100f5760405162461bcd60e51b8152600401808060200182810382526029815260200180611c7d6029913960400191505060405180910390fd5b611019818b611630565b505050505b505050505050565b6001600160a01b03918216600090815260026020908152604080832093909416825291909152205490565b600080516020611b1c83398151915281565b60096020908152600092835260408084209091529082529020805460019091015463ffffffff9091169082565b6110986110f1565b6000546001600160a01b039081169116146110e8576040805162461bcd60e51b81526020600482018190526024820152600080516020611b8e833981519152604482015290519081900360640190fd5b6108568161179d565b3390565b6001600160a01b03831661113a5760405162461bcd60e51b8152600401808060200182810382526024815260200180611a8d6024913960400191505060405180910390fd5b6001600160a01b03821661117f5760405162461bcd60e51b8152600401808060200182810382526022815260200180611cff6022913960400191505060405180910390fd5b6001600160a01b03808416600081815260026020908152604080832094871680845294825291829020859055815185815291517f8c5be1e5ebec7d5bd14f71427d1e84f3dd0314c0f7b2291e5b200ac8c7c3b9259281900390910190a3505050565b6001600160a01b0382166112265760405162461bcd60e51b8152600401808060200182810382526021815260200180611c5c6021913960400191505060405180910390fd5b61126381604051806060016040528060228152602001611cdd602291396001600160a01b0385166000908152600160205260409020549190611541565b6001600160a01b038316600090815260016020526040902055600354611289908261182b565b6003556040805182815290516000916001600160a01b03851691600080516020611bf48339815191529181900360200190a35050565b816001600160a01b0316836001600160a01b0316141580156112e15750600081115b156113fc576001600160a01b03831615611373576001600160a01b0383166000908152600a602052604081205463ffffffff169081611321576000611353565b6001600160a01b038516600090815260096020908152604080832063ffffffff60001987011684529091529020600101545b90506000611361828561182b565b905061136f8684848461186d565b5050505b6001600160a01b038216156113fc576001600160a01b0382166000908152600a602052604081205463ffffffff1690816113ae5760006113e0565b6001600160a01b038416600090815260096020908152604080832063ffffffff60001987011684529091529020600101545b905060006113ee82856115d8565b905061101e8584848461186d565b505050565b6001600160a01b0383166114465760405162461bcd60e51b8152600401808060200182810382526025815260200180611a686025913960400191505060405180910390fd5b6001600160a01b03821661148b5760405162461bcd60e51b8152600401808060200182810382526023815260200180611c146023913960400191505060405180910390fd5b6114c881604051806060016040528060268152602001611bce602691396001600160a01b0386166000908152600160205260409020549190611541565b6001600160a01b0380851660009081526001602052604080822093909355908416815220546114f790826115d8565b6001600160a01b038084166000818152600160209081526040918290209490945580518581529051919392871692600080516020611bf483398151915292918290030190a3505050565b600081848411156115d05760405162461bcd60e51b81526004018080602001828103825283818151815260200191508051906020019080838360005b8381101561159557818101518382015260200161157d565b50505050905090810190601f1680156115c25780820380516001836020036101000a031916815260200191505b509250505060405180910390fd5b505050900390565b600082820183811015610dd0576040805162461bcd60e51b815260206004820152601b60248201527a536166654d6174683a206164646974696f6e206f766572666c6f7760281b604482015290519081900360640190fd5b6001600160a01b038083166000908152600860205260408120549091169061165784610871565b6001600160a01b0385811660008181526008602052604080822080546001600160a01b031916898616908117909155905194955093928616927f3134e8a2e6d97e929a7e54011ea5485d7d196dd5f0ba4d4ef95803e8e3fc257f9190a46116bf8284836112bf565b50505050565b6001600160a01b038216611720576040805162461bcd60e51b815260206004820152601f60248201527f42455032303a206d696e7420746f20746865207a65726f206164647265737300604482015290519081900360640190fd5b60035461172d90826115d8565b6003556001600160a01b03821660009081526001602052604090205461175390826115d8565b6001600160a01b0383166000818152600160209081526040808320949094558351858152935192939192600080516020611bf48339815191529281900390910190a35050565b4690565b6001600160a01b0381166117e25760405162461bcd60e51b8152600401808060200182810382526026815260200180611ad16026913960400191505060405180910390fd5b600080546040516001600160a01b0380851693921691600080516020611bae83398151915291a3600080546001600160a01b0319166001600160a01b0392909216919091179055565b6000610dd083836040518060400160405280601e81526020017f536166654d6174683a207375627472616374696f6e206f766572666c6f770000815250611541565b600061189143604051806060016040528060378152602001611ca6603791396119d2565b905060008463ffffffff161180156118da57506001600160a01b038516600090815260096020908152604080832063ffffffff6000198901811685529252909120548282169116145b15611917576001600160a01b038516600090815260096020908152604080832063ffffffff60001989011684529091529020600101829055611988565b60408051808201825263ffffffff808416825260208083018681526001600160a01b038a166000818152600984528681208b8616825284528681209551865490861663ffffffff199182161787559251600196870155908152600a9092529390208054928801909116919092161790555b604080518481526020810184905281516001600160a01b038816927fdec2bacdd2f05b59de34da9b523dff8be42e5e38e818c82fdb0bae774387a724928290030190a25050505050565b600081600160201b8410611a275760405162461bcd60e51b815260206004820181815283516024840152835190928392604490910191908501908083836000831561159557818101518382015260200161157d565b509192915050565b60408051808201909152600080825260208201529056fe746f74616c20737570706c79206f766572666c6f7773206d617820616d6f756e7442455032303a207472616e736665722066726f6d20746865207a65726f206164647265737342455032303a20617070726f76652066726f6d20746865207a65726f20616464726573738cad95687ba82c2ce50e74f7b754645e5117c3a5bec8151c0726d5857980a8664f776e61626c653a206e6577206f776e657220697320746865207a65726f20616464726573734d47546f6b656e3a3a64656c656761746542795369673a20696e76616c6964206e6f6e6365e48329057bfd03d55e49b547132e39cffd9c1820ad7b9d4c5307691425d15adf4d47546f6b656e3a3a6765745072696f72566f7465733a206e6f74207965742064657465726d696e656442455032303a207472616e7366657220616d6f756e74206578636565647320616c6c6f77616e63654f776e61626c653a2063616c6c6572206973206e6f7420746865206f776e65728be0079c531659141344cd1fd0a4f28419497f9722a3daafe3b4186f6b6457e042455032303a207472616e7366657220616d6f756e7420657863656564732062616c616e6365ddf252ad1be2c89b69c2b068fc378daa952ba7f163c4a11628f55a4df523b3ef42455032303a207472616e7366657220746f20746865207a65726f206164647265737342455032303a2064656372656173656420616c6c6f77616e63652062656c6f77207a65726f42455032303a206275726e2066726f6d20746865207a65726f20616464726573734d47546f6b656e3a3a64656c656761746542795369673a207369676e617475726520657870697265644d47546f6b656e3a3a5f7772697465436865636b706f696e743a20626c6f636b206e756d6265722065786365656473203332206269747342455032303a206275726e20616d6f756e7420657863656564732062616c616e636542455032303a20617070726f766520746f20746865207a65726f20616464726573734d47546f6b656e3a3a64656c656761746542795369673a20696e76616c6964207369676e6174757265a26469706673582212202460a08e34f85beb965011c0176c3d5ff76814b8aa0388c3292a0bcf91563a8564736f6c634300060c0033",
  "linkReferences": {},
  "deployedLinkReferences": {}
}