{
  "_format": "hh-sol-artifact-1",
  "contractName": "MockGovToken",
  "sourceName": "contracts/MGGovToken.sol",
  "abi": [
    {
      "inputs": [
        {
          "internalType": "address",
          "name": "router",
          "type": "address"
        }
      ],
      "stateMutability": "nonpayable",
      "type": "constructor"
    },
    {
      "anonymous": false,
      "inputs": [
        {
          "indexed": true,
          "internalType": "address",
          "name": "owner",
          "type": "address"
        },
        {
          "indexed": true,
          "internalType": "address",
          "name": "spender",
          "type": "address"
        },
        {
          "indexed": false,
          "internalType": "uint256",
          "name": "value",
          "type": "uint256"
        }
      ],
      "name": "Approval",
      "type": "event"
    },
    {
      "anonymous": false,
      "inputs": [
        {
          "indexed": true,
          "internalType": "address",
          "name": "delegator",
          "type": "address"
        },
        {
          "indexed": true,
          "internalType": "address",
          "name": "fromDelegate",
          "type": "address"
        },
        {
          "indexed": true,
          "internalType": "address",
          "name": "toDelegate",
          "type": "address"
        }
      ],
      "name": "DelegateChanged",
      "type": "event"
    },
    {
      "anonymous": false,
      "inputs": [
        {
          "indexed": true,
          "internalType": "address",
          "name": "delegate",
          "type": "address"
        },
        {
          "indexed": false,
          "internalType": "uint256",
          "name": "previousBalance",
          "type": "uint256"
        },
        {
          "indexed": false,
          "internalType": "uint256",
          "name": "newBalance",
          "type": "uint256"
        }
      ],
      "name": "DelegateVotesChanged",
      "type": "event"
    },
    {
      "anonymous": false,
      "inputs": [
        {
          "indexed": true,
          "internalType": "address",
          "name": "previousOwner",
          "type": "address"
        },
        {
          "indexed": true,
          "internalType": "address",
          "name": "newOwner",
          "type": "address"
        }
      ],
      "name": "OwnershipTransferred",
      "type": "event"
    },
    {
      "anonymous": false,
      "inputs": [
        {
          "indexed": true,
          "internalType": "address",
          "name": "from",
          "type": "address"
        },
        {
          "indexed": true,
          "internalType": "address",
          "name": "to",
          "type": "address"
        },
        {
          "indexed": false,
          "internalType": "uint256",
          "name": "value",
          "type": "uint256"
        }
      ],
      "name": "Transfer",
      "type": "event"
    },
    {
      "inputs": [],
      "name": "DELEGATION_TYPEHASH",
      "outputs": [
        {
          "internalType": "bytes32",
          "name": "",
          "type": "bytes32"
        }
      ],
      "stateMutability": "view",
      "type": "function"
    },
    {
      "inputs": [],
      "name": "DOMAIN_TYPEHASH",
      "outputs": [
        {
          "internalType": "bytes32",
          "name": "",
          "type": "bytes32"
        }
      ],
      "stateMutability": "view",
      "type": "function"
    },
    {
      "inputs": [
        {
          "internalType": "address",
          "name": "owner",
          "type": "address"
        },
        {
          "internalType": "address",
          "name": "spender",
          "type": "address"
        }
      ],
      "name": "allowance",
      "outputs": [
        {
          "internalType": "uint256",
          "name": "",
          "type": "uint256"
        }
      ],
      "stateMutability": "view",
      "type": "function"
    },
    {
      "inputs": [
        {
          "internalType": "address",
          "name": "spender",
          "type": "address"
        },
        {
          "internalType": "uint256",
          "name": "amount",
          "type": "uint256"
        }
      ],
      "name": "approve",
      "outputs": [
        {
          "internalType": "bool",
          "name": "",
          "type": "bool"
        }
      ],
      "stateMutability": "nonpayable",
      "type": "function"
    },
    {
      "inputs": [
        {
          "internalType": "address",
          "name": "account",
          "type": "address"
        }
      ],
      "name": "balanceOf",
      "outputs": [
        {
          "internalType": "uint256",
          "name": "",
          "type": "uint256"
        }
      ],
      "stateMutability": "view",
      "type": "function"
    },
    {
      "inputs": [
        {
          "internalType": "address",
          "name": "_from",
          "type": "address"
        },
        {
          "internalType": "uint256",
          "name": "_amount",
          "type": "uint256"
        }
      ],
      "name": "burnFunc",
      "outputs": [],
      "stateMutability": "nonpayable",
      "type": "function"
    },
    {
      "inputs": [
        {
          "internalType": "address",
          "name": "",
          "type": "address"
        },
        {
          "internalType": "uint32",
          "name": "",
          "type": "uint32"
        }
      ],
      "name": "checkpoints",
      "outputs": [
        {
          "internalType": "uint32",
          "name": "fromBlock",
          "type": "uint32"
        },
        {
          "internalType": "uint256",
          "name": "votes",
          "type": "uint256"
        }
      ],
      "stateMutability": "view",
      "type": "function"
    },
    {
      "inputs": [],
      "name": "decimals",
      "outputs": [
        {
          "internalType": "uint8",
          "name": "",
          "type": "uint8"
        }
      ],
      "stateMutability": "view",
      "type": "function"
    },
    {
      "inputs": [
        {
          "internalType": "address",
          "name": "spender",
          "type": "address"
        },
        {
          "internalType": "uint256",
          "name": "subtractedValue",
          "type": "uint256"
        }
      ],
      "name": "decreaseAllowance",
      "outputs": [
        {
          "internalType": "bool",
          "name": "",
          "type": "bool"
        }
      ],
      "stateMutability": "nonpayable",
      "type": "function"
    },
    {
      "inputs": [
        {
          "internalType": "address",
          "name": "delegatee",
          "type": "address"
        }
      ],
      "name": "delegate",
      "outputs": [],
      "stateMutability": "nonpayable",
      "type": "function"
    },
    {
      "inputs": [
        {
          "internalType": "address",
          "name": "delegatee",
          "type": "address"
        },
        {
          "internalType": "uint256",
          "name": "nonce",
          "type": "uint256"
        },
        {
          "internalType": "uint256",
          "name": "expiry",
          "type": "uint256"
        },
        {
          "internalType": "uint8",
          "name": "v",
          "type": "uint8"
        },
        {
          "internalType": "bytes32",
          "name": "r",
          "type": "bytes32"
        },
        {
          "internalType": "bytes32",
          "name": "s",
          "type": "bytes32"
        }
      ],
      "name": "delegateBySig",
      "outputs": [],
      "stateMutability": "nonpayable",
      "type": "function"
    },
    {
      "inputs": [
        {
          "internalType": "address",
          "name": "delegator",
          "type": "address"
        }
      ],
      "name": "delegates",
      "outputs": [
        {
          "internalType": "address",
          "name": "",
          "type": "address"
        }
      ],
      "stateMutability": "view",
      "type": "function"
    },
    {
      "inputs": [],
      "name": "getCurrentTime",
      "outputs": [
        {
          "internalType": "uint256",
          "name": "",
          "type": "uint256"
        }
      ],
      "stateMutability": "view",
      "type": "function"
    },
    {
      "inputs": [
        {
          "internalType": "address",
          "name": "account",
          "type": "address"
        }
      ],
      "name": "getCurrentVotes",
      "outputs": [
        {
          "internalType": "uint256",
          "name": "",
          "type": "uint256"
        }
      ],
      "stateMutability": "view",
      "type": "function"
    },
    {
      "inputs": [],
      "name": "getOwner",
      "outputs": [
        {
          "internalType": "address",
          "name": "",
          "type": "address"
        }
      ],
      "stateMutability": "view",
      "type": "function"
    },
    {
      "inputs": [
        {
          "internalType": "address",
          "name": "account",
          "type": "address"
        },
        {
          "internalType": "uint256",
          "name": "blockNumber",
          "type": "uint256"
        }
      ],
      "name": "getPriorVotes",
      "outputs": [
        {
          "internalType": "uint256",
          "name": "",
          "type": "uint256"
        }
      ],
      "stateMutability": "view",
      "type": "function"
    },
    {
      "inputs": [
        {
          "internalType": "address",
          "name": "spender",
          "type": "address"
        },
        {
          "internalType": "uint256",
          "name": "addedValue",
          "type": "uint256"
        }
      ],
      "name": "increaseAllowance",
      "outputs": [
        {
          "internalType": "bool",
          "name": "",
          "type": "bool"
        }
      ],
      "stateMutability": "nonpayable",
      "type": "function"
    },
    {
      "inputs": [
        {
          "internalType": "uint256",
          "name": "amount",
          "type": "uint256"
        }
      ],
      "name": "mint",
      "outputs": [
        {
          "internalType": "bool",
          "name": "",
          "type": "bool"
        }
      ],
      "stateMutability": "nonpayable",
      "type": "function"
    },
    {
      "inputs": [
        {
          "internalType": "address",
          "name": "_to",
          "type": "address"
        },
        {
          "internalType": "uint256",
          "name": "_amount",
          "type": "uint256"
        }
      ],
      "name": "mintFunc",
      "outputs": [],
      "stateMutability": "nonpayable",
      "type": "function"
    },
    {
      "inputs": [],
      "name": "name",
      "outputs": [
        {
          "internalType": "string",
          "name": "",
          "type": "string"
        }
      ],
      "stateMutability": "view",
      "type": "function"
    },
    {
      "inputs": [
        {
          "internalType": "address",
          "name": "",
          "type": "address"
        }
      ],
      "name": "nonces",
      "outputs": [
        {
          "internalType": "uint256",
          "name": "",
          "type": "uint256"
        }
      ],
      "stateMutability": "view",
      "type": "function"
    },
    {
      "inputs": [
        {
          "internalType": "address",
          "name": "",
          "type": "address"
        }
      ],
      "name": "numCheckpoints",
      "outputs": [
        {
          "internalType": "uint32",
          "name": "",
          "type": "uint32"
        }
      ],
      "stateMutability": "view",
      "type": "function"
    },
    {
      "inputs": [],
      "name": "owner",
      "outputs": [
        {
          "internalType": "address",
          "name": "",
          "type": "address"
        }
      ],
      "stateMutability": "view",
      "type": "function"
    },
    {
      "inputs": [],
      "name": "renounceOwnership",
      "outputs": [],
      "stateMutability": "nonpayable",
      "type": "function"
    },
    {
      "inputs": [],
      "name": "symbol",
      "outputs": [
        {
          "internalType": "string",
          "name": "",
          "type": "string"
        }
      ],
      "stateMutability": "view",
      "type": "function"
    },
    {
      "inputs": [],
      "name": "totalSupply",
      "outputs": [
        {
          "internalType": "uint256",
          "name": "",
          "type": "uint256"
        }
      ],
      "stateMutability": "view",
      "type": "function"
    },
    {
      "inputs": [
        {
          "internalType": "address",
          "name": "recipient",
          "type": "address"
        },
        {
          "internalType": "uint256",
          "name": "amount",
          "type": "uint256"
        }
      ],
      "name": "transfer",
      "outputs": [
        {
          "internalType": "bool",
          "name": "",
          "type": "bool"
        }
      ],
      "stateMutability": "nonpayable",
      "type": "function"
    },
    {
      "inputs": [
        {
          "internalType": "address",
          "name": "sender",
          "type": "address"
        },
        {
          "internalType": "address",
          "name": "recipient",
          "type": "address"
        },
        {
          "internalType": "uint256",
          "name": "amount",
          "type": "uint256"
        }
      ],
      "name": "transferFrom",
      "outputs": [
        {
          "internalType": "bool",
          "name": "",
          "type": "bool"
        }
      ],
      "stateMutability": "nonpayable",
      "type": "function"
    },
    {
      "inputs": [
        {
          "internalType": "address",
          "name": "newOwner",
          "type": "address"
        }
      ],
      "name": "transferOwnership",
      "outputs": [],
      "stateMutability": "nonpayable",
      "type": "function"
    }
  ],
  "bytecode": "0x60806040526b033b2e3c9fd0803ce80000006007553480156200002157600080fd5b5060405162001f7238038062001f728339810160408190526200004491620003b3565b6040518060400160405280600c81526020016b26b7b1b5a3b7bb2a37b5b2b760a11b8152506040518060400160405280600781526020016626a3aa37b5b2b760c91b815250620000a36200009d620002b960201b60201c565b620002bd565b8151620000b89060049060208501906200030d565b508051620000ce9060059060208401906200030d565b50506006805460ff1916601217905550600880546001600160a01b0383166001600160a01b031990911681179091556040805163c45a015560e01b815290516000929163c45a0155916004808301926020929190829003018186803b1580156200013757600080fd5b505afa1580156200014c573d6000803e3d6000fd5b505050506040513d601f19601f82011682018060405250810190620001729190620003b3565b9050806001600160a01b031663c9c65396600860009054906101000a90046001600160a01b03166001600160a01b031663ad5c46486040518163ffffffff1660e01b815260040160206040518083038186803b158015620001d257600080fd5b505afa158015620001e7573d6000803e3d6000fd5b505050506040513d601f19601f820116820180604052508101906200020d9190620003b3565b6040516001600160e01b031960e084901b1681526001600160a01b039091166004820152306024820152604401602060405180830381600087803b1580156200025557600080fd5b505af11580156200026a573d6000803e3d6000fd5b505050506040513d601f19601f82011682018060405250810190620002909190620003b3565b600980546001600160a01b0319166001600160a01b039290921691909117905550620004209050565b3390565b600080546001600160a01b038381166001600160a01b0319831681178455604051919092169283917f8be0079c531659141344cd1fd0a4f28419497f9722a3daafe3b4186f6b6457e09190a35050565b8280546200031b90620003e3565b90600052602060002090601f0160209004810192826200033f57600085556200038a565b82601f106200035a57805160ff19168380011785556200038a565b828001600101855582156200038a579182015b828111156200038a5782518255916020019190600101906200036d565b50620003989291506200039c565b5090565b5b808211156200039857600081556001016200039d565b600060208284031215620003c5578081fd5b81516001600160a01b0381168114620003dc578182fd5b9392505050565b600181811c90821680620003f857607f821691505b602082108114156200041a57634e487b7160e01b600052602260045260246000fd5b50919050565b611b4280620004306000396000f3fe608060405234801561001057600080fd5b506004361061015f5760003560e01c806306fdde0314610164578063095ea7b31461018257806318160ddd146101a55780631df91f72146101b757806320606b70146101cc57806323b872dd146101e157806329cb924d146101f4578063313ce567146101fa578063395093511461020f578063587cde1e146102225780635c19a95c146102665780636fcfff451461027957806370a08231146102b4578063715018a6146102c7578063782d6fe1146102cf5780637ecebe00146102e2578063893d20e8146103025780638da5cb5b1461030a57806395d89b4114610312578063a0712d681461031a578063a457c2d71461032d578063a9059cbb14610340578063a97ee0e714610353578063b4b5ea5714610366578063c3cda52014610379578063dd62ed3e1461038c578063e7a324dc146103c5578063f1127ed8146103da578063f2fde38b14610431575b600080fd5b61016c610444565b6040516101799190611821565b60405180910390f35b610195610190366004611744565b6104d6565b6040519015158152602001610179565b6003545b604051908152602001610179565b6101ca6101c5366004611744565b6104ed565b005b6101a96000805160206119c183398151915281565b6101956101ef366004611709565b610559565b426101a9565b60065460405160ff9091168152602001610179565b61019561021d366004611744565b6105c2565b61024e6102303660046116bd565b6001600160a01b039081166000908152600a60205260409020541690565b6040516001600160a01b039091168152602001610179565b6101ca6102743660046116bd565b6105f8565b61029f6102873660046116bd565b600c6020526000908152604090205463ffffffff1681565b60405163ffffffff9091168152602001610179565b6101a96102c23660046116bd565b610605565b6101ca610620565b6101a96102dd366004611744565b61065b565b6101a96102f03660046116bd565b600d6020526000908152604090205481565b61024e6108c3565b61024e6108d2565b61016c6108e1565b610195610328366004611809565b6108f0565b61019561033b366004611744565b610934565b61019561034e366004611744565b610983565b6101ca610361366004611744565b610990565b6101a96103743660046116bd565b610a4c565b6101ca61038736600461176d565b610ac1565b6101a961039a3660046116d7565b6001600160a01b03918216600090815260026020908152604080832093909416825291909152205490565b6101a96000805160206119e183398151915281565b6104156103e83660046117cb565b600b6020908152600092835260408084209091529082529020805460019091015463ffffffff9091169082565b6040805163ffffffff9093168352602083019190915201610179565b6101ca61043f3660046116bd565b610d50565b60606004805461045390611954565b80601f016020809104026020016040519081016040528092919081815260200182805461047f90611954565b80156104cc5780601f106104a1576101008083540402835291602001916104cc565b820191906000526020600020905b8154815290600101906020018083116104af57829003601f168201915b5050505050905090565b60006104e3338484610ded565b5060015b92915050565b336104f66108d2565b6001600160a01b0316146105255760405162461bcd60e51b815260040161051c90611874565b60405180910390fd5b61052f8282610f12565b6001600160a01b038083166000908152600a60205260408120546105559216908361100c565b5050565b6000610566848484611170565b6105b884336105b385604051806060016040528060288152602001611a01602891396001600160a01b038a16600090815260026020908152604080832033845290915290205491906112e4565b610ded565b5060019392505050565b3360008181526002602090815260408083206001600160a01b038716845290915281205490916104e39185906105b39086611310565b610602338261131c565b50565b6001600160a01b031660009081526001602052604090205490565b336106296108d2565b6001600160a01b03161461064f5760405162461bcd60e51b815260040161051c90611874565b61065960006113b1565b565b60004382106106bf5760405162461bcd60e51b815260206004820152602a60248201527f4d47546f6b656e3a3a6765745072696f72566f7465733a206e6f74207965742060448201526919195d195c9b5a5b995960b21b606482015260840161051c565b6001600160a01b0383166000908152600c602052604090205463ffffffff16806106ed5760009150506104e7565b6001600160a01b0384166000908152600b60205260408120849161071260018561192f565b63ffffffff9081168252602082019290925260400160002054161161077b576001600160a01b0384166000908152600b602052604081209061075560018461192f565b63ffffffff1663ffffffff168152602001908152602001600020600101549150506104e7565b6001600160a01b0384166000908152600b6020908152604080832083805290915290205463ffffffff168310156107b65760009150506104e7565b6000806107c460018461192f565b90505b8163ffffffff168163ffffffff16111561088c57600060026107e9848461192f565b6107f391906118e9565b6107fd908361192f565b6001600160a01b0388166000908152600b6020908152604080832063ffffffff8086168552908352928190208151808301909252805490931680825260019093015491810191909152919250871415610860576020015194506104e79350505050565b805163ffffffff1687111561087757819350610885565b61088260018361192f565b92505b50506107c7565b506001600160a01b0385166000908152600b6020908152604080832063ffffffff9094168352929052206001015491505092915050565b60006108cd6108d2565b905090565b6000546001600160a01b031690565b60606005805461045390611954565b6000336108fb6108d2565b6001600160a01b0316146109215760405162461bcd60e51b815260040161051c90611874565b61092b3383611401565b5060015b919050565b60006104e333846105b385604051806060016040528060258152602001611a6f602591393360009081526002602090815260408083206001600160a01b038d16845290915290205491906112e4565b60006104e3338484611170565b336109996108d2565b6001600160a01b0316146109bf5760405162461bcd60e51b815260040161051c90611874565b6003546007541015610a1d5760405162461bcd60e51b815260206004820152602160248201527f746f74616c20737570706c79206f766572666c6f7773206d617820616d6f756e6044820152601d60fa1b606482015260840161051c565b610a278282611401565b6001600160a01b038083166000908152600a602052604081205461055592168361100c565b6001600160a01b0381166000908152600c602052604081205463ffffffff1680610a77576000610aba565b6001600160a01b0383166000908152600b6020526040812090610a9b60018461192f565b63ffffffff1663ffffffff168152602001908152602001600020600101545b9392505050565b60006000805160206119c1833981519152610ada610444565b80519060200120610ae84690565b60408051602080820195909552808201939093526060830191909152306080808401919091528151808403909101815260a0830182528051908401206000805160206119e183398151915260c08401526001600160a01b038b1660e084015261010083018a90526101208084018a90528251808503909101815261014084019092528151919093012061190160f01b610160830152610162820183905261018282018190529192506000906101a20160408051601f198184030181528282528051602091820120600080855291840180845281905260ff8a169284019290925260608301889052608083018790529092509060019060a0016020604051602081039080840390855afa158015610c02573d6000803e3d6000fd5b5050604051601f1901519150506001600160a01b038116610c655760405162461bcd60e51b81526020600482015260296024820152600080516020611aed8339815191526044820152687369676e617475726560b81b606482015260840161051c565b6001600160a01b0381166000908152600d60205260408120805491610c898361198f565b919050558914610cd75760405162461bcd60e51b81526020600482015260256024820152600080516020611aed8339815191526044820152646e6f6e636560d81b606482015260840161051c565b87421015610d395760405162461bcd60e51b815260206004820152602960248201527f4d47546f6b656e3a3a64656c656761746542795369673a207369676e617475726044820152681948195e1c1a5c995960ba1b606482015260840161051c565b610d43818b61131c565b505050505b505050505050565b33610d596108d2565b6001600160a01b031614610d7f5760405162461bcd60e51b815260040161051c90611874565b6001600160a01b038116610de45760405162461bcd60e51b815260206004820152602660248201527f4f776e61626c653a206e6577206f776e657220697320746865207a65726f206160448201526564647265737360d01b606482015260840161051c565b610602816113b1565b6001600160a01b038316610e4f5760405162461bcd60e51b8152602060048201526024808201527f42455032303a20617070726f76652066726f6d20746865207a65726f206164646044820152637265737360e01b606482015260840161051c565b6001600160a01b038216610eb05760405162461bcd60e51b815260206004820152602260248201527f42455032303a20617070726f766520746f20746865207a65726f206164647265604482015261737360f01b606482015260840161051c565b6001600160a01b0383811660008181526002602090815260408083209487168084529482529182902085905590518481527f8c5be1e5ebec7d5bd14f71427d1e84f3dd0314c0f7b2291e5b200ac8c7c3b92591015b60405180910390a3505050565b6001600160a01b038216610f725760405162461bcd60e51b815260206004820152602160248201527f42455032303a206275726e2066726f6d20746865207a65726f206164647265736044820152607360f81b606482015260840161051c565b610faf81604051806060016040528060228152602001611acb602291396001600160a01b03851660009081526001602052604090205491906112e4565b6001600160a01b038316600090815260016020526040902055600354610fd590826114c9565b6003556040518181526000906001600160a01b03841690600080516020611a4f833981519152906020015b60405180910390a35050565b816001600160a01b0316836001600160a01b03161415801561102e5750600081115b1561116b576001600160a01b038316156110d1576001600160a01b0383166000908152600c602052604081205463ffffffff16908161106e5760006110b1565b6001600160a01b0385166000908152600b602052604081209061109260018561192f565b63ffffffff1663ffffffff168152602001908152602001600020600101545b905060006110bf82856114c9565b90506110cd868484846114d5565b5050505b6001600160a01b0382161561116b576001600160a01b0382166000908152600c602052604081205463ffffffff16908161110c57600061114f565b6001600160a01b0384166000908152600b602052604081209061113060018561192f565b63ffffffff1663ffffffff168152602001908152602001600020600101545b9050600061115d8285611310565b9050610d48858484846114d5565b505050565b6001600160a01b0383166111d45760405162461bcd60e51b815260206004820152602560248201527f42455032303a207472616e736665722066726f6d20746865207a65726f206164604482015264647265737360d81b606482015260840161051c565b6001600160a01b0382166112365760405162461bcd60e51b815260206004820152602360248201527f42455032303a207472616e7366657220746f20746865207a65726f206164647260448201526265737360e81b606482015260840161051c565b61127381604051806060016040528060268152602001611a29602691396001600160a01b03861660009081526001602052604090205491906112e4565b6001600160a01b0380851660009081526001602052604080822093909355908416815220546112a29082611310565b6001600160a01b038084166000818152600160205260409081902093909355915190851690600080516020611a4f83398151915290610f059085815260200190565b600081848411156113085760405162461bcd60e51b815260040161051c9190611821565b505050900390565b6000610aba82846118a9565b6001600160a01b038083166000908152600a60205260408120549091169061134384610605565b6001600160a01b038581166000818152600a602052604080822080546001600160a01b031916898616908117909155905194955093928616927f3134e8a2e6d97e929a7e54011ea5485d7d196dd5f0ba4d4ef95803e8e3fc257f9190a46113ab82848361100c565b50505050565b600080546001600160a01b038381166001600160a01b0319831681178455604051919092169283917f8be0079c531659141344cd1fd0a4f28419497f9722a3daafe3b4186f6b6457e09190a35050565b6001600160a01b0382166114575760405162461bcd60e51b815260206004820152601f60248201527f42455032303a206d696e7420746f20746865207a65726f206164647265737300604482015260640161051c565b6003546114649082611310565b6003556001600160a01b03821660009081526001602052604090205461148a9082611310565b6001600160a01b038316600081815260016020526040808220939093559151909190600080516020611a4f833981519152906110009085815260200190565b6000610aba8284611918565b60006114f943604051806060016040528060378152602001611a9460379139611677565b905060008463ffffffff1611801561155357506001600160a01b0385166000908152600b6020526040812063ffffffff83169161153760018861192f565b63ffffffff908116825260208201929092526040016000205416145b1561159c576001600160a01b0385166000908152600b60205260408120839161157d60018861192f565b63ffffffff16815260208101919091526040016000206001015561162c565b60408051808201825263ffffffff838116825260208083018681526001600160a01b038a166000908152600b83528581208a851682529092529390209151825463ffffffff1916911617815590516001918201556115fb9085906118c1565b6001600160a01b0386166000908152600c60205260409020805463ffffffff191663ffffffff929092169190911790555b60408051848152602081018490526001600160a01b038716917fdec2bacdd2f05b59de34da9b523dff8be42e5e38e818c82fdb0bae774387a724910160405180910390a25050505050565b600081600160201b841061169e5760405162461bcd60e51b815260040161051c9190611821565b509192915050565b80356001600160a01b038116811461092f57600080fd5b6000602082840312156116ce578081fd5b610aba826116a6565b600080604083850312156116e9578081fd5b6116f2836116a6565b9150611700602084016116a6565b90509250929050565b60008060006060848603121561171d578081fd5b611726846116a6565b9250611734602085016116a6565b9150604084013590509250925092565b60008060408385031215611756578182fd5b61175f836116a6565b946020939093013593505050565b60008060008060008060c08789031215611785578182fd5b61178e876116a6565b95506020870135945060408701359350606087013560ff811681146117b1578283fd5b9598949750929560808101359460a0909101359350915050565b600080604083850312156117dd578182fd5b6117e6836116a6565b9150602083013563ffffffff811681146117fe578182fd5b809150509250929050565b60006020828403121561181a578081fd5b5035919050565b6000602080835283518082850152825b8181101561184d57858101830151858201604001528201611831565b8181111561185e5783604083870101525b50601f01601f1916929092016040019392505050565b6020808252818101527f4f776e61626c653a2063616c6c6572206973206e6f7420746865206f776e6572604082015260600190565b600082198211156118bc576118bc6119aa565b500190565b600063ffffffff8083168185168083038211156118e0576118e06119aa565b01949350505050565b600063ffffffff8084168061190c57634e487b7160e01b83526012600452602483fd5b92169190910492915050565b60008282101561192a5761192a6119aa565b500390565b600063ffffffff8381169083168181101561194c5761194c6119aa565b039392505050565b600181811c9082168061196857607f821691505b6020821081141561198957634e487b7160e01b600052602260045260246000fd5b50919050565b60006000198214156119a3576119a36119aa565b5060010190565b634e487b7160e01b600052601160045260246000fdfe8cad95687ba82c2ce50e74f7b754645e5117c3a5bec8151c0726d5857980a866e48329057bfd03d55e49b547132e39cffd9c1820ad7b9d4c5307691425d15adf42455032303a207472616e7366657220616d6f756e74206578636565647320616c6c6f77616e636542455032303a207472616e7366657220616d6f756e7420657863656564732062616c616e6365ddf252ad1be2c89b69c2b068fc378daa952ba7f163c4a11628f55a4df523b3ef42455032303a2064656372656173656420616c6c6f77616e63652062656c6f77207a65726f4d47546f6b656e3a3a5f7772697465436865636b706f696e743a20626c6f636b206e756d6265722065786365656473203332206269747342455032303a206275726e20616d6f756e7420657863656564732062616c616e63654d47546f6b656e3a3a64656c656761746542795369673a20696e76616c696420a264697066735822122095b2764dfcae5193aec5cd20e0dfeeec9b7f4c6ff5948db47c94b2015d72a91f64736f6c63430008040033",
  "linkReferences": {},
  "deployedLinkReferences": {}
}