{
  "_format": "hh-sol-artifact-1",
  "contractName": "MockGovToken",
  "sourceName": "contracts/MGGovToken.sol",
  "abi": [
    {
      "inputs": [],
      "stateMutability": "nonpayable",
      "type": "constructor"
    },
    {
      "anonymous": false,
      "inputs": [
        {
          "indexed": true,
          "internalType": "address",
          "name": "owner",
          "type": "address"
        },
        {
          "indexed": true,
          "internalType": "address",
          "name": "spender",
          "type": "address"
        },
        {
          "indexed": false,
          "internalType": "uint256",
          "name": "value",
          "type": "uint256"
        }
      ],
      "name": "Approval",
      "type": "event"
    },
    {
      "anonymous": false,
      "inputs": [
        {
          "indexed": true,
          "internalType": "address",
          "name": "delegator",
          "type": "address"
        },
        {
          "indexed": true,
          "internalType": "address",
          "name": "fromDelegate",
          "type": "address"
        },
        {
          "indexed": true,
          "internalType": "address",
          "name": "toDelegate",
          "type": "address"
        }
      ],
      "name": "DelegateChanged",
      "type": "event"
    },
    {
      "anonymous": false,
      "inputs": [
        {
          "indexed": true,
          "internalType": "address",
          "name": "delegate",
          "type": "address"
        },
        {
          "indexed": false,
          "internalType": "uint256",
          "name": "previousBalance",
          "type": "uint256"
        },
        {
          "indexed": false,
          "internalType": "uint256",
          "name": "newBalance",
          "type": "uint256"
        }
      ],
      "name": "DelegateVotesChanged",
      "type": "event"
    },
    {
      "anonymous": false,
      "inputs": [
        {
          "indexed": true,
          "internalType": "address",
          "name": "previousOwner",
          "type": "address"
        },
        {
          "indexed": true,
          "internalType": "address",
          "name": "newOwner",
          "type": "address"
        }
      ],
      "name": "OwnershipTransferred",
      "type": "event"
    },
    {
      "anonymous": false,
      "inputs": [
        {
          "indexed": true,
          "internalType": "address",
          "name": "from",
          "type": "address"
        },
        {
          "indexed": true,
          "internalType": "address",
          "name": "to",
          "type": "address"
        },
        {
          "indexed": false,
          "internalType": "uint256",
          "name": "value",
          "type": "uint256"
        }
      ],
      "name": "Transfer",
      "type": "event"
    },
    {
      "inputs": [],
      "name": "DELEGATION_TYPEHASH",
      "outputs": [
        {
          "internalType": "bytes32",
          "name": "",
          "type": "bytes32"
        }
      ],
      "stateMutability": "view",
      "type": "function"
    },
    {
      "inputs": [],
      "name": "DOMAIN_TYPEHASH",
      "outputs": [
        {
          "internalType": "bytes32",
          "name": "",
          "type": "bytes32"
        }
      ],
      "stateMutability": "view",
      "type": "function"
    },
    {
      "inputs": [
        {
          "internalType": "address",
          "name": "owner",
          "type": "address"
        },
        {
          "internalType": "address",
          "name": "spender",
          "type": "address"
        }
      ],
      "name": "allowance",
      "outputs": [
        {
          "internalType": "uint256",
          "name": "",
          "type": "uint256"
        }
      ],
      "stateMutability": "view",
      "type": "function"
    },
    {
      "inputs": [
        {
          "internalType": "address",
          "name": "spender",
          "type": "address"
        },
        {
          "internalType": "uint256",
          "name": "amount",
          "type": "uint256"
        }
      ],
      "name": "approve",
      "outputs": [
        {
          "internalType": "bool",
          "name": "",
          "type": "bool"
        }
      ],
      "stateMutability": "nonpayable",
      "type": "function"
    },
    {
      "inputs": [
        {
          "internalType": "address",
          "name": "account",
          "type": "address"
        }
      ],
      "name": "balanceOf",
      "outputs": [
        {
          "internalType": "uint256",
          "name": "",
          "type": "uint256"
        }
      ],
      "stateMutability": "view",
      "type": "function"
    },
    {
      "inputs": [
        {
          "internalType": "address",
          "name": "_from",
          "type": "address"
        },
        {
          "internalType": "uint256",
          "name": "_amount",
          "type": "uint256"
        }
      ],
      "name": "burn",
      "outputs": [],
      "stateMutability": "nonpayable",
      "type": "function"
    },
    {
      "inputs": [
        {
          "internalType": "address",
          "name": "",
          "type": "address"
        },
        {
          "internalType": "uint32",
          "name": "",
          "type": "uint32"
        }
      ],
      "name": "checkpoints",
      "outputs": [
        {
          "internalType": "uint32",
          "name": "fromBlock",
          "type": "uint32"
        },
        {
          "internalType": "uint256",
          "name": "votes",
          "type": "uint256"
        }
      ],
      "stateMutability": "view",
      "type": "function"
    },
    {
      "inputs": [],
      "name": "decimals",
      "outputs": [
        {
          "internalType": "uint8",
          "name": "",
          "type": "uint8"
        }
      ],
      "stateMutability": "view",
      "type": "function"
    },
    {
      "inputs": [
        {
          "internalType": "address",
          "name": "spender",
          "type": "address"
        },
        {
          "internalType": "uint256",
          "name": "subtractedValue",
          "type": "uint256"
        }
      ],
      "name": "decreaseAllowance",
      "outputs": [
        {
          "internalType": "bool",
          "name": "",
          "type": "bool"
        }
      ],
      "stateMutability": "nonpayable",
      "type": "function"
    },
    {
      "inputs": [
        {
          "internalType": "address",
          "name": "delegatee",
          "type": "address"
        }
      ],
      "name": "delegate",
      "outputs": [],
      "stateMutability": "nonpayable",
      "type": "function"
    },
    {
      "inputs": [
        {
          "internalType": "address",
          "name": "delegatee",
          "type": "address"
        },
        {
          "internalType": "uint256",
          "name": "nonce",
          "type": "uint256"
        },
        {
          "internalType": "uint256",
          "name": "expiry",
          "type": "uint256"
        },
        {
          "internalType": "uint8",
          "name": "v",
          "type": "uint8"
        },
        {
          "internalType": "bytes32",
          "name": "r",
          "type": "bytes32"
        },
        {
          "internalType": "bytes32",
          "name": "s",
          "type": "bytes32"
        }
      ],
      "name": "delegateBySig",
      "outputs": [],
      "stateMutability": "nonpayable",
      "type": "function"
    },
    {
      "inputs": [
        {
          "internalType": "address",
          "name": "delegator",
          "type": "address"
        }
      ],
      "name": "delegates",
      "outputs": [
        {
          "internalType": "address",
          "name": "",
          "type": "address"
        }
      ],
      "stateMutability": "view",
      "type": "function"
    },
    {
      "inputs": [
        {
          "internalType": "address",
          "name": "account",
          "type": "address"
        }
      ],
      "name": "getCurrentVotes",
      "outputs": [
        {
          "internalType": "uint256",
          "name": "",
          "type": "uint256"
        }
      ],
      "stateMutability": "view",
      "type": "function"
    },
    {
      "inputs": [],
      "name": "getOwner",
      "outputs": [
        {
          "internalType": "address",
          "name": "",
          "type": "address"
        }
      ],
      "stateMutability": "view",
      "type": "function"
    },
    {
      "inputs": [
        {
          "internalType": "address",
          "name": "account",
          "type": "address"
        },
        {
          "internalType": "uint256",
          "name": "blockNumber",
          "type": "uint256"
        }
      ],
      "name": "getPriorVotes",
      "outputs": [
        {
          "internalType": "uint256",
          "name": "",
          "type": "uint256"
        }
      ],
      "stateMutability": "view",
      "type": "function"
    },
    {
      "inputs": [
        {
          "internalType": "address",
          "name": "spender",
          "type": "address"
        },
        {
          "internalType": "uint256",
          "name": "addedValue",
          "type": "uint256"
        }
      ],
      "name": "increaseAllowance",
      "outputs": [
        {
          "internalType": "bool",
          "name": "",
          "type": "bool"
        }
      ],
      "stateMutability": "nonpayable",
      "type": "function"
    },
    {
      "inputs": [
        {
          "internalType": "address",
          "name": "_to",
          "type": "address"
        },
        {
          "internalType": "uint256",
          "name": "_amount",
          "type": "uint256"
        }
      ],
      "name": "mint",
      "outputs": [],
      "stateMutability": "nonpayable",
      "type": "function"
    },
    {
      "inputs": [
        {
          "internalType": "uint256",
          "name": "amount",
          "type": "uint256"
        }
      ],
      "name": "mint",
      "outputs": [
        {
          "internalType": "bool",
          "name": "",
          "type": "bool"
        }
      ],
      "stateMutability": "nonpayable",
      "type": "function"
    },
    {
      "inputs": [],
      "name": "name",
      "outputs": [
        {
          "internalType": "string",
          "name": "",
          "type": "string"
        }
      ],
      "stateMutability": "view",
      "type": "function"
    },
    {
      "inputs": [
        {
          "internalType": "address",
          "name": "",
          "type": "address"
        }
      ],
      "name": "nonces",
      "outputs": [
        {
          "internalType": "uint256",
          "name": "",
          "type": "uint256"
        }
      ],
      "stateMutability": "view",
      "type": "function"
    },
    {
      "inputs": [
        {
          "internalType": "address",
          "name": "",
          "type": "address"
        }
      ],
      "name": "numCheckpoints",
      "outputs": [
        {
          "internalType": "uint32",
          "name": "",
          "type": "uint32"
        }
      ],
      "stateMutability": "view",
      "type": "function"
    },
    {
      "inputs": [],
      "name": "owner",
      "outputs": [
        {
          "internalType": "address",
          "name": "",
          "type": "address"
        }
      ],
      "stateMutability": "view",
      "type": "function"
    },
    {
      "inputs": [],
      "name": "renounceOwnership",
      "outputs": [],
      "stateMutability": "nonpayable",
      "type": "function"
    },
    {
      "inputs": [],
      "name": "symbol",
      "outputs": [
        {
          "internalType": "string",
          "name": "",
          "type": "string"
        }
      ],
      "stateMutability": "view",
      "type": "function"
    },
    {
      "inputs": [],
      "name": "totalSupply",
      "outputs": [
        {
          "internalType": "uint256",
          "name": "",
          "type": "uint256"
        }
      ],
      "stateMutability": "view",
      "type": "function"
    },
    {
      "inputs": [
        {
          "internalType": "address",
          "name": "recipient",
          "type": "address"
        },
        {
          "internalType": "uint256",
          "name": "amount",
          "type": "uint256"
        }
      ],
      "name": "transfer",
      "outputs": [
        {
          "internalType": "bool",
          "name": "",
          "type": "bool"
        }
      ],
      "stateMutability": "nonpayable",
      "type": "function"
    },
    {
      "inputs": [
        {
          "internalType": "address",
          "name": "sender",
          "type": "address"
        },
        {
          "internalType": "address",
          "name": "recipient",
          "type": "address"
        },
        {
          "internalType": "uint256",
          "name": "amount",
          "type": "uint256"
        }
      ],
      "name": "transferFrom",
      "outputs": [
        {
          "internalType": "bool",
          "name": "",
          "type": "bool"
        }
      ],
      "stateMutability": "nonpayable",
      "type": "function"
    },
    {
      "inputs": [
        {
          "internalType": "address",
          "name": "newOwner",
          "type": "address"
        }
      ],
      "name": "transferOwnership",
      "outputs": [],
      "stateMutability": "nonpayable",
      "type": "function"
    }
  ],
  "bytecode": "0x60806040523480156200001157600080fd5b506040518060400160405280600c81526020016b26b7b1b5a3b7bb2a37b5b2b760a11b8152506040518060400160405280600781526020016626a3aa37b5b2b760c91b815250600062000069620000f460201b60201c565b600080546001600160a01b0319166001600160a01b0383169081178255604051929350917f8be0079c531659141344cd1fd0a4f28419497f9722a3daafe3b4186f6b6457e0908290a3508151620000c8906004906020850190620000f8565b508051620000de906005906020840190620000f8565b50506006805460ff191660121790555062000194565b3390565b828054600181600116156101000203166002900490600052602060002090601f016020900481019282601f106200013b57805160ff19168380011785556200016b565b828001600101855582156200016b579182015b828111156200016b5782518255916020019190600101906200014e565b50620001799291506200017d565b5090565b5b808211156200017957600081556001016200017e565b611cff80620001a46000396000f3fe608060405234801561001057600080fd5b50600436106101545760003560e01c806306fdde0314610159578063095ea7b3146101d657806318160ddd1461021657806320606b701461023057806323b872dd14610238578063313ce5671461026e578063395093511461028c57806340c10f19146102b8578063587cde1e146102e65780635c19a95c146103285780636fcfff451461034e57806370a082311461038d578063715018a6146103b3578063782d6fe1146103bb5780637ecebe00146103e7578063893d20e81461040d5780638da5cb5b1461041557806395d89b411461041d5780639dc29fac14610425578063a0712d6814610451578063a457c2d71461046e578063a9059cbb1461049a578063b4b5ea57146104c6578063c3cda520146104ec578063dd62ed3e14610533578063e7a324dc14610561578063f1127ed814610569578063f2fde38b146105bb575b600080fd5b6101616105e1565b6040805160208082528351818301528351919283929083019185019080838360005b8381101561019b578181015183820152602001610183565b50505050905090810190601f1680156101c85780820380516001836020036101000a031916815260200191505b509250505060405180910390f35b610202600480360360408110156101ec57600080fd5b506001600160a01b038135169060200135610677565b604080519115158252519081900360200190f35b61021e610695565b60408051918252519081900360200190f35b61021e61069b565b6102026004803603606081101561024e57600080fd5b506001600160a01b038135811691602081013590911690604001356106ad565b610276610734565b6040805160ff9092168252519081900360200190f35b610202600480360360408110156102a257600080fd5b506001600160a01b03813516906020013561073d565b6102e4600480360360408110156102ce57600080fd5b506001600160a01b03813516906020013561078b565b005b61030c600480360360208110156102fc57600080fd5b50356001600160a01b0316610816565b604080516001600160a01b039092168252519081900360200190f35b6102e46004803603602081101561033e57600080fd5b50356001600160a01b0316610834565b6103746004803603602081101561036457600080fd5b50356001600160a01b0316610841565b6040805163ffffffff9092168252519081900360200190f35b61021e600480360360208110156103a357600080fd5b50356001600160a01b0316610859565b6102e4610874565b61021e600480360360408110156103d157600080fd5b506001600160a01b038135169060200135610904565b61021e600480360360208110156103fd57600080fd5b50356001600160a01b0316610b0c565b61030c610b1e565b61030c610b2d565b610161610b3c565b6102e46004803603604081101561043b57600080fd5b506001600160a01b038135169060200135610b9d565b6102026004803603602081101561046757600080fd5b5035610c25565b6102026004803603604081101561048457600080fd5b506001600160a01b038135169060200135610c98565b610202600480360360408110156104b057600080fd5b506001600160a01b038135169060200135610d00565b61021e600480360360208110156104dc57600080fd5b50356001600160a01b0316610d14565b6102e4600480360360c081101561050257600080fd5b506001600160a01b038135169060208101359060408101359060ff6060820135169060808101359060a00135610d78565b61021e6004803603604081101561054957600080fd5b506001600160a01b0381358116916020013516610fc7565b61021e610ff2565b61059b6004803603604081101561057f57600080fd5b5080356001600160a01b0316906020013563ffffffff16611004565b6040805163ffffffff909316835260208301919091528051918290030190f35b6102e4600480360360208110156105d157600080fd5b50356001600160a01b0316611031565b60048054604080516020601f600260001961010060018816150201909516949094049384018190048102820181019092528281526060939092909183018282801561066d5780601f106106425761010080835404028352916020019161066d565b820191906000526020600020905b81548152906001019060200180831161065057829003601f168201915b5050505050905090565b600061068b610684611092565b8484611096565b5060015b92915050565b60035490565b600080516020611a3183398151915281565b60006106ba848484611182565b61072a846106c6611092565b61072585604051806060016040528060288152602001611ae6602891396001600160a01b038a16600090815260026020526040812090610704611092565b6001600160a01b0316815260208101919091526040016000205491906112c2565b611096565b5060019392505050565b60065460ff1690565b600061068b61074a611092565b84610725856002600061075b611092565b6001600160a01b03908116825260208083019390935260409182016000908120918c168152925290205490611359565b610793611092565b6000546001600160a01b039081169116146107e3576040805162461bcd60e51b81526020600482018190526024820152600080516020611b0e833981519152604482015290519081900360640190fd5b6107ed82826113b1565b6001600160a01b03808316600090815260076020526040812054610812921683611485565b5050565b6001600160a01b039081166000908152600760205260409020541690565b61083e33826115c7565b50565b60096020526000908152604090205463ffffffff1681565b6001600160a01b031660009081526001602052604090205490565b61087c611092565b6000546001600160a01b039081169116146108cc576040805162461bcd60e51b81526020600482018190526024820152600080516020611b0e833981519152604482015290519081900360640190fd5b600080546040516001600160a01b0390911690600080516020611b2e833981519152908390a3600080546001600160a01b0319169055565b60004382106109445760405162461bcd60e51b815260040180806020018281038252602a815260200180611abc602a913960400191505060405180910390fd5b6001600160a01b03831660009081526009602052604090205463ffffffff168061097257600091505061068f565b6001600160a01b038416600090815260086020908152604080832063ffffffff6000198601811685529252909120541683106109e1576001600160a01b03841660009081526008602090815260408083206000199490940163ffffffff1683529290522060010154905061068f565b6001600160a01b038416600090815260086020908152604080832083805290915290205463ffffffff16831015610a1c57600091505061068f565b600060001982015b8163ffffffff168163ffffffff161115610ad557600282820363ffffffff16048103610a4e6119d0565b506001600160a01b038716600090815260086020908152604080832063ffffffff808616855290835292819020815180830190925280549093168082526001909301549181019190915290871415610ab05760200151945061068f9350505050565b805163ffffffff16871115610ac757819350610ace565b6001820392505b5050610a24565b506001600160a01b038516600090815260086020908152604080832063ffffffff9094168352929052206001015491505092915050565b600a6020526000908152604090205481565b6000610b28610b2d565b905090565b6000546001600160a01b031690565b60058054604080516020601f600260001961010060018816150201909516949094049384018190048102820181019092528281526060939092909183018282801561066d5780601f106106425761010080835404028352916020019161066d565b610ba5611092565b6000546001600160a01b03908116911614610bf5576040805162461bcd60e51b81526020600482018190526024820152600080516020611b0e833981519152604482015290519081900360640190fd5b610bff828261165c565b6001600160a01b0380831660009081526007602052604081205461081292169083611485565b6000610c2f611092565b6000546001600160a01b03908116911614610c7f576040805162461bcd60e51b81526020600482018190526024820152600080516020611b0e833981519152604482015290519081900360640190fd5b610c90610c8a611092565b836113b1565b506001919050565b600061068b610ca5611092565b8461072585604051806060016040528060258152602001611bb76025913960026000610ccf611092565b6001600160a01b03908116825260208083019390935260409182016000908120918d168152925290205491906112c2565b600061068b610d0d611092565b8484611182565b6001600160a01b03811660009081526009602052604081205463ffffffff1680610d3f576000610d71565b6001600160a01b038316600090815260086020908152604080832063ffffffff60001986011684529091529020600101545b9392505050565b6000600080516020611a31833981519152610d916105e1565b80519060200120610da061173a565b60408051602080820195909552808201939093526060830191909152306080808401919091528151808403909101815260a083018252805190840120600080516020611a9c83398151915260c08401526001600160a01b038b1660e084015261010083018a90526101208084018a9052825180850390910181526101408401835280519085012061190160f01b6101608501526101628401829052610182808501829052835180860390910181526101a285018085528151918701919091206000918290526101c2860180865281905260ff8b166101e287015261020286018a90526102228601899052935192965090949293909260019261024280840193601f198301929081900390910190855afa158015610ec1573d6000803e3d6000fd5b5050604051601f1901519150506001600160a01b038116610f135760405162461bcd60e51b8152600401808060200182810382526029815260200180611ca16029913960400191505060405180910390fd5b6001600160a01b0381166000908152600a602052604090208054600181019091558914610f715760405162461bcd60e51b8152600401808060200182810382526025815260200180611a776025913960400191505060405180910390fd5b87421115610fb05760405162461bcd60e51b8152600401808060200182810382526029815260200180611bfd6029913960400191505060405180910390fd5b610fba818b6115c7565b505050505b505050505050565b6001600160a01b03918216600090815260026020908152604080832093909416825291909152205490565b600080516020611a9c83398151915281565b60086020908152600092835260408084209091529082529020805460019091015463ffffffff9091169082565b611039611092565b6000546001600160a01b03908116911614611089576040805162461bcd60e51b81526020600482018190526024820152600080516020611b0e833981519152604482015290519081900360640190fd5b61083e8161173e565b3390565b6001600160a01b0383166110db5760405162461bcd60e51b8152600401808060200182810382526024815260200180611a0d6024913960400191505060405180910390fd5b6001600160a01b0382166111205760405162461bcd60e51b8152600401808060200182810382526022815260200180611c7f6022913960400191505060405180910390fd5b6001600160a01b03808416600081815260026020908152604080832094871680845294825291829020859055815185815291517f8c5be1e5ebec7d5bd14f71427d1e84f3dd0314c0f7b2291e5b200ac8c7c3b9259281900390910190a3505050565b6001600160a01b0383166111c75760405162461bcd60e51b81526004018080602001828103825260258152602001806119e86025913960400191505060405180910390fd5b6001600160a01b03821661120c5760405162461bcd60e51b8152600401808060200182810382526023815260200180611b946023913960400191505060405180910390fd5b61124981604051806060016040528060268152602001611b4e602691396001600160a01b03861660009081526001602052604090205491906112c2565b6001600160a01b0380851660009081526001602052604080822093909355908416815220546112789082611359565b6001600160a01b038084166000818152600160209081526040918290209490945580518581529051919392871692600080516020611b7483398151915292918290030190a3505050565b600081848411156113515760405162461bcd60e51b81526004018080602001828103825283818151815260200191508051906020019080838360005b838110156113165781810151838201526020016112fe565b50505050905090810190601f1680156113435780820380516001836020036101000a031916815260200191505b509250505060405180910390fd5b505050900390565b600082820183811015610d71576040805162461bcd60e51b815260206004820152601b60248201527a536166654d6174683a206164646974696f6e206f766572666c6f7760281b604482015290519081900360640190fd5b6001600160a01b03821661140c576040805162461bcd60e51b815260206004820152601f60248201527f42455032303a206d696e7420746f20746865207a65726f206164647265737300604482015290519081900360640190fd5b6003546114199082611359565b6003556001600160a01b03821660009081526001602052604090205461143f9082611359565b6001600160a01b0383166000818152600160209081526040808320949094558351858152935192939192600080516020611b748339815191529281900390910190a35050565b816001600160a01b0316836001600160a01b0316141580156114a75750600081115b156115c2576001600160a01b03831615611539576001600160a01b03831660009081526009602052604081205463ffffffff1690816114e7576000611519565b6001600160a01b038516600090815260086020908152604080832063ffffffff60001987011684529091529020600101545b9050600061152782856117cc565b90506115358684848461180e565b5050505b6001600160a01b038216156115c2576001600160a01b03821660009081526009602052604081205463ffffffff1690816115745760006115a6565b6001600160a01b038416600090815260086020908152604080832063ffffffff60001987011684529091529020600101545b905060006115b48285611359565b9050610fbf8584848461180e565b505050565b6001600160a01b03808316600090815260076020526040812054909116906115ee84610859565b6001600160a01b0385811660008181526007602052604080822080546001600160a01b031916898616908117909155905194955093928616927f3134e8a2e6d97e929a7e54011ea5485d7d196dd5f0ba4d4ef95803e8e3fc257f9190a4611656828483611485565b50505050565b6001600160a01b0382166116a15760405162461bcd60e51b8152600401808060200182810382526021815260200180611bdc6021913960400191505060405180910390fd5b6116de81604051806060016040528060228152602001611c5d602291396001600160a01b03851660009081526001602052604090205491906112c2565b6001600160a01b03831660009081526001602052604090205560035461170490826117cc565b6003556040805182815290516000916001600160a01b03851691600080516020611b748339815191529181900360200190a35050565b4690565b6001600160a01b0381166117835760405162461bcd60e51b8152600401808060200182810382526026815260200180611a516026913960400191505060405180910390fd5b600080546040516001600160a01b0380851693921691600080516020611b2e83398151915291a3600080546001600160a01b0319166001600160a01b0392909216919091179055565b6000610d7183836040518060400160405280601e81526020017f536166654d6174683a207375627472616374696f6e206f766572666c6f7700008152506112c2565b600061183243604051806060016040528060378152602001611c2660379139611973565b905060008463ffffffff1611801561187b57506001600160a01b038516600090815260086020908152604080832063ffffffff6000198901811685529252909120548282169116145b156118b8576001600160a01b038516600090815260086020908152604080832063ffffffff60001989011684529091529020600101829055611929565b60408051808201825263ffffffff808416825260208083018681526001600160a01b038a166000818152600884528681208b8616825284528681209551865490861663ffffffff19918216178755925160019687015590815260099092529390208054928801909116919092161790555b604080518481526020810184905281516001600160a01b038816927fdec2bacdd2f05b59de34da9b523dff8be42e5e38e818c82fdb0bae774387a724928290030190a25050505050565b600081600160201b84106119c85760405162461bcd60e51b81526020600482018181528351602484015283519092839260449091019190850190808383600083156113165781810151838201526020016112fe565b509192915050565b60408051808201909152600080825260208201529056fe42455032303a207472616e736665722066726f6d20746865207a65726f206164647265737342455032303a20617070726f76652066726f6d20746865207a65726f20616464726573738cad95687ba82c2ce50e74f7b754645e5117c3a5bec8151c0726d5857980a8664f776e61626c653a206e6577206f776e657220697320746865207a65726f20616464726573734d47546f6b656e3a3a64656c656761746542795369673a20696e76616c6964206e6f6e6365e48329057bfd03d55e49b547132e39cffd9c1820ad7b9d4c5307691425d15adf4d47546f6b656e3a3a6765745072696f72566f7465733a206e6f74207965742064657465726d696e656442455032303a207472616e7366657220616d6f756e74206578636565647320616c6c6f77616e63654f776e61626c653a2063616c6c6572206973206e6f7420746865206f776e65728be0079c531659141344cd1fd0a4f28419497f9722a3daafe3b4186f6b6457e042455032303a207472616e7366657220616d6f756e7420657863656564732062616c616e6365ddf252ad1be2c89b69c2b068fc378daa952ba7f163c4a11628f55a4df523b3ef42455032303a207472616e7366657220746f20746865207a65726f206164647265737342455032303a2064656372656173656420616c6c6f77616e63652062656c6f77207a65726f42455032303a206275726e2066726f6d20746865207a65726f20616464726573734d47546f6b656e3a3a64656c656761746542795369673a207369676e617475726520657870697265644d47546f6b656e3a3a5f7772697465436865636b706f696e743a20626c6f636b206e756d6265722065786365656473203332206269747342455032303a206275726e20616d6f756e7420657863656564732062616c616e636542455032303a20617070726f766520746f20746865207a65726f20616464726573734d47546f6b656e3a3a64656c656761746542795369673a20696e76616c6964207369676e6174757265a2646970667358221220e610df2dd92c4988a967ceb84f39872353f19ccaa2e1361efbf9663a6070038c64736f6c634300060c0033",
  "linkReferences": {},
  "deployedLinkReferences": {}
}